:100000000C9458010C9480010C9480010C944B12B8
:100010000C944B120C944B120C9480010C948001A4
:100020000C9480010C9480010C9480010C9480014C
:100030000C9480010C9480010C9480010C9480013C
:100040000C9401120C9480010C94D1100C94AB1000
:100050000C9480010C9480010C9480010C9480011C
:100060000C9480010C948001811388139413A513C0
:10007000A713AE13BA13CB13E113E313484F4D4943
:100080004E47205354415254004D4F56494E47203D
:1000900053544550504552004E6F20617267756D44
:1000A000656E74730057726F6E6720436F6D6D617C
:1000B0006E64004E6F20617267756D656E747300BB
:1000C00057726F6E6720436F6D6D616E64004E6F87
:1000D00020617267756D656E7473004C4541524EB8
:1000E00020454E44004C4541524E205354415254F9
:1000F000004E6F20617267756D656E7473004E6F90
:1001000020617267756D656E74730050524520539F
:1001100043414E4E494E47204F4B00537461727419
:100120002072656164206469616C00464620416C00
:10013000676F726974686D20456E640046462041A1
:100140006C676F726974686D2053746172740052C9
:1001500065616C20756E69742043616C63004F7536
:10016000746C6965727320446574656374696F6E3D
:10017000004F6E65205065616B2041646A75737431
:100180006572004F555450555420414E474C453AE6
:1001900020004F555450555420554E49543A200094
:1001A0004C4544204F464600486F6D696E672046B7
:1001B00061696C004C6561726E696E67206E6F7468
:1001C00020737563636564004E6F2076616C6964AB
:1001D0002073656E736F72206166746572206C6542
:1001E00061726E696E67004E6F2076616C69642083
:1001F00073656E736F7220616674657220726561DB
:1002000064696E67004F75746C696572732044652C
:1002100074656374696F6E204661696C005768612C
:10022000743F004C4544204F4E0000000000240065
:1002300027002A0000000008000201000003040754
:1002400000000000000000004657205665727369E8
:100250006F6E20312E372E300053544152542044BB
:1002600049414C205245414445522056312E3000E0
:1002700000000000250028002B00000000002300E3
:1002800026002900040404040404040402020202F7
:100290000202030303030303010204081020408049
:1002A000010204081020010204081020C91AD41702
:1002B00011241FBECFEFD8E0DEBFCDBF26E0A8EDF2
:1002C000B3E001C01D92AE31B207E1F713E0A0E048
:1002D000B1E0E2EFF8E402C005900D92A83DB1074D
:1002E000D9F711E0C7E5D1E004C02197FE010E94D3
:1002F000791FC635D107C9F70E94F8170C946C24F2
:100300000C940000CF92DF92EF92FF92CF93DF9395
:10031000EB01BC01990F880B990B0E94381C20E05F
:1003200030E041E055E40E94FC1D20E030E044EB69
:1003300053E40E94971C9B01AC0160E070E084EBE9
:1003400093E40E948F1DCC0FDD1FCC0FDD1FCA5D13
:10035000DE4F288139814A815B810E94901D20E017
:1003600030E048E353E40E948F1D20E030E044EB8E
:1003700053E40E94AF1E6B017C0120E030E0A90134
:100380000E94311C87FF0AC020E030E044EB53E4B8
:10039000C701B6010E94901D6B017C01C701B60127
:1003A000DF91CF91FF90EF90DF90CF9008958F92E3
:1003B0009F92AF92BF92CF92DF92EF92FF92CF9334
:1003C0000E9482016B017C018090B6049090B7047A
:1003D000A090B804B090B90420E030E044E353E4C6
:1003E0006091BA047091BB048091BC049091BD04EB
:1003F0000E948F1D9B01AC01C701B6010E94061F20
:1004000087FD11C020E030E044E353E4C501B401AE
:100410000E94901D9B01AC01C1E0C701B6010E9482
:10042000311C18160CF4C0E08C2FCF91FF90EF9088
:10043000DF90CF90BF90AF909F908F9008954F9294
:100440005F926F927F928F929F92AF92BF92CF9264
:10045000DF92EF92FF92CF930E9482014B015C01E9
:10046000C090BA04D090BB04E090BC04F090BD04EE
:1004700020E030E0A901C701B6010E94971C2B01C2
:100480003C0120E030E040EB51E4C701B6010E949E
:10049000971CA30192010E948F1D20E030E0A9016A
:1004A0000E94901D20E030E0A9010E94901D20E0F4
:1004B00030E048E453E40E94FC1D9B01AC01C501FF
:1004C000B4010E94061F87FD25C020E030E040E017
:1004D00052E4C701B6010E94971CA30192010E9439
:1004E0008F1D20E030E0A9010E94901D20E030E047
:1004F000A9010E94901D20E030E048E453E40E94EE
:10050000FC1D9B01AC01C1E0C501B4010E94311C7E
:1005100018160CF4C0E08C2FCF91FF90EF90DF9075
:10052000CF90BF90AF909F908F907F906F905F9093
:100530004F90089584E10E948B110C947B1480E00D
:100540000E948B110E94B41461E173E08CE095E08D
:100550000E94961081E00E948B110E94B41461E108
:1005600073E08CE095E00E94961082E00E948B116F
:100570000E94B41461E173E08CE095E00E94961053
:1005800083E00E948B110C947B148DE192E00C941B
:100590006B1460E086E00E94031160E087E00E9437
:1005A000031160E088E00E94031160E089E00C9490
:1005B0000311AF92BF92CF92DF92EF92FF920F930F
:1005C0001F93CF93DF9382EBE82E84E0F82EC0E0F8
:1005D000D0E000E010E09AE5C92E91E0D92E26E6A1
:1005E000A22E24E0B22EF70181917F018823A1F091
:1005F000DF93CF93DF92CF92BF92AF920E94CB2135
:1006000086E694E00E9494150F5F1F4F0F900F90A5
:100610000F900F900F900F902196C430D10519F7CD
:10062000C801DF91CF911F910F91FF90EF90DF9064
:10063000CF90BF90AF900895CF92DF92EF92FF924C
:100640000F931F93CF93DF93C2EBD4E06EE874E077
:1006500080E091E0EAEDF3E02FEF33E011921192A8
:10066000DC012D933D93CD011992DB011D92BD015B
:10067000B3E0E23EFB0791F785EE90E00E946B1439
:1006800090EDC92E97E0D92E81E090E00E94E81409
:100690000AED13E080E0E82E81E0F82EC0E08C2F18
:1006A0000E948B11F701208131818217930710F48A
:1006B00091838083D8012D913C9111972817390798
:1006C00010F48D939C93CF5FB2E0EB0EF11C0E5FA4
:1006D0001F4FC43021F765E070E080E090E00E9499
:1006E000C711E1E0CE1AD10879F68BED90E00E94B7
:1006F0006B148091E1038F938091E0038F9380913D
:10070000DF038F938091DE038F938091DD038F93BE
:100710008091DC038F938091DB038F938091DA03C8
:100720008F938DE691E09F938F93C6E6D4E0DF939D
:10073000CF930E94CB21CE010E9494158091070196
:100740008F93809106018F93809105018F93809103
:1007500004018F93809103018F93809102018F9305
:10076000809101018F93809100018F938EE791E03A
:100770009F938F93DF93CF930E94CB21CE010E9452
:100780009415ADB7BEB758960FB6F894BEBF0FBE5E
:10079000ADBF8CEB92E0DF91CF911F910F91FF9055
:1007A000EF90DF90CF900895EF92FF920F931F93F9
:1007B000CF93DF93EC018B0189E890E00E944A140B
:1007C000CE010E947B148FEAE82E85E0F82EF70117
:1007D00026813781032E000C440B550B60E077E82F
:1007E00083E993E00E945A1FCA01B9019801110FD1
:1007F000440B550B0E945A1FF70122833383448315
:100800005583CE01DF91CF911F910F91FF90EF9013
:100810000C94E814EF92FF920F931F93CF93DF9302
:100820001F92CDB7DEB78C0169830E94C71288EE94
:1008300093E09093D9038093D8036981662351F0A4
:100840006AE070E02CE92003C001219F900D112483
:100850000E94D4038CE790E00E946B1480E9E82E9C
:10086000FF24F394C8010E94E81466E070E080E081
:1008700090E00E94C71181E0E81AF10899F784E836
:1008800093E09093D9038093D8030F90DF91CF9199
:100890001F910F91FF90EF900895CF93DF930E94E7
:1008A0008C15009721F00E94E41BEC0104C08EEF30
:1008B00090E00E946B140E948C15009741F00E94FA
:1008C000E41BBC01CE01DF91CF910C94D40381EFE6
:1008D00090E0DF91CF910C946B140E948C150097DF
:1008E00029F00E94E41B61E00C940A048EEC90E075
:1008F0000C946B140E948C15009791F0FC01808180
:10090000813311F40C94C712803339F460E085E030
:100910000E94031180EA91E005C085EA90E002C0E0
:1009200088E990E00C946B1481110C94C5125C98CA
:1009300008952F923F924F925F926F927F928F9283
:100940009F92AF92BF92CF92DF92EF92FF920F935E
:100950001F93CF93DF93CDB7DEB7CA56D1090FB639
:10096000F894DEBF0FBECDBF64968FAF64970E9430
:10097000C7126EE670E080E090E00E94C7110E940E
:10098000C5126AE070E080E090E00E94C71169EA59
:1009900075E0CE0101960E9490166FE871E0CE01DD
:1009A00001960E942316BC018BEF95E00E94B517BB
:1009B000CE0101960E948B1664E670E080E090E024
:1009C0000E94C71180E00E94940461E08FEF9FEFC6
:1009D0000E940A048438934009F052C20E941C030A
:1009E0008C3B924009F016C26AED73E02F967FAF00
:1009F0006EAF2F9780E091E02B969FAF8EAF2B9735
:100A00005EE0A52E51E0B52E2C016B01E12CF12CFE
:100A100000E010E0332433946CE9862E61E0962EDA
:100A200076E6672E74E0772ED6018D919D916D014B
:100A3000F201419151912F01D5012D913D915D011F
:100A4000841B950B82179307C8F4F801EE54FB4FF3
:100A50003082BFEFEB1AFB0A1F930F939F928F9286
:100A60007F926F920E94CB2186E694E00E949415BB
:100A70000F900F900F900F900F900F900F5F1F4FE0
:100A80000430110589F6E4E0EE16F10409F48BC197
:100A900022EF33E02D963FAF2EAF2D979AEE292E01
:100AA00093E0392E42EE442E43E0542E390100E00B
:100AB00010E02B96AEADBFAD2B97CD90DD902B9671
:100AC000BFAFAEAF2B972F96EEADFFAD2F97E19056
:100AD000F1902F96FFAFEEAF2F97B60180E090E038
:100AE0000E94361C4B015C01B7016C197D0980E046
:100AF00090E00E94361C2DEC3CEC4CE05FE30E9441
:100B0000971C9B01AC01C501B4010E94901D0E947D
:100B10006E1ED3016D937D933D01AB014C5E5F4F23
:100B2000F201419351932F019B0124513109D101CD
:100B30002D933D931D013F932F935F934F937F938D
:100B40006F931F930F93ACEAB1E0BF93AF93A6E608
:100B5000B4E0BF93AF930E94CB2186E694E00E945D
:100B600094150F5F1F4F0FB6F894DEBF0FBECDBFB9
:100B70000430110509F09DCF8BE191E00E946B14C8
:100B800088E0FE01F196DF01282F1D922A95E9F7F2
:100B90003897DF011D928A95E9F77C965F0100E0A6
:100BA00010E0B5E09B2E8AE0782E66246394802EB8
:100BB000E12CF12C909E6001919ED00C1124882D87
:100BC0000E948B11F601EE0DFF1DEE0FFF1F21E0BD
:100BD00030E02C0F3D1FE20FF31F918380833FEF26
:100BE000E31AF30A65E0E616F10449F7709EF00196
:100BF000719EF00D112481E090E08C0F9D1FE80F95
:100C0000F91F208531852D96AEADBFAD2D978D9105
:100C10009D912D96BFAFAEAF2D972817390718F4C9
:100C2000F501108202C0D5016C920F5F1F4FBFEF1C
:100C3000AB1ABB0A0430110509F0B9CF8BE091E083
:100C40000E946B14C12CD12C8FEF9FEF0E94E814EF
:100C5000C601049665E070E00E94241F2D969FAFA8
:100C60008EAF2D97FE01EF5BFF4F7F019E012F5C42
:100C70003F4F61963FAF2EAF6197BE01675D7F4FDB
:100C80001B0182EB94E06B969FAF8EAF6B9742EEA9
:100C900053E06AEE73E05C01410129012C5E3F4F95
:100CA0002B963FAF2EAF2B9700E010E0EAE06E2EC0
:100CB00077247394802FAA964FAFAA97AB965FAF15
:100CC000AB97A8966FAFA897A9967FAFA9970E94F8
:100CD0008B1135E0309FF001319FF00D11242D96DE
:100CE0002EAD3FAD2D97E20FF31FEE0FFF1FA1E0DA
:100CF000B0E0AC0FBD1FEA0FFB1F91838083609EA5
:100D0000D001619EB00D112421E030E02C0F3D1F79
:100D1000A20FB31F8D919C91119712968D919C916A
:100D2000139714968D919C91159716968D919C9181
:100D3000179718968D919C91199780819181F80150
:100D4000EE0FFF1FE20FF31F91AF80AF2B96AEADFA
:100D5000BFAD2B978C91AA964FADAA97AB965FAD7E
:100D6000AB97A8966FADA897A9967FADA99720AD30
:100D700031AD882361F0FB01808191818217930757
:100D800018F0D7011C92F4C0F7017082F1C0DA01AB
:100D90008D919C912817390718F0F7017082C6C011
:100DA000D7011C92C3C088EC91E00E946B146EE6E0
:100DB00070E080E090E00E94C7110E94C5126AE0D6
:100DC00070E080E090E00E94C71169EA75E0CE0112
:100DD00001960E94901664E373E0CE0101960E9492
:100DE0002316BC018BEF95E00E94B517CE0101964A
:100DF0000E948B1664E670E080E090E00E94C711CC
:100E000080E00E9494046AE070E08CEC97EF0E940E
:100E1000D40366C084EB91E00E946B146EE670E030
:100E200080E090E00E94C7110E94C5126AE070E065
:100E300080E090E00E94C71169EA75E0CE0101965A
:100E40000E9490166CE373E0CE0101960E94231677
:100E5000BC018BEF95E00E94B517CE0101960E9470
:100E60008B1664E670E080E090E00E94C71180E09D
:100E70000E94940460E081E090E00E940A0430C087
:100E80006EE670E080E090E00E94C7110E94C512FB
:100E90006AE070E080E090E00E94C71169EA75E0C6
:100EA000CE0101960E94901664E473E0CE01019693
:100EB0000E942316BC018BEF95E00E94B517CE016E
:100EC00001960E948B1664E670E080E090E00E943C
:100ED000C71180E00E94940488EA91E00E946B149C
:100EE0000E94C9020E94C90260E085E00E940311CD
:100EF00080EA91E00E946B14C659DF4F0FB6F89458
:100F0000DEBF0FBECDBFDF91CF911F910F91FF903C
:100F1000EF90DF90CF90BF90AF909F908F907F9099
:100F20006F905F904F903F902F900895F7018081D0
:100F3000882339F1F5018081811123C0D2018D917F
:100F40009C918230910514F070820DC0F801EE0F73
:100F5000FF1FEE0FFF1FE80FF91FEE0FFF1FEA5DE7
:100F6000FB4FD182C0820196F2019183808309C038
:100F7000D7018C91811105C0D5018C91882309F48A
:100F8000D4C6F70181917F012B96AEADBFAD2B97F3
:100F90008D932B96BFAFAEAF2B970F5F1F4FB2E075
:100FA0004B0E511CE2E08E0E911CFFEFAF1ABF0AF0
:100FB0006E5F7F4F4E5F5F4F0430110509F07ACEB0
:100FC00064962FAD64972223C9F121966EAD7FAD53
:100FD00021974DAD5EAD2BAD3CAD89AD9AAD25965B
:100FE000EFAD25971F92EF932496EFAD24971F92B4
:100FF000EF932396EFAD23971F92EF932296EFADD9
:1010000022971F92EF937F936F935F934F933F933A
:101010002F939F938F93A7ECB1E0BF93AF9386E696
:1010200094E09F938F930E94CB2186E694E00E94E8
:1010300094150FB6F894DEBF0FBECDBF64E070E02C
:1010400080E090E00E94C7113FEFC31AD30A60ED21
:10105000C61667E0D60609F0F7CDE2EBF4E0CE0164
:10106000C1968E01075D1F4F31E06A962FAD6A97DA
:101070002C5FD8016D917D918D01DC014D915D91C9
:10108000CD016417750709F0308331962E13F1CF27
:10109000E6E2F4E02D96FFAFEEAF2D9726E434E0C4
:1010A0002F963FAF2EAF2F9779014F0100E010E050
:1010B00077247394A3EEAA2EA1E0BA2EB6E6CB2E27
:1010C000B4E0DB2E6196AEADBFAD61978D919D9181
:1010D0006196BFAFAEAF6197019729F0F1018081B2
:1010E0009181019721F4F801E257FB4F7082D401FE
:1010F00013968C9113978F9312968C9112978F93CE
:1011000011968C9111978F938C918F93F701838116
:101110008F9382818F9381818F9380818F931F938F
:101120000F93BF92AF92DF92CF920E94CB2186E6BF
:1011300094E00E9494150F5F1F4FF8E08F0E911CF2
:1011400028E0E20EF11C32E0230E311C0FB6F894B9
:10115000DEBF0FBECDBF0430110509F0B3CF0E9432
:10116000D902049709F4B0C58FE491E00E946B1492
:1011700080E090E0A0E2B2E48093B6049093B704DC
:10118000A093B804B093B90480E090E0A0EAB3E47F
:101190008093BA049093BB04A093BC04B093BD04A5
:1011A0008EEF93E02B969FAF8EAF2B9776E0872E36
:1011B00074E0972EAEE8B4E06796BFAFAEAF679726
:1011C000EEE1F1E06596FFAFEEAF6597E6E1AE2E9A
:1011D000E4E0BE2E26E131E06D963FAF2EAF6D9775
:1011E00062EB74E0A3967FAF6EAFA39769961FAED4
:1011F0001EAE699761961FAE1EAE6197F6E62F2E62
:10120000F4E03F2E60961FAD609761960FAD619739
:10121000A396AEADBFADA3978D91A396BFAFAEAF72
:10122000A397811108C36796EEADFFAD67978081E4
:1012300081110BC12F96AEADBFAD2F978D919C91B3
:10124000119712966D917C9113972D96EEADFFAD8F
:101250002D972081318142815381681779072CF4C1
:10126000CB01EE24E394F12C02C0E12CF12C2817E1
:1012700039070CF49BC0481759071CF493E0E92E7A
:10128000F12CFF92EF920F931F9382E092E09F93D5
:101290008F933F922F920E94CB2186E694E00E948A
:1012A0009415C70102970FB6F894DEBF0FBECDBFED
:1012B000029708F495C02D96AEADBFAD2D9712964E
:1012C0006D917C9113972F96EEADFFAD2F974081D6
:1012D0005181405F574F461B570BD5014D935C938F
:1012E0002D96AEADBFAD2D97ED91FC912F96AEAD85
:1012F000BFAD2F9712962D913C9113972E1B3F0B4C
:10130000D50113963C932E931297CA019695879513
:10131000860F971F60E178E00E94101FD40111969C
:101320009C938E9336952795E20FF31F1396FC93AB
:10133000EE9312976596EEADFFAD659720813181F2
:10134000D4018D919C91821B930B60E178E00E9407
:10135000101FF4019183808382819381821B930B00
:1013600060E178E00E94101F828393839F938F93A4
:10137000D50113968C9113978F9312968C91129797
:101380008F9381818F9380818F9311968C91119788
:101390008F938C918F930F931F938EE092E09F9386
:1013A0008F933F922F920E94CB21B7C042175307D1
:1013B0000CF464CF1F9282E08F930F931F9382E00F
:1013C00092E09F938F933F922F920E94CB2186E6CB
:1013D00094E00E9494150FB6F894DEBF0FBECDBF07
:1013E0002D96AEADBFAD2D976D917C912F96EEAD44
:1013F000FFAD2F9720813181261B370BD5012D930F
:101400003C932D96EEADFFAD2D97428153812F96E3
:10141000AEADBFAD2F9712968D919C911397841B03
:10142000950BF5019383828336952795260F371FF9
:10143000D40111963C932E9396958795840F951F12
:1014400013969C938E93129775CF2F96EEADFFADAA
:101450002F97208131812D96AEADBFAD2D976D9127
:101460007C9126173707A8F4A901405F574F461B08
:10147000570BF50151834083CA0196958795860FD6
:10148000971F60E178E00E94101FD4018D939C9318
:101490000CC0261B370BF501318320833695279529
:1014A000260F371FD4012D933C936D96EEADFFAD03
:1014B0006D9780819181019761F4D4018D919C9108
:1014C000885F9B4F60E178E00E94101FF4019183D8
:1014D0008083D4018D919C916596EEADFFAD6597AB
:1014E00020813181821B930B60E178E00E94101F04
:1014F000D4018C9311969C939F938F93F5018181D6
:101500008F9380818F930F931F938EE292E09F932E
:101510008F933F922F920E94CB2186E694E00E9407
:1015200094150FB6F894DEBF0FBECDBF8CE391E0EB
:101530000E946B146796AEADBFAD67978C91811119
:1015400062C0F401C080D180612F702FC6010E945B
:10155000D701882391F00F931F9380E492E09F932B
:101560008F933F922F920E94CB2186E694E00E94B7
:101570009415D4018D919C911FC0D4011296ED90C9
:10158000FC901397612F702FC7010E94D701882309
:10159000D1F00F931F93A7E5B2E0BF93AF933F92B3
:1015A0002F920E94CB2186E694E00E949415D401EC
:1015B00012968D919C9113972B96EEADFFAD2B97C4
:1015C0009183808350C0612F702FC6010E941F023B
:1015D000612F702F882331F0C7010E941F028111F3
:1015E000BEC3DBC3C7010E941F02882309F4E0C306
:1015F0002B96AEADBFAD2B97ED92FC920F931F9340
:10160000A3E6B3E026C0D401ED90FC90C701885F4B
:101610009B4F60E178E00E94101F6C01612F702FDA
:101620000E941F02882359F02B96EEADFFAD2B9739
:10163000D182C0820F931F93A6EDB2E00AC02B9611
:10164000AEADBFAD2B97ED92FC920F931F93AAEE18
:10165000B2E0BF93AF933F922F920E94CB2186E6D8
:1016600094E00E9494150F900F900F900F900F90A0
:101670000F908BE291E00E946B142B96AEADBFAD44
:101680002B9711968C9111978F938C918F930F9329
:101690001F93ABEFB2E0BF93AF933F922F920E94A4
:1016A000CB2186E694E00E949415612F702F2B9633
:1016B000AEADBFAD2B978D919C910E94820160933E
:1016C000FA037093FB038093FC039093FD030F9345
:1016D0001F93AAE0B3E0BF93AF933F922F920E9473
:1016E000CB2166E674E08CE095E00E949610409174
:1016F000FA035091FB036091FC037091FD0323E01A
:101700008CE095E00E94BF168BEC93E00E9494154C
:101710004090FA035090FB036090FC037090FD032F
:101720006996EEADFFAD6997EE55FB4F4082518251
:1017300062827382C090B604D090B704E090B8047F
:10174000F090B9046091BA047091BB048091BC041C
:101750009091BD04A1966CAF7DAF8EAF9FAFA19766
:1017600020E030E0A901C701B6010E94971CA796AE
:101770006CAF7DAF8EAF9FAFA79769960EAD1FADD3
:1017800069970E561B4F20E030E048E453E4C30154
:10179000B2010E94971C2B013C0120E030E048E49C
:1017A00053E4C701B6010E94971C9B01AC01C30121
:1017B000B2010E948F1DA7962CAD3DAD4EAD5FAD21
:1017C000A7970E94901D2B013C0120E030E0A90169
:1017D000A1966CAD7DAD8EAD9FADA1970E94971C7B
:1017E0009B01AC01C301B2010E948F1DA7962CADD5
:1017F0003DAD4EAD5FADA7970E94901D2B013C0102
:10180000A7019601A1966CAD7DAD8EAD9FADA19760
:101810000E948F1D9B01AC01C301B2010E94FC1DFF
:10182000D8016D937D938D939C9313970FB6F89485
:10183000DEBF0FBECDBF61962EAD3FAD61972F5F6E
:101840003F4F61963FAF2EAF61972B966EAD7FAD48
:101850002B976E5F7F4F2B967FAF6EAF2B9769965E
:101860008EAD9FAD6997049669969FAF8EAF6997CD
:1018700094E0890E911C6796AEADBFAD6797119647
:101880006796BFAFAEAF67976596EEADFFAD659754
:1018900032966596FFAFEEAF6597F4E0AF0EB11CE0
:1018A0006D962EAD3FAD6D972E5F3F4F6D963FAF5E
:1018B0002EAF6D972D966EAD7FAD2D97685F7F4FE4
:1018C0002D967FAF6EAF2D972F968EAD9FAD2F9734
:1018D00008962F969FAF8EAF2F976196AEADBFAD96
:1018E0006197149709F08ECC8E01075D1F4F88E039
:1018F000F80111928A95E9F781E791E00E946B1453
:101900004091A2045091A3046091A4047091A50495
:1019100022E030E08CE095E00E94A1174091A604FF
:101920005091A7046091A8047091A90422E030E0CE
:101930008CE095E00E94A1174091AA045091AB045D
:101940006091AC047091AD0422E030E08CE095E051
:101950000E94A1174091AE045091AF046091B00471
:101960007091B10422E030E08CE095E00E94A11774
:101970008EE591E00E946B142B961FAF0EAF2B9754
:10198000380122EA34E02F963FAF2EAF2F97212C5B
:10199000312C33E1432E33E0532E2F96AEADBFAD45
:1019A0002F97CD90DD90ED90FD902F96BFAFAEAF0D
:1019B0002F9720E030E040E051E4C701B6010E94DB
:1019C000901D63966CAF7DAF8EAF9FAF6397E2EAD9
:1019D000F4E02D96FFAFEEAF2D972D96AEADBFADD7
:1019E0002D978D909D90AD90BD902D96BFAFAEAFD1
:1019F0002D9763962CAD3DAD4EAD5FAD6397C501A0
:101A0000B4010E94311C87FF16C020E030E040E0A6
:101A100051E4C701B6010E948F1D9B01AC01C501B5
:101A2000B4010E94061F181634F4F30180819181DD
:101A30000196918380832D962EAD3FAD2D97225B2D
:101A4000344059F6D3018C9111969C91B2E06B0E03
:101A5000711C9F938F933F922F925F924F92A6E6B5
:101A6000B4E0BF93AF930E94CB2186E694E00E943E
:101A70009415FFEF2F1A3F0A0FB6F894DEBF0FBE82
:101A8000CDBF34E02316310409F087CFCE018F9605
:101A9000F80141915191208131814217530709F496
:101AA00054C029A53AA58BA59CA58217930724F4B9
:101AB0009C0181E090E002C080E090E04DA55EA531
:101AC000421753071CF49A0182E090E04FA558A9F1
:101AD0004217530714F483E090E0FC01EE54FB4FEF
:101AE00021E02083880F991FFE01E80FF91F21A52F
:101AF00032A5CE01C196E2EBF4E041E02B96AEAD0B
:101B0000BFAD2B976D917D912B96BFAFAEAF2B974D
:101B10006217730709F4408331962B966EAD7FAD43
:101B20002B976817790751F70E94D902049709F497
:101B3000A8C00E94C902C12CD12CE12CF12C412C4F
:101B4000512C32015301420105C0E817F90709F091
:101B5000A0CFEACF6B96AEADBFAD6B978D916B9674
:101B6000BFAFAEAF6B9781111DC0F601EE55FB4FB5
:101B70002081318142815381C501B4010E94901DB1
:101B80004B015C01F601EE56FB4F20813181428111
:101B90005381C301B2010E94901D2B013C01BFEF94
:101BA000EB1AFB0AE4E0CE0ED11CF0E1CF16D10413
:101BB00089F6B701FF0C880B990B0E94381C6B014A
:101BC0007C019B01AC01C301B2010E94FC1D2B01F1
:101BD0003C01A7019601C501B4010E94FC1D6B01E7
:101BE0007C0182E991E00E944A1424E030E0B301D4
:101BF000A2018CE095E00E94A11783E891E00E9489
:101C00004A1424E030E0B701A6018CE095E00E9480
:101C1000A1176EE670E080E090E00E94C7110E947C
:101C2000C5126AE070E080E090E00E94C71169EAA6
:101C300075E0C8010E9490166DE173E0C8010E9432
:101C40002316DC0114964D915C9115976D917C9152
:101C50008BEF95E00E94D612C8010E948B1622E0FD
:101C600030E0B301A2018BEF95E00E94A11764E67A
:101C700070E080E090E00E94C71180E00E94940430
:101C800031C985E092E00E946B146EE670E080E05E
:101C900090E00E94C7110E94C5126AE070E080E0E7
:101CA00090E00E94C71169EA75E0C8010E94901691
:101CB00064E273E0C8010E942316BC018BEF95E03B
:101CC0000E94B517C80125C087EE91E00E946B14F1
:101CD0006EE670E080E090E00E94C7110E94C5129D
:101CE0006AE070E080E090E00E94C71169EA75E068
:101CF000CE0189960E9490166CE273E0CE0189961F
:101D00000E942316BC018BEF95E00E94B517CE010F
:101D100089960E948B1664E670E080E090E00E9455
:101D2000C71180E00E949404DBC8F4018081918196
:101D30008230910514F07C920DC0F801EE0FFF1F68
:101D4000EE0FFF1FE80FF91FEE0FFF1FEA5BFB4FBF
:101D5000D182C0820196D4018D939C9312C9F50162
:101D600020813181828193812817390758F42B967D
:101D7000AEADBFAD2B97CD92DC920F931F93AEE625
:101D8000B2E067CC2B96AEADBFAD2B97ED92FC9237
:101D90000F931F93A8E8B2E05CCC2B96AEADBFAD1D
:101DA0002B97CD92DC920F931F93ACE4B3E051CC10
:101DB000D5012D913C91119712968D919C9113977D
:101DC0002817390758F42B96AEADBFAD2B97CD929F
:101DD000DC920F931F93A2EAB2E03BCC2B96AEAD00
:101DE000BFAD2B97ED92FC920F931F93ACEBB2E03B
:101DF00030CC0E948C15009771F0FC0180818133FA
:101E000011F481E003C0803319F480E00C9499044C
:101E100080EC90E002C083EB90E00C946B14FC012A
:101E2000538D448D252F30E0842F90E0821B930B3F
:101E3000541710F0CF96089501970895FC01918DE5
:101E4000828D981761F0828DDF01A80FB11D5D961C
:101E50008C91928D9F5F9F73928F90E008958FEF8A
:101E60009FEF0895FC01918D828D981731F0828D3E
:101E7000E80FF11D858D90E008958FEF9FEF089595
:101E8000FC01918D228D892F90E0805C9F4F821BF9
:101E900091098F73992708958CE095E00E94400F77
:101EA00021E0892B09F420E0822F0895FC01848D24
:101EB000DF01A80FB11DA35ABF4F2C91848D90E074
:101EC00001968F739927848FA689B7892C93A0894F
:101ED000B1898C9180648C93938D848D981306C006
:101EE0000288F389E02D80818F7D80830895EF92B1
:101EF000FF920F931F93CF93DF93EC0181E0888FC4
:101F00009B8D8C8D981305C0E889F989808185FDAA
:101F100024C0F62E0B8D10E00F5F1F4F0F7311279B
:101F2000E02E8C8DE8120CC00FB607FCFACFE889C2
:101F3000F989808185FFF5CFCE010E94560FF1CF40
:101F40008B8DFE01E80FF11DE35AFF4FF0820B8FDE
:101F5000EA89FB898081806207C0EE89FF896083FE
:101F6000E889F98980818064808381E090E0DF9155
:101F7000CF911F910F91FF90EF900895CF93DF9332
:101F8000EC01888D8823C9F0EA89FB89808185FD71
:101F900005C0A889B9898C9186FD0FC00FB607FCD2
:101FA000F5CF808185FFF2CFA889B9898C9185FF13
:101FB000EDCFCE010E94560FE7CFDF91CF9108956C
:101FC00080E090E0892B29F00E944C0F81110C9445
:101FD000000008952091BE043091BF0428173907EE
:101FE00071F49091090580910A05981741F0E091EC
:101FF0000905F0E0E054FB4F808190E008958FEFF9
:102000009FEF089508951F93CF93DF93DC015C96B3
:102010002D913C915D972115310539F481E090E0D7
:1020200013969C938E9312973DC05196ED91FC911F
:10203000529750969C915097892F80951FB75E9626
:102040004C915E9741FB772770F941FD6095F894BC
:102050004081772311F0492B01C048234083E901D7
:102060002197F1F748E0508160FF02C0592B01C071
:1020700058235083E9012197F1F76695415099F76C
:10208000772321F090818923808303C08081982B5E
:1020900090831FBF5C968D919C915D970197F1F79E
:1020A00021E030E0C901DF91CF911F910895209187
:1020B000BE043091BF042817390771F480910A05D6
:1020C0002091090590E0805C9F4F821B910960E49C
:1020D00070E00E94241F089580E090E00895209110
:1020E000BE043091BF0428173907B9F4909109054F
:1020F00080910A05981789F0E0910905F0E0E05415
:10210000FB4F80812091090530E02F5F3F4F2F73F7
:1021100033272093090590E008958FEF9FEF0895EE
:10212000089580E090E008950E9476216115710580
:1021300079F0FB0101900020E9F73197AF01461BD0
:10214000570BDC01ED91FC910280F381E02D0994A5
:1021500080E090E008951F920F920FB60F92112425
:102160002F933F934F935F936F937F938F939F939F
:10217000AF93BF93EF93FF938CE095E00E94560FCF
:10218000FF91EF91BF91AF919F918F917F916F914F
:102190005F914F913F912F910F900FBE0F901F9025
:1021A00018951F920F920FB60F9211242F938F93B1
:1021B0009F93EF93FF93E0911C05F0911D058081A3
:1021C000E0912205F091230582FD12C0908180915B
:1021D00025058F5F8F7320912605821751F0E091BE
:1021E0002505F0E0E45FFA4F958F8093250501C047
:1021F0008081FF91EF919F918F912F910F900FBE52
:102200000F901F90189590E0FC01EC5CFD4F34910D
:10221000FC01E856FD4F2491FC01EC57FD4FE49181
:10222000EE2309F43BC0332339F1333091F038F415
:102230003130A9F0323001F584B58F7D12C03730CE
:1022400091F03830A1F03430B9F4809180008F7D66
:1022500003C0809180008F77809380000DC084B58B
:102260008F7784BD09C08091B0008F7703C08091C3
:10227000B0008F7D8093B000F0E0EE0FFF1FE059BB
:10228000FD4FA591B4918FB7F894EC91611103C003
:1022900020952E2301C02E2B2C938FBF0895CF9312
:1022A000DF9390E0FC01E856FD4F2491FC01EC57D0
:1022B000FD4F8491882361F190E0880F991FFC0104
:1022C000E65DFD4FC591D491FC01E059FD4FA5910C
:1022D000B491611109C09FB7F89488812095822339
:1022E0008883EC912E230BC0623061F49FB7F89481
:1022F0003881822F809583238883EC912E2B2C9319
:102300009FBF06C08FB7F894E8812E2B28838FBF1C
:10231000DF91CF9108958E3008F08E5087708064E1
:1023200080937C0080917A00806480937A00809111
:102330007A0086FDFCCF809178002091790090E0B2
:10234000922B08953FB7F89480910505909106056A
:10235000A0910705B091080526B5A89B05C02F3FA1
:1023600019F00196A11DB11D3FBFBA2FA92F982FBB
:102370008827820F911DA11DB11DBC01CD0142E036
:10238000660F771F881F991F4A95D1F708958F927E
:102390009F92AF92BF92CF92DF92EF92FF926B012A
:1023A0007C010E94A2114B015C01C114D104E10423
:1023B000F104F1F00E94A211DC01CB018819990906
:1023C000AA09BB09883E9340A105B10570F321E03D
:1023D000C21AD108E108F10888EE880E83E0981E41
:1023E000A11CB11CC114D104E104F10419F7DDCF23
:1023F000FF90EF90DF90CF90BF90AF909F908F9025
:1024000008951F920F920FB60F9211242F933F93AE
:102410008F939F93AF93BF93809101059091020595
:10242000A0910305B09104053091000523E0230F2E
:102430002D3720F40196A11DB11D05C026E8230FFC
:102440000296A11DB11D2093000580930105909374
:102450000205A0930305B0930405809105059091B2
:102460000605A0910705B09108050196A11DB11DB3
:102470008093050590930605A0930705B093080582
:10248000BF91AF919F918F913F912F910F900FBE70
:102490000F901F9018951F920F920FB60F92112454
:1024A0002F933F934F935F936F937F938F939F935C
:1024B000AF93BF93EF93FF93E091BE04F091BF04FD
:1024C000309709F451C0968DA685B785858591FF13
:1024D00004C09C91892329F447C09C91892309F069
:1024E00043C0A389B4899C918589809589238C9365
:1024F000868997890197F1F7608D718DA685B785DB
:10250000558538E020E0CB010197F1F7822F90E06C
:1025100095958795282F4C91452309F020683150D7
:1025200091F7868D81FD209580910A0590E00196B6
:102530008F73992730910905381749F0A0910A0542
:10254000B0E0A054BB4F2C9380930A0503C0868D46
:102550008160868F828D938D0197F1F7A389B4896D
:102560009C918589892B8C93FF91EF91BF91AF91BD
:102570009F918F917F916F915F914F913F912F919B
:102580000F900FBE0F901F9018955C9A089561E010
:1025900085E00E94031183E292E00C946B14DC014D
:1025A000ED91FC910190F081E02D0994CF92DF92A2
:1025B000EF92FF920F931F93CF93DF936C017A01F9
:1025C0008B01C0E0D0E0CE15DF0589F0D8016D9118
:1025D0008D01D601ED91FC910190F081E02DC601B5
:1025E0000995892B11F47E0102C02196ECCFC70119
:1025F000DF91CF911F910F91FF90EF90DF90CF90DF
:102600000895CF93DF93EC018091B7059091B805C1
:10261000029709F5C130D10569F024F42097D9F467
:1026200060E009C0C230D10561F0C330D10599F432
:1026300060E008C061E08091BB050E94031161E089
:1026400006C061E08091BB050E94031160E08091AB
:10265000BD050E9403118091B7059091B8050497BC
:1026600009F03FC0C130D105B9F04CF42097C9F54D
:1026700061E08091BB050E94031160E013C0C2308D
:10268000D105D9F0C330D10561F561E08091BB057A
:102690000E94031160E017C060E08091BB050E94BA
:1026A000031161E08091BD050E94031161E08091FA
:1026B000BF050E94031160E010C060E08091BB057F
:1026C0000E94031161E08091BD050E94031160E04A
:1026D0008091BF050E94031161E08091C1050E94B5
:1026E00003118091B7059091B805059709F086C050
:1026F000CA30D10508F082C0FE01EC5CFF4F0C949B
:10270000791F60E08091BB050E94031161E061C008
:1027100060E08091BB050E94031161E08091BD05DE
:102720000E94031160E05AC060E08091BB050E94E6
:10273000031161E08091BD050E94031160E080916A
:10274000BF050E94031161E04EC060E001C061E07E
:102750008091BB050E94031161E006C061E0809199
:10276000BB050E94031160E08091BD050E9403112A
:1027700060E00BC061E08091BB050E94031160E046
:102780008091BD050E94031161E08091BF050E9408
:10279000031161E010C061E08091BB050E9403114C
:1027A00060E08091BD050E94031161E08091BF054A
:1027B0000E94031160E08091C1050E94031160E056
:1027C00017C061E001C060E08091BB050E94031169
:1027D00060E08091BD050E94031161E08091BF051A
:1027E0000E94031160E08091C1050E94031161E025
:1027F0008091C305DF91CF910C940311DF91CF91AC
:1028000008954F925F926F927F92EF92FF920F9393
:102810001F93CF93DF93CDB7DEB7A1970FB6F89490
:10282000DEBF0FBECDBF7C01FA01CB0119A2223061
:1028300008F42AE08E010F5D1F4F422E512C612CAF
:10284000712CBF01A30192010E94381FF901CA0136
:10285000015011096A3014F4605D01C0695CD8014F
:102860006C93232B242B252B61F7B801C7010E9401
:102870009610A1960FB6F894DEBF0FBECDBFDF91C4
:10288000CF911F910F91FF90EF907F906F905F908D
:102890004F9008950F931F93CF93DF938C01C0E067
:1028A000D0E0F801EC0FFD1F6491662371F0E09118
:1028B0000C05F0910D050190F081E02D8CE095E084
:1028C0000995892B11F02196ECCFCE01DF91CF91A4
:1028D0001F910F910895CF93DF930E944A14EC014A
:1028E00069EC73E08CE095E00E9496108C0F9D1FC0
:1028F000DF91CF910895CF92DF92EF92FF92CF9325
:10290000DF936C01990FEE08FF08F7FE16C06DE229
:102910008CE095E00E94CF12EC0144275527BA01C4
:102920004C195D096E097F092AE08CE095E00E9450
:1029300001147C01EC0EFD1E08C02AE0B701A601BF
:102940008CE095E00E9401147C0169EC73E08CE05E
:1029500095E00E9496108E0D9F1DDF91CF91FF9004
:10296000EF90DF90CF900895CF92DF92EF92FF9299
:10297000CF93DF936C01990FEE08FF08F7FE1BC0A1
:102980006DE28CE095E00E94CF12EC0144275527C0
:10299000BA014C195D096E097F092AE08CE095E0C7
:1029A0000E9401148C0F9D1FDF91CF91FF90EF903B
:1029B000DF90CF9008952AE0B701A6018CE095E062
:1029C000DF91CF91FF90EF90DF90CF900C940114A6
:1029D0004F925F926F927F928F929F92AF92BF922F
:1029E000EF92FF920F931F93CF93DF93EC0197FF2A
:1029F00004C0CC27DD27C81BD90B181619063CF4D8
:102A000081E090E09093B0058093AF0506C0892BDC
:102A100021F01092B0051092AF0504E010E08AE0BA
:102A2000E82EF12C209709F468C00E94A211809032
:102A3000C5059090C605A090C705B090C8052B01AC
:102A40003C01481859086A087B088090B1059090AD
:102A5000B205A090B305B090B405481459046A04B7
:102A60007B0400F36093C5057093C6058093C7058A
:102A70009093C8052091AF053091B0058091B905BC
:102A80009091BA052130310589F401969093BA05E9
:102A90008093B9052091B5053091B605821793074B
:102AA000C1F41092BA051092B90513C0892B41F4F4
:102AB0008091B5059091B6059093BA058093B905BC
:102AC0008091B9059091BA0501979093BA058093CA
:102AD000B90521972091B7053091B8058091B905C6
:102AE0009091BA052530310511F4B70101C0B80144
:102AF0000E94241F0E94011395CFDF91CF911F9157
:102B00000F91FF90EF90BF90AF909F908F907F902C
:102B10006F905F904F90089549EF55E064ED75E038
:102B200080E090E00C94021CCF93DF93BC018CE01A
:102B300095E00E949610EC0169EC73E08CE095E062
:102B40000E9496108C0F9D1FDF91CF910895BF9228
:102B5000CF92DF92EF92FF920F931F93CF93DF9369
:102B60006C017B01CFECD5E02A8130E02F5F3F4F35
:102B70008BE0829FB001839F700D11248881998121
:102B80000E94AC2099838883BA808C012BE0B29E8E
:102B9000000D111D112448E050E0B601C8010E944B
:102BA000A221F801F286E186B394BA82DF91CF9137
:102BB0001F910F91FF90EF90DF90CF90BF900895FD
:102BC000CF93DF932091CD053091CE05232B79F063
:102BD000FC01C091C905D091CA0560817181CE0107
:102BE0000E94B121009719F08C1B9D0B02C08FEF42
:102BF0009FEFDF91CF9108950F931F93CF93DF93B2
:102C0000EC0188819981009729F02A813B81261760
:102C1000370788F48B016F5F7F4F0E94AC200097CD
:102C200061F0998388831B830A832C813D81232B48
:102C300011F4FC01108281E001C080E0DF91CF91AE
:102C40001F910F910895EF92FF920F931F93CF93CF
:102C5000DF93EC017B0161157105F1F0FB0101903F
:102C60000020E9F73197E61BF70B0C811D813097A7
:102C7000F9F00E0F1F1FB8010E94FC15882361F0A8
:102C8000288139818C819D81B701820F931F0E9419
:102C90008D211D830C830CC088819981009711F0D0
:102CA0000E941420198218821D821C821B821A82A3
:102CB000CE01DF91CF911F910F91FF90EF9008957A
:102CC000EF92FF920F931F93CF93DF93EC017B0161
:102CD0008A01BA010E94FC152881398181110DC039
:102CE0002115310519F0C9010E941420198218829A
:102CF0001D821C821B821A8206C01D830C83B701B1
:102D0000C9010E948D21CE01DF91CF911F910F91BA
:102D1000FF90EF900895FC01808191810C94142024
:102D2000FB01DC0111961C921E9213961C921E92BE
:102D3000129715961C921E9214978617970749F0C2
:102D4000608171816115710521F0448155810C9478
:102D500060160895FC01118210821382128215827E
:102D600014826115710551F0FB0101900020E9F713
:102D70003197AF01461B570B0C94601608954F9284
:102D80005F926F927F928F929F92AF92BF92CF92FB
:102D9000DF92EF92FF92CF93DF93EC016A017B0108
:102DA000B22E9A01AB01C701B6010E940B1F882306
:102DB00019F06CEC73E027C026013701E89477F82E
:102DC0002FEF3FEF4FE75FE7C301B2010E940B1FF8
:102DD00081110DC02FEF3FEF4FE75FE7C301B20155
:102DE0000E94311C18161CF460ED73E00CC02FEF2C
:102DF0003FEF4FE75FE4C701B6010E94061F1816B8
:102E00009CF464ED73E0CE01DF91CF91FF90EF90E1
:102E1000DF90CF90BF90AF909F908F907F906F90FA
:102E20005F904F900C9496102FEF3FEF4FE75FECC1
:102E3000C701B6010E94311C87FDE3CF20E030E0DE
:102E4000A901C701B6010E94311C87FF0AC06DE2CB
:102E5000CE010E94CF124C01F7FAF094F7F8F094EB
:102E600002C0812C912CA12C60E070E080E09FE3F7
:102E7000AB1441F020E030E040E251E40E94FC1D40
:102E8000A394F6CF9B01AC01C701B6010E94901D2F
:102E90002B013C010E94751E6B017C010E94361CB7
:102EA0009B01AC01C301B2010E948F1D2B013C01AB
:102EB0002AE0B701A601CE010E9401147C01E80CB2
:102EC000F91CBB2031F06EE2CE010E94CF12E80E59
:102ED000F91EDB2CDD2029F120E030E040E251E456
:102EE000C301B2010E94971C2B013C010E94751E78
:102EF0004B01A12CB12C2AE0B501A401CE010E9406
:102F00000114E80EF91EC501B4010E94361C9B0194
:102F1000AC01C301B2010E948F1D2B013C01DA9468
:102F2000D9CFC701DF91CF91FF90EF90DF90CF9085
:102F3000BF90AF909F908F907F906F905F904F90D9
:102F400008950F931F93CF93DF93EC010E94BF1658
:102F50008C0169EC73E0CE010E949610800F911FE6
:102F6000DF91CF911F910F9108950F931F93CF93EE
:102F7000DF93EC01E881F981DB0114964D915C91BE
:102F800015976D917C910280F381E02D09958C015C
:102F900069EC73E0CE010E949610800F911FDF91C3
:102FA000CF911F910F91089589EA95E00E948B16A9
:102FB00089EC95E00E948B168CE491E09093FC05DF
:102FC0008093FB058091BE049091BF048B5F954078
:102FD00071F4E0910E06F0910F0690818091100639
:102FE0008095892380831092BF041092BE040895B7
:102FF000CF93DF9300D000D000D0CDB7DEB7789468
:1030000084B5826084BD84B5816084BD85B58260ED
:1030100085BD85B5816085BD80916E00816080939E
:103020006E00109281008091810082608093810007
:103030008091810081608093810080918000816017
:10304000809380008091B10084608093B100809172
:10305000B00081608093B00080917A00846080939A
:103060007A0080917A00826080937A0080917A0061
:10307000816080937A0080917A00806880937A00E2
:103080001092C100E0911C05F0911D0582E0808343
:10309000E0911805F09119051082E0911A05F09160
:1030A0001B0587E6808310922405E0912005F091AE
:1030B000210586E08083E0911E05F0911F05808147
:1030C00080618083E0911E05F0911F0580818860FA
:1030D0008083E0911E05F0911F05808180688083C8
:1030E000E0911E05F0911F0580818F7D80831092F5
:1030F00016061092150610921406109213061092DE
:103100001206109211068DE991E0909318068093B3
:10311000170690910706963108F057C02DEB30E066
:1031200030931206209311062BE931E030931406F8
:10313000209313062CE231E03093160620931506F7
:1031400020916800983050F031E09E3008F430E073
:1031500081E001C0880F3A95EAF701C084E0822B34
:1031600080936800983038F09E3040F0963148F0F7
:1031700020E030E008C02DE630E005C02BE630E06E
:1031800002C02CE630E030930F0620930E069830F4
:1031900030F481E001C0880F9A95EAF70EC0292F1C
:1031A00030E09E3018F42850310902C02E50310909
:1031B00081E001C0880F2A95EAF78093100680917C
:1031C0001706909118060197F1F7809115069091D6
:1031D0001606892B49F1E091BE04F091BF0425E069
:1031E000EB3FF20709F1309739F0A389B4899C913C
:1031F0008589809589238C93809119068E7F809391
:10320000190610920A05109209058BEF95E090932C
:10321000BF048093BE04E0910E06F0910F069081EA
:1032200080911006892B808380E00E94940461E0E5
:1032300085E00E944F1161E084E00E944F1189E512
:1032400092E00E946B1469EA75E08CE095E00E94C0
:10325000B5176EE670E080E090E00E94C7110E9412
:10326000C5126AE070E080E090E00E94C71169EA50
:1032700075E0CE0101960E9490166AE773E0CE01D8
:1032800001960E942316BC018BEF95E00E94B517B2
:10329000CE0101960E948B1664E670E080E090E01B
:1032A0000E94C71180E00E94940488E492E00E948A
:1032B0006B146DE674E080E993E00E94A7156DE45D
:1032C00074E081E893E00E94A71569EF7EE086E84C
:1032D00093E00E94A7156AE972E08BE893E00E94F0
:1032E000A7156CE173E087E993E00E94A7156AE7F0
:1032F00074E08DE993E00E94A7156FE972E081EA1E
:1033000093E00E94A71585EC92E09093D3058093FB
:10331000D205FF24F3948CE095E00E94400F18162C
:1033200019060CF08BC08CE095E00E941E0F182F40
:103330008091D60518133AC049EF55E064ED75E069
:1033400087ED95E00E94021C6C01892B51F1A09041
:10335000D105B12C0091CF051091D005812C912C75
:103360008A149B04B4F4380148E050E0B801C60167
:103370000E949421055F1F4F892B39F4D3011996C0
:10338000ED91FC911A9709950CC0BFEF8B1A9B0A1F
:10339000E7CFE091D205F091D305309711F0C60147
:1033A00009951092D7051092F805B5CF812F012EFF
:1033B000000C990B0E947D21892B09F4ACCFE09180
:1033C000F805E03208F0A7CF91E09E0F9093F80542
:1033D000F0E0E153FA4F1087E92FF0E0E153FA4FA4
:1033E000108699CF8BEF95E00E946F10D82E8983BD
:1033F0001A820091CD051091CE050F5F1F4FB801C5
:1034000089EC95E00E94FC15882399F02091C9056C
:103410003091CA058091CD059091CE05BE016F5FB8
:103420007F4F820F931F0E948D211093CE05009332
:10343000CD05EAE0DE1202C0F0920B058BEF95E0BD
:103440000E945710892B71F680910B05882309F48F
:103450009DC069EC75E08CE095E00E94B51769EAC3
:1034600075E0CE0101960E9490166AEA73E0CE01E3
:1034700001960E9423162091CD053091CE05232B75
:1034800089F00091C9051091CA05DC016D917C910C
:10349000C8010E94B121009729F0FC01E01BF10B4B
:1034A0008F0102C00FEF1FEFCE0101960E948B1615
:1034B0000F3F1F4F21F080E00E9499045DC061EB37
:1034C00073E0CE0101960E94AA16CE0101960E94D9
:1034D000E0158C01CE0101960E948B160F3F1F4F05
:1034E00099F16EE670E080E090E00E94C7110E94C2
:1034F000C5126AE070E080E090E00E94C71169EABE
:1035000075E0CE0101960E9490166FE871E0CE0141
:1035100001960E942316DC0114964D915C9115973B
:103520006D917C918BEF95E00E94D612CE010196B1
:103530000E948B1664E670E080E090E00E94C71164
:1035400080E00E94940418C06AEB73E0CE010196FB
:103550000E94AA16CE0101960E94E0158C01CE01B0
:1035600001960E948B160F3F1F4F31F06EE670E000
:1035700080E090E00E94C71140E050E06BEC73E007
:1035800089EC95E00E94601610920B050E94E00FF6
:10359000C2CE10920F0510920E0588EE93E0A0E0C7
:1035A000B0E08093100590931105A0931205B0939D
:1035B00013052AE331E030930D0520930C0525EC2B
:1035C00030E0309319052093180524EC30E0309357
:1035D0001B0520931A0520EC30E030931D05209345
:1035E0001C0521EC30E030931F0520931E0522ECD2
:1035F00030E0309321052093200526EC30E0309315
:10360000230520932205109225051092260510927D
:103610002705109228051092FE051092FD05809353
:10362000FF0590930006A0930106B09302068CE478
:1036300091E09093FC058093FB0510921206109286
:10364000110610921406109213061092160610928C
:1036500015061092180610921706609119066E7FD3
:103660006D7F609319066695617081E068278BE035
:103670000E94031161E08BE00E944F11E3EAF2E047
:10368000E491E0930B06EFE8F2E0E491F0E0EE0F56
:10369000FF1FE059FD4F8591949190930D06809303
:1036A0000C0660E08AE00E944F118091190681FDAE
:1036B00004C061E08AE00E9403118AE0809307065B
:1036C000E2EAF2E0E491E0930806EEE8F2E0E49149
:1036D000F0E0EE0FFF1FE658FD4F25913491309337
:1036E0000A06209309061092D0051092CF05109279
:1036F000D1051092D3051092D2058093D605109271
:10370000FA051092F90561E173E084ED95E00E94FD
:103710008D211092D7051092F8056BEC73E089ECBF
:1037200095E00E94AA161092BA051092B90510925F
:10373000B0051092AF051092C5051092C605109203
:10374000C7051092C80580E198E09093B605809374
:10375000B50586E090E09093BC058093BB0588E0BA
:1037600090E09093BE058093BD0587E090E0909334
:10377000C0058093BF0589E090E09093C2058093D7
:10378000C10561E086E00E944F1161E08091BD05B6
:103790000E944F1161E08091BF050E944F1161E0CE
:1037A0008091C1050E944F111092C4051092C3056B
:1037B00084E090E09093B8058093B70564EC73E0E3
:1037C00089EA95E00C94AA16FC0188279927E894C9
:1037D00021912032E9F3293010F02E30C8F32B323A
:1037E00041F02D3239F4689404C00E94291C820FE4
:1037F000911D219120532A30C0F31EF4909581959C
:103800009F4F0895FA01A191B081009719F4109784
:10381000E1F0CD01DC01CD010D90002011F4C001DB
:1038200013C0FB012191222319F02015D9F7F3CF02
:10383000FB012191201519F41E92119606C0222336
:10384000C1F70D900020A1F7D001FA01A193B08338
:1038500008957AE0979F902D879F802D910D1124D8
:1038600008950E94731C08F481E00895E89409C04B
:1038700097FB3EF490958095709561957F4F8F4FA3
:103880009F4F9923A9F0F92F96E9BB279395F695B9
:10389000879577956795B795F111F8CFFAF4BB0F37
:1038A00011F460FF1BC06F5F7F4F8F4F9F4F16C09B
:1038B000882311F096E911C0772321F09EE8872F25
:1038C000762F05C0662371F096E8862F70E060E0E1
:1038D0002AF09A95660F771F881FDAF7880F96955A
:1038E000879597F90895990F0008550FAA0BE0E8FE
:1038F000FEEF16161706E807F907C0F012161306B2
:10390000E407F50798F0621B730B840B950B39F4F1
:103910000A2661F0232B242B252B21F408950A2657
:1039200009F4A140A6958FEF811D811D08950E9485
:10393000AA1C0C941E1D0E94101D38F00E94171D19
:1039400020F0952311F00C94071D0C940D1D1124EB
:103950000C94521D0E942F1D70F3959FC1F3950F7B
:1039600050E0551F629FF001729FBB27F00DB11D03
:10397000639FAA27F00DB11DAA1F649F6627B00D93
:10398000A11D661F829F2227B00DA11D621F739F7C
:10399000B00DA11D621F839FA00D611D221F749F8A
:1039A0003327A00D611D231F849F600D211D822FD1
:1039B000762F6A2F11249F5750409AF0F1F08823F8
:1039C0004AF0EE0FFF1FBB1F661F771F881F915025
:1039D0005040A9F79E3F510580F00C94071D0C94B0
:1039E000521D5F3FE4F3983ED4F386957795679533
:1039F000B795F795E7959F5FC1F7FE2B880F911D4F
:103A00009695879597F9089599278827089597F9A6
:103A10009F6780E870E060E008959FEF80EC089574
:103A200000240A941616170618060906089500249D
:103A30000A9412161306140605060895092E039417
:103A4000000C11F4882352F0BB0F40F4BF2B11F48B
:103A500060FF04C06F5F7F4F8F4F9F4F089557FDEA
:103A60009058440F551F59F05F3F71F04795880FEC
:103A700097FB991F61F09F3F79F087950895121683
:103A800013061406551FF2CF4695F1DF08C016162F
:103A900017061806991FF1CF8695710561050894E0
:103AA0000895E894BB2766277727CB0197F90895F7
:103AB0002F923F924F925F926F927F928F929F923E
:103AC000AF92BF92CF92DF92EF92FF920F931F932C
:103AD000CF93DF93CDB7DEB7CA1BDB0B0FB6F894DD
:103AE000DEBF0FBECDBF09942A88398848885F841D
:103AF0006E847D848C849B84AA84B984C884DF808E
:103B0000EE80FD800C811B81AA81B981CE0FD11D71
:103B10000FB6F894DEBF0FBECDBFED01089550582B
:103B2000BB27AA270E94A71D0C941E1D0E94101DD2
:103B300038F00E94171D20F039F49F3F19F426F445
:103B40000C940D1D0EF4E095E7FB0C94071DE92F76
:103B50000E942F1D58F3BA17620773078407950751
:103B600020F079F4A6F50C94511D0EF4E0950B2E7F
:103B7000BA2FA02D0B01B90190010C01CA01A001BF
:103B80001124FF27591B99F0593F50F4503E68F11A
:103B90001A16F040A22F232F342F4427585FF3CF5B
:103BA000469537952795A795F0405395C9F77EF42C
:103BB0001F16BA0B620B730B840BBAF09150A1F075
:103BC000FF0FBB1F661F771F881FC2F70EC0BA0FFB
:103BD000621F731F841F48F4879577956795B79583
:103BE000F7959E3F08F0B0CF9395880F08F099277E
:103BF000EE0F9795879508950E94101E0C941E1D38
:103C00000E94171D58F00E94101D40F029F45F3FDC
:103C100029F00C94071D51110C94521D0C940D1D8C
:103C20000E942F1D68F39923B1F3552391F3951B3F
:103C3000550BBB27AA2762177307840738F09F5FCD
:103C40005F4F220F331F441FAA1FA9F335D00E2E3A
:103C50003AF0E0E832D091505040E695001CCAF7A7
:103C60002BD0FE2F29D0660F771F881FBB1F26176A
:103C700037074807AB07B0E809F0BB0B802DBF0141
:103C8000FF2793585F4F3AF09E3F510578F00C9410
:103C9000071D0C94521D5F3FE4F3983ED4F38695C4
:103CA00077956795B795F7959F5FC9F7880F911D31
:103CB0009695879597F90895E1E0660F771F881F1D
:103CC000BB1F621773078407BA0720F0621B730BD0
:103CD000840BBA0BEE1F88F7E09508950E94751EBD
:103CE0006894B1110C94521D08950E94371D88F0FC
:103CF0009F5798F0B92F9927B751B0F0E1F0660FB0
:103D0000771F881F991F1AF0BA95C9F714C0B130F0
:103D100091F00E94511DB1E008950C94511D672F40
:103D2000782F8827B85F39F0B93FCCF3869577951F
:103D30006795B395D9F73EF4909580957095619508
:103D40007F4F8F4F9F4F08950E94101D20F019F054
:103D50000E94171D50F40C940D1D0C94521DE92F58
:103D60000E942F1D88F35523B1F3E7FB62177307F9
:103D700084079507A8F189F3E92FFF2788232AF004
:103D80003197660F771F881FDAF7952F5527442341
:103D900032F091505040220F331F441FD2F7BB27FF
:103DA000E91BF50B621B730B840BB109B1F222F412
:103DB000620F731F841FB11D31972AF0660F771FA2
:103DC000881FBB1FEFCF9150504062F041F0882315
:103DD00032F0660F771F881F91505040C1F79395BE
:103DE0000C94F81E8695779567959F5FD9F7F7CF66
:103DF0009F3F31F0915020F4879577956795B7955F
:103E0000880F911D9695879597F908950E94731CC8
:103E100008F48FEF08950E94731C880B990B089586
:103E2000AA1BBB1B51E107C0AA1FBB1FA617B707E0
:103E300010F0A61BB70B881F991F5A95A9F78095FC
:103E40009095BC01CD01089597FB072E16F40094C0
:103E500007D077FD09D00E94101F07FC05D03EF463
:103E6000909581959F4F0895709561957F4F089526
:103E7000A1E21A2EAA1BBB1BFD010DC0AA1FBB1F6E
:103E8000EE1FFF1FA217B307E407F50720F0A21BE0
:103E9000B30BE40BF50B661F771F881F991F1A944D
:103EA00069F760957095809590959B01AC01BD0177
:103EB000CF010895052E97FB1EF400940E94711FF8
:103EC00057FD07D00E94381F07FC03D04EF40C9416
:103ED000711F50954095309521953F4F4F4F5F4F43
:103EE000089590958095709561957F4F8F4F9F4F66
:103EF0000895EE0FFF1F0590F491E02D0994CF93E4
:103F0000DF938230910510F482E090E0E0911C068E
:103F1000F0911D0620E030E0C0E0D0E0309711F1D4
:103F20004081518148175907C0F04817590761F47B
:103F300082819381209719F09B838A832BC0909371
:103F40001D0680931C0626C02115310519F0421765
:103F5000530718F49A01BE01DF01EF010280F381DB
:103F6000E02DDCCF2115310509F1281B390B243058
:103F7000310590F412968D919C91139761157105FE
:103F800021F0FB019383828304C090931D068093EC
:103F90001C06FD01329644C0FD01E20FF31F819320
:103FA0009193225031092D933C933AC020911A06E7
:103FB00030911B06232B41F420910A0130910B0113
:103FC00030931B0620931A062091080130910901B5
:103FD0002115310541F42DB73EB740910C015091A8
:103FE0000D01241B350BE0911A06F0911B06E21718
:103FF000F307A0F42E1B3F0B2817390778F0AC010C
:104000004E5F5F4F2417350748F04E0F5F1F5093E8
:104010001B0640931A068193919302C0E0E0F0E002
:10402000CF01DF91CF9108950F931F93CF93DF932B
:10403000009709F48CC0FC01329713821282009120
:104040001C0610911D060115110581F42081318196
:10405000820F931F20911A0630911B0628173907EB
:1040600079F5F0931B06E0931A0671C0D80140E081
:1040700050E0AE17BF0750F412962D913C91139764
:10408000AD012115310509F1D901F3CF9D01DA0107
:104090003383228360817181860F971F8217930774
:1040A00069F4EC0128813981260F371F2E5F3F4FBD
:1040B000318320838A819B8193838283452B29F4DA
:1040C000F0931D06E0931C0642C01396FC93EE93FA
:1040D0001297ED01499159919E01240F351FE21766
:1040E000F30771F480819181840F951F02961196D8
:1040F0009C938E938281938113969C938E931297B7
:10410000E0E0F0E0D80112968D919C911397009712
:1041100019F0F8018C01F6CF8D919C9198012E5FDA
:104120003F4F820F931F20911A0630911B062817CC
:10413000390769F4309729F410921D0610921C0675
:1041400002C01382128210931B0600931A06DF919D
:10415000CF911F910F910895A0E0B0E0E2EBF0E263
:104160000C945C1DEC01009721F4CB010E947F1F91
:10417000B8C0FC01E60FF71F9C0122503109E2177D
:10418000F30708F4ACC0D9010D911C9111970617E3
:104190001707B0F00530110508F49FC0C801049757
:1041A0008617970708F499C002501109061B170BD0
:1041B000019311936D937C93CF010E9414208DC0C5
:1041C0005B01A01AB10A4C01800E911EA0911C0641
:1041D000B0911D0640E050E0E12CF12C109709F45D
:1041E0004AC0A815B905D1F56D907C90119763016F
:1041F00082E0C80ED11CCA14DB0480F1A3014A1965
:104200005B096A0182E0C80ED11C1296BC9012971D
:104210001396AC91B5E0CB16D10440F0B282A383E3
:1042200051834083D9016D937C930AC00E5F1F4F69
:10423000C301800F911FF90191838083EB2DFA2F29
:10424000E114F10431F0D7011396FC93EE93129729
:1042500044C0F0931D06E0931C063FC08D919C91D5
:1042600011974817590708F4AC017D0112960D907B
:10427000BC91A02DB3CF80911A0690911B06881592
:104280009905E1F446175707C8F480910801909109
:104290000901009741F48DB79EB740910C015091F0
:1042A0000D01841B950BE817F907C8F4F0931B0662
:1042B000E0931A06F901718360830FC0CB010E945D
:1042C0007F1F7C01009759F0A801BE010E94842144
:1042D000CE010E941420C70104C0CE0102C080E0BC
:1042E00090E0CDB7DEB7EEE00C94781D81E090E071
:1042F000F8940C946C24803209F091110C94041DF4
:1043000080528F55D8F70895FB01DC0102C001905F
:104310000D9241505040D8F70895FB01DC01019007
:104320000D920020E1F70895FB01DC01415050405F
:1043300030F08D910190801919F40020B9F7881B95
:10434000990B0895FB01DC014150504048F0019069
:104350000D920020C9F701C01D9241505040E0F776
:104360000895FB0151915523A9F0BF01DC014D9146
:1043700045174111E1F759F4CD010190002049F0B2
:104380004D9140154111C9F3FB014111EFCF81E07F
:1043900090E001970895AEE0B0E0E1EDF1E20C9419
:1043A000661D0D891E8986E08C831A8309838FEF31
:1043B0009FE79E838D83AE01475E5F4F6F89788D47
:1043C000CE0101960E94EE212F813885F801E20F7F
:1043D000F31F10822E96E4E00C94821DACE0B0E056
:1043E000E4EFF1E20C94581D7C016B018A01FC01A1
:1043F00017821682838181FFBDC1CE0101964C01D7
:10440000F7019381F60193FD859193FF81916F01EF
:10441000882309F4ABC1853239F493FD859193FF6C
:1044200081916F01853229F4B70190E00E94D62373
:10443000E7CF512C312C20E02032A0F48B3269F0F0
:1044400030F4803259F0833269F420612CC08D320F
:1044500039F0803339F4216026C02260246023C003
:10446000286021C027FD27C030ED380F3A3078F49E
:1044700026FF06C0FAE05F9E300D1124532E13C0B4
:104480008AE0389E300D1124332E20620CC08E320B
:1044900021F426FD6BC1206406C08C3611F420681F
:1044A00002C0883641F4F60193FD859193FF819116
:1044B0006F018111C1CF982F9F7D9554933028F4BF
:1044C0000C5F1F4FFFE3F9830DC0833631F0833754
:1044D00071F0833509F05BC022C0F80180818983C7
:1044E0000E5F1F4F44244394512C540115C03801D2
:1044F000F2E06F0E711CF801A080B18026FF03C0AE
:10450000652D70E002C06FEF7FEFC5012C870E9420
:10451000CB232C0183012C852F77222E17C0380145
:10452000F2E06F0E711CF801A080B18026FF03C07D
:10453000652D70E002C06FEF7FEFC5012C870E94F0
:10454000C0232C012C852068222E830123FC1BC054
:10455000832D90E048165906B0F4B70180E290E050
:104560000E94D6233A94F4CFF50127FC859127FECB
:1045700081915F01B70190E00E94D62331103A94F7
:10458000F1E04F1A51084114510471F7E5C0843627
:1045900011F0893639F5F80127FF07C06081718174
:1045A000828193810C5F1F4F08C060817181072E4B
:1045B000000C880B990B0E5F1F4F2F76722E97FF02
:1045C00009C090958095709561957F4F8F4F9F4F53
:1045D0002068722E2AE030E0A4010E940E24A82E4A
:1045E000A81844C0853729F42F7EB22E2AE030E087
:1045F00025C0F22FF97FBF2E8F36C1F018F4883511
:1046000079F0B4C0803719F0883721F0AFC02F2F70
:104610002061B22EB4FE0DC08B2D8460B82E09C06F
:1046200024FF0AC09F2F9660B92E06C028E030E014
:1046300005C020E130E002C020E132E0F801B7FE21
:1046400007C060817181828193810C5F1F4F06C01A
:104650006081718180E090E00E5F1F4FA4010E9495
:104660000E24A82EA818FB2DFF777F2E76FE0BC0F8
:10467000372D3E7FA51450F474FE0AC072FC08C0AA
:10468000372D3E7E05C0BA2C372D03C0BA2C01C091
:10469000B52C34FF0DC0FE01EA0DF11D8081803381
:1046A00011F4397E09C032FF06C0B394B39404C03C
:1046B000832F867809F0B39433FD13C030FF06C012
:1046C0005A2CB31418F4530C5B18B32CB31468F4BD
:1046D000B70180E290E03C870E94D623B3943C85EA
:1046E000F5CFB31410F43B1801C0312C34FF12C0C5
:1046F000B70180E390E03C870E94D6233C8532FFDF
:1047000017C031FD03C088E790E002C088E590E063
:10471000B7010CC0832F867859F031FF02C08BE2BD
:1047200001C080E237FD8DE2B70190E00E94D62300
:10473000A51438F4B70180E390E00E94D6235A9480
:10474000F7CFAA94F401EA0DF11D8081B70190E042
:104750000E94D623A110F5CF332009F451CEB70122
:1047600080E290E00E94D6233A94F6CFF70186814A
:10477000978102C08FEF9FEF2C96E2E10C94741D9D
:10478000FC010590615070400110D8F7809590951C
:104790008E0F9F1F0895FC01615070400190011021
:1047A000D8F7809590958E0F9F1F08950F931F93B4
:1047B000CF93DF93FB01238121FD03C08FEF9FEF98
:1047C00028C022FF16C046815781248135814217B7
:1047D000530744F4A081B1819D012F5F3F4F318386
:1047E00020838C93268137812F5F3F4F3783268329
:1047F00010C0EB01092F182F0084F185E02D0995D9
:10480000892BE1F68E819F8101969F838E83812F74
:10481000902FDF91CF911F910F910895FA01AA2750
:10482000283051F1203181F1E8946F936E7F6E5FF3
:104830007F4F8F4F9F4FAF4FB1E03ED0B4E03CD0A1
:10484000670F781F891F9A1FA11D680F791F8A1F84
:10485000911DA11D6A0F711D811D911DA11D20D0EB
:1048600009F468943F912AE0269F11243019305DA5
:104870003193DEF6CF010895462F4770405D419396
:10488000B3E00FD0C9F7F6CF462F4F70405D4A33E3
:1048900018F0495D31FD4052419302D0A9F7EACFAB
:1048A000B4E0A6959795879577956795BA95C9F7DA
:1048B00000976105710508959B01AC010A2E0694CD
:1048C0005795479537952795BA95C9F7620F731F86
:1048D000841F951FA01D089511E0C7E5D1E004C015
:1048E000FE010E94791F2196C835D107C9F7F894B7
:0248F000FFCFF8
:1048F200FF03FF03FF03FF0300001E0680003200D8
:104902003200320032000100010001000100FEFE0F
:10491200FAFCF6FAF2F8000080BF0000C0BF000007
:1049220000006666A63F00000000770FD6120F0F48
:10493200BE0F400F1E0F320F000000000310D612F0
:104942009110021057106F10EA0F4552524F522029
:104952005349474E414C204944202564004D41585B
:104962003A202564202564202564202564004D49D1
:104972004E3A202564202564202564202564003ACF
:10498200436F6D4163636570746564004552524FB5
:10499200522052414E474520532564005041524116
:1049A2004D53205325643D204D3A256420553A2528
:1049B20064204C3A2564004120256420256420258A
:1049C2006420256420442025642025642025642059
:1049D20025640053454E2025642046313A25642043
:1049E20046323A25642052313A25642052323A2521
:1049F20064004D494E4C4F432564202564005325E5
:104A020064205057313D2564205043313D256420B8
:104A12005057323D2564205043323D2564005325D2
:104A220064205057313D2564205043313D256400B8
:104A3200532564205030206162736F6C7574652059
:104A4200726567696F6E0053256420503120616280
:104A5200736F6C75746520726567696F6E0053259C
:104A6200642050302070756C7365207769647468B7
:104A7200206D6574686F6400532564205031207086
:104A8200756C7365207769647468206D6574686FEE
:104A9200640053256420503020666F726365642081
:104AA20070756C736520776964746800532564209F
:104AB200503120666F726365642070756C73652077
:104AC200776964746800532564206F6E6520706591
:104AD200616B206F666673657400532564206F6E88
:104AE20065207065616B204F524900532564204E4A
:104AF2004545444C453A20256400414E474C4525E6
:104B02006420005325642053554D2564003A6461A6
:104B120074613D003A457272353030003A45727226
:104B2200313030003A457272323030003A4572729A
:104B3200333030003A4572723430300053256420ED
:104B420050302073656E7369626C652072656769A7
:104B52006F6E005325642050312073656E73696255
:104B62006C6520726567696F6E003A52656164799F
:104B72000053544550005245414400524541445F60
:104B8200484F4D494E47004C4541524E004C45441A
:104B920000524541445F524157003A646174613F9B
:104BA200003C4745544944213E003C474554564148
:104BB20052213E0074656D70000D0A006E616E0038
:084BC200696E66006F76660063
:00000001FF
