:100000000C9430010C9458010C9458010C94780312
:100010000C9478030C9478030C9458010C945801B8
:100020000C9458010C9458010C9458010C945801EC
:100030000C9458010C9458010C9458010C945801DC
:100040000C942E030C9458010C9430120C940A1248
:100050000C9458010C9458010C9458010C945801BC
:100060000C9458010C9458016A1371137D138E136C
:1000700090139713A313B413CA13CC134E6F2061BC
:100080007267756D656E74730057726F6E6720438B
:100090006F6D6D616E64004C4541524E20454E447B
:1000A000004C4541524E2053544152540050524549
:1000B000205343414E4E494E47204F4B00537461ED
:1000C00072742072656164206469616C0020004E66
:1000D0006F6E2D6C696E656172206D6170200046D7
:1000E0004620416C676F726974686D20456E6400CC
:1000F000464620416C676F726974686D2053746165
:100100007274005265616C20756E69742043616C75
:1001100063004F75746C6965727320446574656320
:1001200074696F6E004F6E65205065616B2041648D
:100130006A7573746572004F555450555420414E82
:10014000474C453A20004F555450555420554E4980
:10015000543A2000484F4D494E4720535441525481
:10016000004C4544204F4646004E6F2076616C6936
:10017000642073656E736F72206166746572206CA3
:100180006561726E696E67004E6F2076616C69649E
:100190002073656E736F722061667465722072657C
:1001A0006164696E67004F75746C69657273204491
:1001B0006574656374696F6E204661696C00576889
:1001C00061743F004C4544204F4E00000000002465
:1001D0000027002A000000000800020100000304BC
:1001E00007000000000000000046572056657273AB
:1001F000696F6E20312E372E3000535441525420F7
:100200004449414C205245414445522056312E30FC
:10021000004D4F56494E47205354455050455200CB
:1002200000000000250028002B0000000000230033
:100230002600290004040404040404040202020247
:100240000202030303030303010204081020408099
:10025000010204081020010204081020EB18F31515
:1002600011241FBECFEFD8E0DEBFCDBF25E0AEE149
:10027000B3E001C01D92A436B207E1F713E0A0E09D
:10028000B1E0EAEEF4E402C005900D92AE31B107A0
:10029000D9F711E0CFE2D1E004C02197FE010E941E
:1002A000751DCE32D107C9F70E9417160C9468222B
:1002B0000C9400008E3008F08E508770806480931C
:1002C0007C0080917A00806480937A0080917A002B
:1002D00086FDFCCF809178002091790090E0922BF0
:1002E000089520914F04309150042817390771F474
:1002F00090914D0480914E04981741F0E0914D0487
:10030000F0E0EC5FFB4F808190E008958FEF9FEF6E
:10031000089508951F93CF93DF93DC015C962D9190
:100320003C915D972115310539F481E090E01396F9
:100330009C938E9312973DC05196ED91FC915297EC
:1003400050969C915097892F80951FB75E964C913F
:100350005E9741FB772770F941FD6095F8944081E5
:10036000772311F0492B01C048234083E9012197ED
:10037000F1F748E0508160FF02C0592B01C05823BB
:100380005083E9012197F1F76695415099F777235A
:1003900021F090818923808303C08081982B9083F2
:1003A0001FBF5C968D919C915D970197F1F721E0BD
:1003B00030E0C901DF91CF911F91089520914F0442
:1003C000309150042817390771F480914E04209120
:1003D0004D0490E0805C9F4F821B910960E470E0C7
:1003E0000E94201D089580E090E0089520914F0420
:1003F0003091500428173907B9F490914D04809139
:100400004E04981789F0E0914D04F0E0EC5FFB4F4B
:10041000808120914D0430E02F5F3F4F2F733327B1
:1004200020934D0490E008958FEF9FEF0895089575
:1004300080E090E0089560E086E00E94621260E053
:1004400087E00E94621260E088E00E94621260E031
:1004500089E00C94621261E085E00E94621284ECF3
:1004600091E00C940B148EEB91E00C940B14CF9252
:10047000DF92EF92FF92CF93DF93EB01BC01990FD4
:10048000880B990B0E94341A20E030E041E055E4DB
:100490000E94F81B20E030E044EB53E40E94931AE2
:1004A0009B01AC0160E070E084EB93E40E948B1B45
:1004B000CC0FDD1FCC0FDD1FCA5DDE4F28813981D7
:1004C0004A815B810E948C1B20E030E048E353E4CA
:1004D0000E948B1B20E030E044EB53E40E94AB1CF5
:1004E0006B017C0120E030E0A9010E942D1A87FFFA
:1004F0000AC020E030E044EB53E4C701B6010E949B
:100500008C1B6B017C01C701B601DF91CF91FF907D
:10051000EF90DF90CF900895AF92BF92CF92DF928D
:10052000EF92FF920F931F93CF93DF938EEFE82EFE
:1005300083E0F82EC0E0D0E000E010E09AE5C92E9C
:1005400091E0D92E22EBA22E23E0B22EF701819169
:100550007F018823A1F0DF93CF93DF92CF92BF92E8
:10056000AF920E94C71F82EB93E00E941B140F5FA3
:100570001F4F0F900F900F900F900F900F9021969C
:10058000C430D10519F7C801DF91CF911F910F91A8
:10059000FF90EF90DF90CF90BF90AF9008953FB75E
:1005A000F8948091490490914A04A0914B04B09131
:1005B0004C0426B5A89B05C02F3F19F00196A11D3C
:1005C000B11D3FBFBA2FA92F982F8827820F911DE9
:1005D000A11DB11DBC01CD0142E0660F771F881F30
:1005E000991F4A95D1F708958F929F92AF92BF922B
:1005F000CF92DF92EF92FF926B017C010E94CF02BB
:100600004B015C01C114D104E104F104F1F00E943A
:10061000CF02DC01CB0188199909AA09BB09883EE0
:100620009340A105B10570F321E0C21AD108E10899
:10063000F10888EE880E83E0981EA11CB11CC1143D
:10064000D104E104F10419F7DDCFFF90EF90DF90C2
:10065000CF90BF90AF909F908F9008951F920F9270
:100660000FB60F9211242F933F938F939F93AF93C5
:10067000BF938091450490914604A0914704B091A6
:1006800048043091440423E0230F2D3720F40196D1
:10069000A11DB11D05C026E8230F0296A11DB11DA5
:1006A000209344048093450490934604A093470408
:1006B000B09348048091490490914A04A0914B045E
:1006C000B0914C040196A11DB11D809349049093F3
:1006D0004A04A0934B04B0934C04BF91AF919F91F7
:1006E0008F913F912F910F900FBE0F901F901895F3
:1006F0001F920F920FB60F9211242F933F934F9397
:100700005F936F937F938F939F93AF93BF93EF9379
:10071000FF93E0914F04F0915004309709F451C0D9
:10072000968DA685B785858591FF04C09C91892308
:1007300029F447C09C91892309F043C0A389B48957
:100740009C918589809589238C93868997890197C7
:10075000F1F7608D718DA685B785558538E020E06D
:10076000CB010197F1F7822F90E095958795282F7F
:100770004C91452309F02068315091F7868D81FD19
:10078000209580914E0490E001968F7399273091C7
:100790004D04381749F0A0914E04B0E0AC5FBB4F58
:1007A0002C9380934E0403C0868D8160868F828D4A
:1007B000938D0197F1F7A389B4899C918589892B41
:1007C0008C93FF91EF91BF91AF919F918F917F910A
:1007D0006F915F914F913F912F910F900FBE0F90AE
:1007E0001F9018955C9A089581110C94F2035C98FF
:1007F00008952F923F924F925F926F927F928F92C5
:100800009F92AF92BF92CF92DF92EF92FF920F939F
:100810001F93CF93DF93CDB7DEB7C856D1090FB67C
:10082000F894DEBF0FBECDBF66968FAF66970E946D
:100830002B026EE670E080E090E00E94F4020E94DD
:10084000F20364E170E080E090E00E94F4026FEE59
:1008500074E0CE0101960E94D9156DE671E0CE01DB
:1008600001960E946C15BC0181E495E00E94EB1199
:10087000CE0101960E94D41564E670E080E090E01D
:100880000E94F40280E00E94F4030E942B0288EE92
:1008900093E0909303048093020484E690E00E9426
:1008A000D21484E591E00E940B1400E911E081E08C
:1008B00090E00E942E1466E070E080E090E00E94DC
:1008C000F4020150110999F784E893E0909303042E
:1008D000809302042EE133E063963FAF2EAF63971F
:1008E00060E071E02B967FAF6EAF2B978EEF93E0B9
:1008F000A3969FAF8EAFA397AAEDB3E06B96BFAF61
:10090000AEAF6B978D019B01EEE1F3E04FEF53E04B
:1009100011921192D9014D935D939D01DC011D92BD
:10092000CD01D8011D928D01B3E0E632FB0781F7BE
:1009300081EA90E00E940B14E0EDF7E06596FFAFCE
:10094000EEAF65978FEF9FEF0E942E140EE113E03C
:1009500030E0E32E31E0F32ED12C8D2D0E945A0190
:10096000D7012D913C9111978217930710F48D9325
:100970009C93F801208131812817390710F4918365
:100980008083D394F2E0EF0EF11C0E5F1F4F24E042
:10099000D212E3CF65E070E080E090E00E94F402C4
:1009A00065966EAD7FAD65976150710965967FAFB5
:1009B0006EAF6597672B31F687E990E00E940B14C4
:1009C000809125038F93809124038F93809123033B
:1009D0008F93809122038F93809121038F93809135
:1009E00020038F9380911F038F9380911E038F9319
:1009F0008AE791E09F938F9302EB13E01F930F938D
:100A00000E94C71FC8010E941B14809107018F9389
:100A1000809106018F93809105018F93809104014D
:100A20008F93809103018F93809102018F93809126
:100A300001018F93809100018F938BE891E09F9348
:100A40008F931F930F930E94C71FC8010E941B140E
:100A50001EE0A12E11E0B12E0FB6F894DEBF0FBE3E
:100A6000CDBF00E0402E01E0502E8EE1C82E83E085
:100A7000D82EE12CF12C00E010E0332433949CE9D3
:100A8000892E91E0992E22EB622E23E0722ED60160
:100A90008D919D916D01F201419151912F01D501EF
:100AA0002D913D915D01841B950B82179307C8F42E
:100AB000F801E250FC4F3082BFEFEB1AFB0A1F93A4
:100AC0000F939F928F927F926F920E94C71F82EB2B
:100AD00093E00E941B140F900F900F900F900F90B7
:100AE0000F900F5F1F4F0430110589F6E4E0EE16FA
:100AF000F10409F496C126E333E02D963FAF2EAF03
:100B00002D976EE273E02F967FAF6EAF2F97A6E220
:100B1000CA2EA3E0DA2E590100E010E0BCEA2B2E29
:100B2000B1E03B2E2B96AEADBFAD2B978D909D9037
:100B30002B96BFAFAEAF2B976396EEADFFAD63972D
:100B4000E190F1906396FFAFEEAF6397B40180E060
:100B500090E00E94321A2B013C01B7016819790913
:100B600080E090E00E94321A2DEC3CEC4CE45FE314
:100B70000E94931A9B01AC01C301B2010E948C1B1D
:100B80000E946A1CD5016D937D935D01AB01465FA8
:100B90005F4FF601419351936F019B012A50310938
:100BA0002F96AEADBFAD2F972D933D932F96BFAF30
:100BB000AEAF2F973F932F935F934F937F936F9396
:100BC0001F930F933F922F92A2EBB3E0BF93AF938B
:100BD0000E94C71F82EB93E00E941B140F5F1F4F00
:100BE0000FB6F894DEBF0FBECDBF0430110509F07B
:100BF00099CF8DEB90E00E940B1488E0FE01F196F6
:100C0000DF01282F1D922A95E9F73897DF011D9201
:100C10008A95E9F77C965F0100E010E0E5E09E2E02
:100C2000FAE07F2E66246394802EE12CF12C909EB6
:100C30006001919ED00C1124882D0E945A01F6016A
:100C4000EE0DFF1DEE0FFF1F21E030E02C0F3D1FCA
:100C5000E20FF31F918380833FEFE31AF30A65E00D
:100C6000E616F10449F7709EF001719EF00D112413
:100C700081E090E08C0F9D1FE80FF91F20853185E2
:100C80002D96AEADBFAD2D978D919D912D96BFAF99
:100C9000AEAF2D972817390718F4F501108202C05E
:100CA000D5016C920F5F1F4FBFEFAB1ABB0A043028
:100CB000110509F0B9CF8DEA90E00E940B14C12C08
:100CC000D12C81E090E00E942E14C601049665E0CC
:100CD00070E00E94201D2D969FAF8EAF2D97FE01D4
:100CE000EF5BFF4F7F019E012F5C3F4F2F963FAF81
:100CF0002EAF2F97BE01675D7F4F3B0146E2242E4A
:100D000043E0342E4EE253E06EEFA62E63E0B62EA3
:100D1000430129012C5E3F4F2B963FAF2EAF2B97FF
:100D200000E010E075E061E0802FA6964FAFA69737
:100D3000A7965FAFA797A9966FAFA997A8967FAF21
:100D4000A8970E945A01A8967FADA897709FF001BE
:100D5000719FF00D11242D962EAD3FAD2D97E20F12
:100D6000F31FEE0FFF1FA1E0B0E0AC0FBD1FEA0FB5
:100D7000FB1F918380832AE0209FD001219FB00D2B
:100D8000112481E090E08C0F9D1FA80FB91F8D9159
:100D90009C91119712968D919C91139714968D9119
:100DA0009C91159716968D919C91179718968D91F9
:100DB0009C91199780819181F801EE0FFF1FA1E0AE
:100DC000B0E0AC0FBD1FEA0FFB1F91AF80AF2B96B9
:100DD000AEADBFAD2B978C91A6964FADA697A796BB
:100DE0005FADA797A9966FADA99720AD31AD8823C8
:100DF00061F0FA01808191818217930718F0D70181
:100E00001C928BC0F701608388C0D1018D919C91A9
:100E10002817390718F0F70160835DC0D7011C92CD
:100E20005AC089E691E00E940B146EE670E080E003
:100E300090E00E94F4020E94F20364E170E080E01E
:100E400090E00E94F4026FEE74E0CE0101960E94E1
:100E5000D9156AED72E0CE0101960E946C15BC01B5
:100E600081E495E00E94EB11CE0101960E94D41519
:100E700064E670E080E090E00E94F40280E00E946E
:100E8000F4038CEC97EF0E94D2140E941B020E9484
:100E90001B0260E085E00E94621281E691E00E9400
:100EA0000B14C859DF4F0FB6F894DEBF0FBECDBF8D
:100EB000DF91CF911F910F91FF90EF90DF90CF9036
:100EC000BF90AF909F908F907F906F905F904F906A
:100ED0003F902F900895F7018081882339F1F50123
:100EE0008081811123C0D2018D919C918230910526
:100EF00014F060830DC0F801EE0FFF1FEE0FFF1F0F
:100F0000E80FF91FEE0FFF1FE659FC4FD182C08298
:100F10000196F2019183808309C0D7018C918111E0
:100F200005C0D5018C91882309F4A7C7F7018191E9
:100F30007F012B96AEADBFAD2B978D932B96BFAF98
:100F4000AEAF2B970F5F1F4FB2E04B0E511CE2E08C
:100F50008E0E911CFFEFAF1ABF0A4E5F5F4F22E06B
:100F6000220E311C0430110509F0DECE66963FAD2D
:100F700066973323C9F121966EAD7FAD21974DADB4
:100F80005EAD2BAD3CAD89AD9AAD2596EFAD259705
:100F90001F92EF932496EFAD24971F92EF93239621
:100FA000EFAD23971F92EF932296EFAD22971F92FA
:100FB000EF937F936F935F934F933F932F939F9301
:100FC0008F93A7ECB1E0BF93AF9382EB93E09F9335
:100FD0008F930E94C71F82EB93E00E941B140FB6F1
:100FE000F894DEBF0FBECDBF67E070E080E090E018
:100FF0000E94F4023FEFC31AD30A60EDC61667E001
:10100000D60609F05ECE8EEF93E08E010F5C1F4F87
:10101000DE01999671E0A2966FADA2976C5F4D913B
:101020005D91F801219131918F014217530711F021
:10103000FC01708301966813F2CF2AE633E06396D1
:101040003FAF2EAF63976AE873E02D967FAF6EAF28
:101050002D977B01490100E010E055245394A3EE45
:10106000AA2EA1E0BA2EB2EBCB2EB3E0DB2E2F9648
:10107000AEADBFAD2F978D919D912F96BFAFAEAF07
:101080002F97019729F0F30180819181019721F435
:10109000F801E652FC4F5082D40113968C911397BD
:1010A0008F9312968C9112978F9311968C91119722
:1010B0008F938C918F93F70183818F9382818F938C
:1010C00081818F9380818F931F930F93BF92AF92F3
:1010D000DF92CF920E94C71F82EB93E00E941B1405
:1010E0000F5F1F4FF8E08F0E911C28E0E20EF11CFD
:1010F00032E0630E711C0FB6F894DEBF0FBECDBF99
:101100000430110509F0B3CF0E948C02049709F452
:1011100083C683E091E00E940B1480E090E0A4E39A
:10112000B3E48093AE039093AF03A093B003B09366
:10113000B1038093AA039093AB03A093AC03B09345
:10114000AD0382E493E02F969FAF8EAF2F97EAE432
:101150002E2EE3E03E2EAEE1B1E06996BFAFAEAF1A
:101160006997EAE5F3E02B96FFAFEEAF2B9726E108
:1011700031E0A1963FAF2EAFA1976D961FAE1EAE88
:101180006D976EEF73E0A5967FAF6EAFA5976796EC
:101190001FAE1EAE6797F2EB8F2EF3E09F2E669682
:1011A0001FAD669767960FAD6797A596AEADBFADBD
:1011B000A5978D91A596BFAFAEAFA5978111D5C369
:1011C0006B96EEADFFAD6B97808181111AC12D96A4
:1011D000AEADBFAD2D978D919C91119712966D91EB
:1011E0007C9113976396EEADFFAD639720813181BB
:1011F00042815381681779072CF4CB01EE24E394E4
:10120000F12C02C0E12CF12C281739070CF4A4C0F2
:10121000481759071CF463E0E62EF12CFF92EF9279
:101220000F931F93A2E0B2E0BF93AF939F928F9270
:101230000E94C71F82EB93E00E941B14C701029714
:101240000FB6F894DEBF0FBECDBF029708F49EC064
:101250006396AEADBFAD639712966D917C91139777
:101260002D96EEADFFAD2D9740815181405F574FD8
:10127000461B570B2B96AEADBFAD2B974D935C9392
:101280006396AEADBFAD6397ED91FC912D96AEAD7B
:10129000BFAD2D9712962D913C9113972E1B3F0BAE
:1012A0002B96AEADBFAD2B9713963C932E93129712
:1012B000CA0196958795860F971F60E178E00E9496
:1012C0000C1DD10111969C938E9336952795E20FB4
:1012D000F31F1396FC93EE9312976996EEADFFAD54
:1012E000699720813181D1018D919C91821B930B53
:1012F00060E178E00E940C1DF1019183808382817E
:101300009381821B930B60E178E00E940C1D828325
:1013100093839F938F932B96AEADBFAD2B97139670
:101320008C9113978F9312968C9112978F93818142
:101330008F9380818F9311968C9111978F938C91BD
:101340008F930F931F93AEE0B2E0BF93AF939F9242
:101350008F920E94C71FC6C0421753070CF45BCF81
:101360001F9282E08F930F931F93A2E0B2E0BF938E
:10137000AF939F928F920E94C71F82EB93E00E94CF
:101380001B140FB6F894DEBF0FBECDBF6396AEAD93
:10139000BFAD63976D917C912D96EEADFFAD2D970E
:1013A00020813181261B370B2B96AEADBFAD2B971D
:1013B0002D933C936396EEADFFAD639742815381CD
:1013C0002D96AEADBFAD2D9712968D919C91139732
:1013D000841B950B2B96EEADFFAD2B9793838283E9
:1013E00036952795260F371FD10111963C932E93E2
:1013F00096958795840F951F13969C938E931297BD
:101400006CCF2D96EEADFFAD2D9720813181639687
:10141000AEADBFAD63976D917C9126173707C0F4D1
:10142000A901405F574F461B570B2B96EEADFFAD02
:101430002B9751834083CA0196958795860F971FF6
:1014400060E178E00E940C1DD1018D939C930FC048
:10145000261B370B2B96EEADFFAD2B9731832083E8
:1014600036952795260F371FD1012D933C93A196D2
:10147000EEADFFADA19780819181019761F4D1011B
:101480008D919C91885F9B4F60E178E00E940C1DDC
:10149000F10191838083D1018D919C916996EEAD8C
:1014A000FFAD699720813181821B930B60E178E069
:1014B0000E940C1DD1018C9311969C939F938F9346
:1014C0002B96EEADFFAD2B9781818F9380818F930B
:1014D0000F931F93AEE2B2E0BF93AF939F928F92B0
:1014E0000E94C71F82EB93E00E941B140FB6F89472
:1014F000DEBF0FBECDBF80EF90E00E940B146B9655
:10150000AEADBFAD6B978C91811128C02B96EEAD1F
:10151000FFAD2B972081318182819381D1012817E2
:10152000390768F48D919C912F96EEADFFAD2F9702
:10153000918380830F931F93A0E4B2E076C012964C
:101540008D919C9113972F96EEADFFAD2F979183C0
:1015500080830F931F93AEE5B2E067C0D101ED9099
:10156000FC90C701885F9B4F60E178E00E940C1DF2
:101570006F969FAF8EAF6F97612F702F0E943702CB
:101580005B016C016091AA037091AB038091AC0385
:101590009091AD032B013C0177FA709477F8709429
:1015A00020E030E0A9010E94931A9B01AC01C30125
:1015B000B2010E948B1B20E030E0A9010E948C1B2D
:1015C00020E030E0A9010E948C1B20E030E0A9015E
:1015D0000E94F81B2B013C019B01AC01C601B50127
:1015E0000E94021D87FD17C0A3019201C601B5012B
:1015F0000E942D1A18167CF06F962EAD3FAD6F9796
:101600002F96EEADFFAD2F97318320830F931F935D
:10161000ACE7B2E00AC02F96AEADBFAD2F97ED920A
:10162000FC920F931F93A0E9B2E0BF93AF939F92F8
:101630008F920E94C71F82EB93E00E941B140F90B1
:101640000F900F900F900F900F908FED90E00E94F1
:101650000B142F96AEADBFAD2F9711968C911197AD
:101660008F938C918F930F931F93A1EAB2E0BF9356
:10167000AF939F928F920E94C71F82EB93E00E94CC
:101680001B14612F702F2F96AEADBFAD2F978D918C
:101690009C910E94370260933E0370933F038093B6
:1016A0004003909341030F931F93A0EBB2E0BF93CD
:1016B000AF939F928F920E94C71F62EB73E082E507
:1016C00094E00E94971040913E0350913F03609137
:1016D00040037091410323E082E594E00E94F510FD
:1016E00080EF92E00E941B14A0903E03B0903F0355
:1016F000C0904003D0904103C501D6016D96EEAD78
:10170000FFAD6D97E251FC4F80839183A283B38339
:101710000FB6F894DEBF0FBECDBF20E030E044E34B
:1017200053E4B501C6010E94021D181624F520E0FD
:1017300030E044EB53E4B501C6010E942D1A87FF47
:101740001AC020E030E044EB53E4B501C6010E942A
:101750008B1B0E946A1C9B0177FF04C02227332742
:10176000261B370BB901330F880B990B0E94341AD3
:101770007B018C0102C07501860121E137E244E55D
:101780005CEAB701C8010E94931A9701A8010E9460
:10179000931A9701A8010E94931A9701A8010E9429
:1017A000931A9701A8010E94931A9701A8010E9419
:1017B000931A2B013C0128EF30EA42E050E3B701D5
:1017C000C8010E94931A9701A8010E94931A9701D9
:1017D000A8010E94931A9701A8010E94931A9701E9
:1017E000A8010E94931A9B01AC01C301B2010E949F
:1017F0008C1B2B013C0124E93CEB40EB54E3B7018B
:10180000C8010E94931A9701A8010E94931A970198
:10181000A8010E94931A9701A8010E94931A9B01A4
:10182000AC01C301B2010E948C1B2B013C0121E9D8
:1018300036E940EF58EBB701C8010E94931A9701AF
:10184000A8010E94931A9701A8010E94931A9B0174
:10185000AC01C301B2010E948C1B2B013C0128E5A5
:1018600033E342E85CE3B701C8010E94931A970191
:10187000A8010E94931A9B01AC01C301B2010E940E
:101880008C1B2B013C0124ED38E54EE45FEBB701E6
:10189000C8010E94931A9B01AC01C301B2010E94CE
:1018A0008C1B2DEF33E242E851E40E948C1B2B018C
:1018B0003C0120E030E044E353E4B501C6010E945E
:1018C000021D1816A4F420E030E044EB53E4B50107
:1018D000C6010E942D1A87FF0AC0A301920160E091
:1018E00070E088EC92E40E948B1B2B013C0120E00D
:1018F00030E0A901C301B2010E942D1A87FD11C079
:1019000020E030E048EC52E4C301B2010E94021D25
:10191000181654F4412C512C48EC642E42E4742ED9
:1019200003C0412C512C32018FEC90E00E94EA134D
:1019300022E0A501B60182E594E00E94F5108DEC4D
:1019400090E00E94EA1322E030E0B301A20182E5B8
:1019500094E00E94D7116D96EEADFFAD6D97E25207
:10196000FC4F408251826282738267966EAD7FAD7A
:1019700067976F5F7F4F67967FAF6EAF67976D9684
:101980008EAD9FAD6D9704966D969FAF8EAF6D97A0
:101990002F96AEADBFAD2F9712962F96BFAFAEAFBD
:1019A0002F97B4E02B0E311C6B96EEADFFAD6B970D
:1019B00031966B96FFAFEEAF6B9769962EAD3FAD4C
:1019C00069972E5F3F4F69963FAF2EAF69972B9671
:1019D0006EAD7FAD2B976C5F7F4F2B967FAF6EAF59
:1019E0002B97A1968EAD9FADA1970296A1969FAF22
:1019F0008EAFA1976396AEADBFAD63971896639611
:101A0000BFAFAEAF63972D96EEADFFAD2D97389675
:101A10002D96FFAFEEAF2D9767962EAD3FAD679732
:101A20002430310509F0BBCB8E01075D1F4F88E0E4
:101A3000D8011D928A95E9F785E291E00E940B1486
:101A40004091EE035091EF036091F0037091F10328
:101A500022E030E082E594E00E94D7114091F20349
:101A60005091F3036091F4037091F50322E030E0AC
:101A700082E594E00E94D7114091F6035091F7035C
:101A80006091F8037091F90322E030E082E594E080
:101A90000E94D7114091FA035091FB036091FC031F
:101AA0007091FD0322E030E082E594E00E94D711BE
:101AB00082E191E00E940B142D961FAF0EAF2D977F
:101AC0003801EEEEF3E06396FFAFEEAF6397212CA3
:101AD000312C39EB432E32E0532E6396AEADBFADC1
:101AE0006397CD90DD90ED90FD906396BFAFAEAF64
:101AF000639720E030E040E051E4C701B6010E9466
:101B00008C1B61966CAF7DAF8EAF9FAF6197EEEE91
:101B1000F3E02B96FFAFEEAF2B972B96AEADBFAD9C
:101B20002B978D909D90AD90BD902B96BFAFAEAF93
:101B30002B9761962CAD3DAD4EAD5FAD6197C50164
:101B4000B4010E942D1A87FF16C020E030E040E06B
:101B500051E4C701B6010E948B1B9B01AC01C5017A
:101B6000B4010E94021D181634F4F30180819181A2
:101B70000196918380832B962EAD3FAD2B972E5FE0
:101B8000334059F6D3018C9111969C91B2E06B0EC3
:101B9000711C9F938F933F922F925F924F92A2EB73
:101BA000B3E0BF93AF930E94C71F82EB93E00E9404
:101BB0001B14FFEF2F1A3F0A0FB6F894DEBF0FBEBB
:101BC000CDBF34E02316310409F087CFCE018F96C4
:101BD000F80141915191208131814217530709F455
:101BE00052C029A53AA58BA59CA58217930724F47A
:101BF0009C0181E090E002C080E090E04DA55EA5F0
:101C0000421753071CF49A0182E090E04FA558A9AF
:101C10004217530714F483E090E0FC01E250FC4FBC
:101C200021E02083880F991FFE01E80FF91F21A5ED
:101C300032A5CE01C196EEEFF3E041E02D96AEADB8
:101C4000BFAD2D976D917D912D96BFAFAEAF2D9706
:101C50006217730709F4408331962D966EAD7FAD00
:101C60002D976817790751F70E948C02049709F4A1
:101C7000B0C00E941B02E12CF12C412C512C3201EE
:101C80005301420105C0E817F90709F0A2CFECCFD4
:101C9000A396AEADBFADA3978D91A396BFAFAEAFE8
:101CA000A397811123C06596EEADFFAD6597E25114
:101CB000FC4F2081318142815381C501B4010E94D2
:101CC0008C1B4B015C016596EEADFFAD6597E25252
:101CD000FC4F2081318142815381C301B2010E94B6
:101CE0008C1B2B013C01BFEFEB1AFB0A6596EEAD96
:101CF000FFAD659734966596FFAFEEAF6597709729
:101D000039F6B701FF0C880B990B0E94341A6B014E
:101D10007C019B01AC01C301B2010E94F81B2B01A5
:101D20003C01A7019601C501B4010E94F81B6B019B
:101D30007C0186E491E00E94EA1324E030E0B301E4
:101D4000A20182E594E00E94D71187E391E00E940E
:101D5000EA1324E030E0B701A60182E594E00E9496
:101D6000D7116EE670E080E090E00E94F4020E94DD
:101D7000F20364E170E080E090E00E94F4026FEE14
:101D800074E0C8010E94D91563EC72E0C8010E949A
:101D90006C15DC0114964D915C9115976D917C91B9
:101DA00081E495E00E94730FC8010E94D41522E0DF
:101DB00030E0B301A20181E495E00E94D71164E60E
:101DC00070E080E090E00E94F40280E00E94F40362
:101DD0005EC886EA91E00E940B146EE670E080E037
:101DE00090E00E94F4020E94F20364E170E080E05F
:101DF00090E00E94F4026FEE74E0C8010E94D915D1
:101E00006AEC72E0C8010E946C15BC0181E495E0A7
:101E10000E94EB11C80125C088E891E00E940B14D4
:101E20006EE670E080E090E00E94F4020E94F2030F
:101E300064E170E080E090E00E94F4026FEE74E0F4
:101E4000CE0189960E94D91562ED72E0CE01899685
:101E50000E946C15BC0181E495E00E94EB11CE015B
:101E600089960E94D41564E670E080E090E00E94BC
:101E7000F40280E00E94F40308C8F401808191819B
:101E80008230910514F06C930DC0F801EE0FFF1F26
:101E9000EE0FFF1FE80FF91FEE0FFF1FE657FC4F75
:101EA000D182C0820196D4018D939C933FC84FE3A9
:101EB00055E06AE175E080E090E00E94061A009724
:101EC00071F0FC018081813311F481E003C0803323
:101ED00019F480E00C94F90389E890E002C08CE7E3
:101EE00090E00C940B14CF92DF92EF92FF920F933D
:101EF0001F93CF93DF936C017A018B01C0E0D0E098
:101F0000CE15DF0589F0D8016D918D01D601ED91D7
:101F1000FC910190F081E02DC6010995892B11F407
:101F20007E0102C02196ECCFC701DF91CF911F91B6
:101F30000F91FF90EF90DF90CF900895FC01538DAB
:101F4000448D252F30E0842F90E0821B930B541793
:101F500010F0CF96089501970895FC01918D828D20
:101F6000981761F0828DDF01A80FB11D5D968C91ED
:101F7000928D9F5F9F73928F90E008958FEF9FEFF8
:101F80000895FC01918D828D981731F0828DE80FB4
:101F9000F11D858D90E008958FEF9FEF0895FC016E
:101FA000918D228D892F90E0805C9F4F821B91093B
:101FB0008F739927089582E594E00E94CF0F21E066
:101FC000892B09F420E0822F0895FC01848DDF0124
:101FD000A80FB11DA35ABF4F2C91848D90E001969C
:101FE0008F739927848FA689B7892C93A089B1898B
:101FF0008C9180648C93938D848D981306C0028895
:10200000F389E02D80818F7D80830895EF92FF9288
:102010000F931F93CF93DF93EC0181E0888F9B8D0B
:102020008C8D981305C0E889F989808185FD24C0CD
:10203000F62E0B8D10E00F5F1F4F0F731127E02E50
:102040008C8DE8120CC00FB607FCFACFE889F9892D
:10205000808185FFF5CFCE010E94E50FF1CF8B8DFA
:10206000FE01E80FF11DE35AFF4FF0820B8FEA8962
:10207000FB898081806207C0EE89FF896083E889DF
:10208000F98980818064808381E090E0DF91CF9145
:102090001F910F91FF90EF900895CF93DF93EC0184
:1020A000888D8823C9F0EA89FB89808185FD05C078
:1020B000A889B9898C9186FD0FC00FB607FCF5CFB2
:1020C000808185FFF2CFA889B9898C9185FFEDCFFA
:1020D000CE010E94E50FE7CFDF91CF91089580E018
:1020E00090E0892B29F00E94DB0F81110C940000F5
:1020F00008950E94721FFC011182108213821282C5
:10210000158214826115710551F0FB0101900020C8
:10211000E9F73197AF01461B570B0C94A9150895A9
:10212000DC01ED91FC910190F081E02D09946115A5
:10213000710579F0FB0101900020E9F73197AF01BB
:10214000461B570BDC01ED91FC910280F381E02DE1
:10215000099480E090E008954F925F926F927F9291
:10216000EF92FF920F931F93CF93DF93CDB7DEB71C
:10217000A1970FB6F894DEBF0FBECDBF7C01FA0168
:10218000CB0119A2223008F42AE08E010F5D1F4F07
:10219000422E512C612C712CBF01A30192010E948F
:1021A000341DF901CA01015011096A3014F4605D4F
:1021B00001C0695CD8016C93232B242B252B61F77C
:1021C000B801C7010E949710A1960FB6F894DEBF20
:1021D0000FBECDBFDF91CF911F910F91FF90EF9078
:1021E0007F906F905F904F9008954F925F926F92A3
:1021F0007F928F929F92AF92BF92CF92DF92EF9297
:10220000FF92CF93DF93EC016A017B01B22E9A011A
:10221000AB01C701B6010E94071D882319F062EEC9
:1022200072E027C026013701E89477F82FEF3FEFDF
:102230004FE75FE7C301B2010E94071D81110DC086
:102240002FEF3FEF4FE75FE7C301B2010E942D1A66
:1022500018161CF466EE72E00CC02FEF3FEF4FE74C
:102260005FE4C701B6010E94021D18169CF46AEED5
:1022700072E0CE01DF91CF91FF90EF90DF90CF9091
:10228000BF90AF909F908F907F906F905F904F9096
:102290000C9497102FEF3FEF4FE75FECC701B601AB
:1022A0000E942D1A87FDE3CF20E030E0A901C7018D
:1022B000B6010E942D1A87FF0AC06DE2CE010E946E
:1022C00090104C01F7FAF094F7F8F09402C0812CCA
:1022D000912CA12C60E070E080E09FE3AB1441F012
:1022E00020E030E040E251E40E94F81BA394F6CFD6
:1022F0009B01AC01C701B6010E948C1B2B013C0164
:102300000E94711C6B017C010E94321A9B01AC017E
:10231000C301B2010E948B1B2B013C012AE0B701D3
:10232000A601CE010E94AC107C01E80CF91CBB2078
:1023300031F06EE2CE010E949010E80EF91EDB2C07
:10234000DD2029F120E030E040E251E4C301B20198
:102350000E94931A2B013C010E94711C4B01A12C7D
:10236000B12C2AE0B501A401CE010E94AC10E80E08
:10237000F91EC501B4010E94321A9B01AC01C301D0
:10238000B2010E948B1B2B013C01DA94D9CFC7010B
:10239000DF91CF91FF90EF90DF90CF90BF90AF9003
:1023A0009F908F907F906F905F904F9008950F93C4
:1023B0001F93CF93DF93EC010E94F5108C016EEE1A
:1023C00072E0CE010E949710800F911FDF91CF9194
:1023D0001F910F9108950F931F93CF93DF93EC01FB
:1023E000E881F981DB0114964D915C9115976D910F
:1023F0007C910280F381E02D09958C016EEE72E0F4
:10240000CE010E949710800F911FDF91CF911F91F5
:102410000F9108951F920F920FB60F9211242F93D0
:102420003F934F935F936F937F938F939F93AF935C
:10243000BF93EF93FF9382E594E00E94E50FFF9135
:10244000EF91BF91AF919F918F917F916F915F912C
:102450004F913F912F910F900FBE0F901F901895A5
:102460001F920F920FB60F9211242F938F939F9369
:10247000EF93FF93E0916204F09163048081E09117
:102480006804F091690482FD12C0908180916B0410
:102490008F5F8F7320916C04821751F0E0916B0471
:1024A000F0E0EE5AFB4F958F80936B0401C0808162
:1024B000FF91EF919F918F912F910F900FBE0F90F1
:1024C0001F90189590E0FC01EB52FE4F3491FC01F7
:1024D000E85BFD4F2491FC01EC5CFD4FE491EE23A1
:1024E00009F43BC0332339F1333091F038F4313003
:1024F000A9F0323001F584B58F7D12C0373091F0EC
:102500003830A1F03430B9F4809180008F7D03C061
:10251000809180008F77809380000DC084B58F7785
:1025200084BD09C08091B0008F7703C08091B00056
:102530008F7D8093B000F0E0EE0FFF1FE05EFD4F57
:10254000A591B4918FB7F894EC91611103C02095D7
:102550002E2301C02E2B2C938FBF0895CF93DF9392
:1025600090E0FC01E85BFD4F2491FC01EC5CFD4F29
:102570008491882361F190E0880F991FFC01E55355
:10258000FE4FC591D491FC01E05EFD4FA591B49141
:10259000611109C09FB7F8948881209582238883B0
:1025A000EC912E230BC0623061F49FB7F894388110
:1025B000822F809583238883EC912E2B2C939FBFB1
:1025C00006C08FB7F894E8812E2B28838FBFDF9148
:1025D000CF910895CF93DF93EC018091FD0490910A
:1025E000FE04029709F5C130D10569F024F4209763
:1025F000D9F460E009C0C230D10561F0C330D10523
:1026000099F460E008C061E0809101050E946212C7
:1026100061E006C061E0809101050E94621260E005
:10262000809103050E9462128091FD049091FE0446
:10263000049709F03FC0C130D105B9F04CF42097A0
:10264000C9F561E0809101050E94621260E013C04B
:10265000C230D105D9F0C330D10561F561E0809178
:1026600001050E94621260E017C060E080910105E0
:102670000E94621261E0809103050E94621261E093
:10268000809105050E94621260E010C060E08091B8
:1026900001050E94621261E0809103050E946212AE
:1026A00060E0809105050E94621261E0809107055B
:1026B0000E9462128091FD049091FE04059709F03A
:1026C00086C0CA30D10508F082C0FE01EC5CFF4F25
:1026D0000C94751D60E0809101050E94621261E01A
:1026E00061C060E0809101050E94621261E080910A
:1026F00003050E94621260E05AC060E0809101050B
:102700000E94621261E0809103050E94621260E003
:10271000809105050E94621261E04EC060E001C038
:1027200061E0809101050E94621261E006C061E0F3
:10273000809101050E94621260E0809103050E9471
:10274000621260E00BC061E0809101050E9462129C
:1027500060E0809103050E94621261E080910505AE
:102760000E94621261E010C061E0809101050E9448
:10277000621260E0809103050E94621261E0809124
:1027800005050E94621260E0809107050E946212B6
:1027900060E017C061E001C060E0809101050E9427
:1027A000621260E0809103050E94621261E08091F4
:1027B00005050E94621260E0809107050E94621286
:1027C00061E080910905DF91CF910C946212DF9155
:1027D000CF9108950F931F93CF93DF938C01C0E0A7
:1027E000D0E0F801EC0FFD1F6491662371F0E091D9
:1027F0005204F09153040190F081E02D82E594E0C1
:102800000995892B11F02196ECCFCE01DF91CF9164
:102810001F910F910895CF93DF930E94EA13EC016B
:102820006EEE72E082E594E00E9497108C0F9D1F7F
:10283000DF91CF910895CF93DF93BC0182E594E0BF
:102840000E949710EC016EEE72E082E594E00E9427
:1028500097108C0F9D1FDF91CF9108954F925F923B
:102860006F927F928F929F92AF92BF92EF92FF9260
:102870000F931F93CF93DF93EC0197FF04C0CC27F6
:10288000DD27C81BD90B181619063CF481E090E02F
:102890009093F6048093F50406C0892B21F01092E2
:1028A000F6041092F50404E010E08AE0E82EF12C22
:1028B000209709F468C00E94CF0280900B05909089
:1028C0000C05A0900D05B0900E052B013C01481899
:1028D00059086A087B088090F7049090F804A0904B
:1028E000F904B090FA04481459046A047B0400F314
:1028F00060930B0570930C0580930D0590930E0566
:102900002091F5043091F6048091FF049091000528
:102910002130310589F40196909300058093FF04DE
:102920002091FB043091FC0482179307C1F41092AC
:1029300000051092FF0413C0892B41F48091FB0421
:102940009091FC04909300058093FF048091FF0414
:10295000909100050197909300058093FF042197C3
:102960002091FD043091FE048091FF0490910005B8
:102970002530310511F4B70101C0B8010E94201DB6
:102980000E94EA1295CFDF91CF911F910F91FF9096
:10299000EF90BF90AF909F908F907F906F905F90DF
:1029A0004F900895CF92DF92EF92FF92CF93DF93F3
:1029B000EC0181E192E00E94EA136E010D2E000C01
:1029C000EE08FF08F7FE0EC06DE282E594E00E947B
:1029D000901044275527BA014C195D096E097F09EB
:1029E0002AE003C02AE0B701A60182E594E00E9434
:1029F000AC106EEE72E082E594E00E949710209198
:102A0000FB043091FC04032E000C440B550B60E0DA
:102A100077E883E993E00E94561DCA01B9012AE0D4
:102A200030E040E050E00E94561D2093F7043093C0
:102A3000F8044093F9045093FA04882799278C1BD3
:102A40009D0BDF91CF91FF90EF90DF90CF900C9492
:102A50002E14CF93DF932091130530911405232B6F
:102A600079F0FC01C0910F05D09110056081718152
:102A7000CE010E94AD1F009719F08C1B9D0B02C068
:102A80008FEF9FEFDF91CF9108950F931F93CF9317
:102A9000DF93EC0188819981009729F02A813B819D
:102AA0002617370788F48B016F5F7F4F0E94A81E9F
:102AB000009761F0998388831B830A832C813D8171
:102AC000232B11F4FC01108281E001C080E0DF9132
:102AD000CF911F910F910895EF92FF920F931F9343
:102AE000CF93DF93EC017B0161157105F1F0FB01E0
:102AF00001900020E9F73197E61BF70B0C811D814F
:102B00003097F9F00E0F1F1FB8010E94451588235A
:102B100061F0288139818C819D81B701820F931FDB
:102B20000E94891F1D830C830CC0888199810097A6
:102B300011F00E94101E198218821D821C821B82B5
:102B40001A82CE01DF91CF911F910F91FF90EF90EC
:102B50000895EF92FF920F931F93CF93DF93EC01B1
:102B60007B018A01BA010E944515288139818111B2
:102B70000DC02115310519F0C9010E94101E1982DE
:102B800018821D821C821B821A8206C01D830C8340
:102B9000B701C9010E94891FCE01DF91CF911F911A
:102BA0000F91FF90EF900895FC01808191810C942A
:102BB000101EFB01DC0111961C921E9213961C92B2
:102BC0001E92129715961C921E92149786179707BD
:102BD00049F0608171816115710521F04481558151
:102BE0000C94A91508958FEE94E00E94D4158FE0FF
:102BF00095E00E94D4158CE491E090934205809377
:102C0000410580914F04909150048154954071F496
:102C1000E0915405F091550590818091560580957D
:102C2000892380831092500410924F040895CF930B
:102C3000DF9300D000D000D0CDB7DEB7789484B554
:102C4000826084BD84B5816084BD85B5826085BDA8
:102C500085B5816085BD80916E00816080936E0036
:102C60001092810080918100826080938100809128
:102C700081008160809381008091800081608093D9
:102C800080008091B10084608093B1008091B00099
:102C900081608093B00080917A00846080937A0094
:102CA00080917A00826080937A0080917A008160BE
:102CB00080937A0080917A00806880937A001092E5
:102CC000C100E0916204F091630482E08083E091AE
:102CD0005E04F0915F041082E0916004F091610461
:102CE00087E6808310926A04E0916604F09167049D
:102CF00086E08083E0916404F091650480818061C6
:102D00008083E0916404F091650480818860808311
:102D1000E0916404F0916504808180688083E09193
:102D20006404F091650480818F7D808310925C053E
:102D300010925B0510925A05109259051092580591
:102D4000109257058DE991E090935E0580935D05A3
:102D500090914D05963108F057C02DEB30E030933F
:102D60005805209357052BE931E030935A052093FD
:102D700059052CE231E030935C0520935B052091EE
:102D80006800983050F031E09E3008F430E081E087
:102D900001C0880F3A95EAF701C084E0822B809346
:102DA0006800983038F09E3040F0963148F020E0CE
:102DB00030E008C02DE630E005C02BE630E002C070
:102DC0002CE630E03093550520935405983030F4CC
:102DD00081E001C0880F9A95EAF70EC0292F30E0F4
:102DE0009E3018F42850310902C02E50310981E07C
:102DF00001C0880F2A95EAF78093560580915D05FA
:102E000090915E050197F1F780915B0590915C05CB
:102E1000892B49F1E0914F04F091500425E0E13411
:102E2000F20709F1309739F0A389B4899C9185891B
:102E3000809589238C9380915F058E7F80935F05B9
:102E400010924E0410924D0481E495E0909350044A
:102E500080934F04E0915405F09155059081809145
:102E60005605892B808380E00E94F40361E085E0B1
:102E70000E94AE1261E084E00E94AE128AEF91E0FF
:102E80000E940B146FEE74E082E594E00E94EB1157
:102E90006EE670E080E090E00E94F4020E94F2038F
:102EA00064E170E080E090E00E94F4026FEE74E074
:102EB000CE0101960E94D91561EF72E0CE01019614
:102EC0000E946C15BC0181E495E00E94EB11CE01DB
:102ED00001960E94D41564E670E080E090E00E94C4
:102EE000F40280E00E94F40389EE91E00E940B144A
:102EF0008091170590E001962BE0289FB001299F53
:102F0000700D112480911505909116050E94A81E40
:102F10009093160580931505F09017058C013BE002
:102F2000F39E000D111D112448E050E068EF72E09F
:102F3000C8010E949E1F87E59FE0D8011A969C93C6
:102F40008E931997F394F092170583E392E0909390
:102F5000190580931805FF24F39482E594E00E94FC
:102F6000CF0F181619060CF08BC082E594E00E9472
:102F7000AD0F182F80911C0518133AC04FE355E090
:102F80006AE175E08DE195E00E94061A6C01892BDB
:102F900051F1A0901705B12C00911505109116055F
:102FA000812C912C8A149B04B4F4380148E050E041
:102FB000B801C6010E94901F055F1F4F892B39F48D
:102FC000D3011996ED91FC911A9709950CC0BFEFAA
:102FD0008B1A9B0AE7CFE0911805F09119053097FD
:102FE00011F0C601099510921D0510923E05B5CF4E
:102FF000812F012E000C990B0E94791F892B09F457
:10300000ACCFE0913E05E03208F0A7CF91E09E0FF3
:1030100090933E05F0E0EB5EFA4F1087E92FF0E069
:10302000EB5EFA4F108699CF81E495E00E94F6019D
:10303000D82E89831A8200911305109114050F5F11
:103040001F4FB8018FE095E00E944515882399F045
:1030500020910F0530911005809113059091140572
:10306000BE016F5F7F4F820F931F0E94891F1093D5
:10307000140500931305EAE0DE1202C0F092510439
:1030800081E495E00E94DE01892B71F68091510464
:10309000882309F49DC06FE075E082E594E00E940A
:1030A000EB116FEE74E0CE0101960E94D9156DEF21
:1030B00072E0CE0101960E946C15209113053091AB
:1030C0001405232B89F000910F0510911005DC01E8
:1030D0006D917C91C8010E94AD1F009729F0FC0101
:1030E000E01BF10B8F0102C00FEF1FEFCE01019625
:1030F0000E94D4150F3F1F4F21F080E00E94F9037A
:103100005DC064E073E0CE0101960E947B10CE01A9
:1031100001960E9429158C01CE0101960E94D415BA
:103120000F3F1F4F99F16EE670E080E090E00E9443
:10313000F4020E94F20364E170E080E090E00E94FB
:10314000F4026FEE74E0CE0101960E94D9156DE68F
:1031500071E0CE0101960E946C15DC0114964D9130
:103160005C9115976D917C9181E495E00E94730FBD
:10317000CE0101960E94D41564E670E080E090E0F4
:103180000E94F40280E00E94F40318C06DE073E036
:10319000CE0101960E947B10CE0101960E94291556
:1031A0008C01CE0101960E94D4150F3F1F4F31F0C4
:1031B0006EE670E080E090E00E94F40240E050E0B3
:1031C00060EF72E08FE095E00E94A9151092510423
:1031D0000E946F10C2CE109255041092540488EED3
:1031E00093E0A0E0B0E08093560490935704A0933E
:1031F0005804B09359042AE331E0309353042093E8
:10320000520425EC30E030935F0420935E0424ECFC
:1032100030E0309361042093600420EC30E0309380
:1032200063042093620421EC30E030936504209322
:10323000640422EC30E0309367042093660426ECAB
:1032400030E0309369042093680410926B0410926C
:103250006C0410926D0410926E041092440510924A
:1032600043058093450590934605A0934705B09389
:1032700048058CE491E090934205809341051092BB
:1032800058051092570510925A0510925905109240
:103290005C0510925B0510925E0510925D056091D1
:1032A0005F056E7F6D7F60935F056695617081E05D
:1032B00068278BE00E94621261E08BE00E94AE12F0
:1032C000E3E5F2E0E491E0935105EFE3F2E0E4910D
:1032D000F0E0EE0FFF1FE05EFD4F8591949190931B
:1032E00053058093520560E08AE00E94AE128091FF
:1032F0005F0581FD04C061E08AE00E9462128AE0FD
:1033000080934D05E2E5F2E0E491E0934E05EEE3B3
:10331000F2E0E491F0E0EE0FFF1FE65DFD4F259136
:1033200034913093500520934F051092160510925A
:103330001505109217051092190510921805809323
:103340001C051092400510923F0567EB72E08AE180
:1033500095E00E94891F10921D0510923E0560EFB6
:1033600072E08FE095E00E947B10109200051092B1
:10337000FF041092F6041092F50410920B051092BF
:103380000C0510920D0510920E0580E198E09093C7
:10339000FC048093FB0486E090E090930205809308
:1033A000010588E090E0909304058093030587E091
:1033B00090E0909306058093050589E090E0909356
:1033C00008058093070561E086E00E94AE1261E087
:1033D000809103050E94AE1261E0809105050E9474
:1033E000AE1261E0809107050E94AE1210920A05AC
:1033F0001092090584E090E09093FE048093FD0410
:1034000067E173E08FEE94E00C947B10FA01A191D8
:10341000B081009719F41097E1F0CD01DC01CD01E6
:103420000D90002011F4C00113C0FB012191222353
:1034300019F02015D9F7F3CFFB012191201519F4CC
:103440001E92119606C02223C1F70D900020A1F70D
:10345000D001FA01A193B08308950E946F1A08F475
:1034600081E00895E89409C097FB3EF4909580951B
:10347000709561957F4F8F4F9F4F9923A9F0F92F3A
:1034800096E9BB279395F695879577956795B795B8
:10349000F111F8CFFAF4BB0F11F460FF1BC06F5F9E
:1034A0007F4F8F4F9F4F16C0882311F096E911C0B0
:1034B000772321F09EE8872F762F05C0662371F0D1
:1034C00096E8862F70E060E02AF09A95660F771FE5
:1034D000881FDAF7880F9695879597F90895990FC1
:1034E0000008550FAA0BE0E8FEEF16161706E807CE
:1034F000F907C0F012161306E407F50798F0621BEF
:10350000730B840B950B39F40A2661F0232B242BC3
:10351000252B21F408950A2609F4A140A6958FEFE2
:10352000811D811D08950E94A61A0C941A1B0E94E9
:103530000C1B38F00E94131B20F0952311F00C9403
:10354000031B0C94091B11240C944E1B0E942B1B73
:1035500070F3959FC1F3950F50E0551F629FF001E6
:10356000729FBB27F00DB11D639FAA27F00DB11DFF
:10357000AA1F649F6627B00DA11D661F829F222788
:10358000B00DA11D621F739FB00DA11D621F839F0F
:10359000A00D611D221F749F3327A00D611D231FE5
:1035A000849F600D211D822F762F6A2F11249F5733
:1035B00050409AF0F1F088234AF0EE0FFF1FBB1F36
:1035C000661F771F881F91505040A9F79E3F5105F5
:1035D00080F00C94031B0C944E1B5F3FE4F3983E69
:1035E000D4F3869577956795B795F795E7959F5F9F
:1035F000C1F7FE2B880F911D9695879597F9089531
:1036000099278827089597F99F6780E870E060E020
:1036100008959FEF80EC089500240A94161617066B
:1036200018060906089500240A94121613061406B3
:1036300005060895092E0394000C11F4882352F016
:10364000BB0F40F4BF2B11F460FF04C06F5F7F4FCE
:103650008F4F9F4F089557FD9058440F551F59F0B5
:103660005F3F71F04795880F97FB991F61F09F3F6F
:1036700079F087950895121613061406551FF2CF98
:103680004695F1DF08C0161617061806991FF1CFE8
:1036900086957105610508940895E894BB2766270F
:1036A0007727CB0197F908952F923F924F925F921F
:1036B0006F927F928F929F92AF92BF92CF92DF9242
:1036C000EF92FF920F931F93CF93DF93CDB7DEB7A7
:1036D000CA1BDB0B0FB6F894DEBF0FBECDBF09943B
:1036E0002A88398848885F846E847D848C849B8492
:1036F000AA84B984C884DF80EE80FD800C811B81A0
:10370000AA81B981CE0FD11D0FB6F894DEBF0FBECE
:10371000CDBFED0108955058BB27AA270E94A31BD7
:103720000C941A1B0E940C1B38F00E94131B20F0F3
:1037300039F49F3F19F426F40C94091B0EF4E0951C
:10374000E7FB0C94031BE92F0E942B1B58F3BA17BD
:10375000620773078407950720F079F4A6F50C94A7
:103760004D1B0EF4E0950B2EBA2FA02D0B01B901C5
:1037700090010C01CA01A0011124FF27591B99F0E7
:10378000593F50F4503E68F11A16F040A22F232FF3
:10379000342F4427585FF3CF469537952795A79543
:1037A000F0405395C9F77EF41F16BA0B620B730BEA
:1037B000840BBAF09150A1F0FF0FBB1F661F771F5B
:1037C000881FC2F70EC0BA0F621F731F841F48F410
:1037D000879577956795B795F7959E3F08F0B0CF99
:1037E0009395880F08F09927EE0F97958795089580
:1037F0000E940C1C0C941A1B0E94131B58F00E9470
:103800000C1B40F029F45F3F29F00C94031B51116D
:103810000C944E1B0C94091B0E942B1B68F39923DC
:10382000B1F3552391F3951B550BBB27AA276217BC
:103830007307840738F09F5F5F4F220F331F441FC9
:10384000AA1FA9F335D00E2E3AF0E0E832D09150FD
:103850005040E695001CCAF72BD0FE2F29D0660FEA
:10386000771F881FBB1F261737074807AB07B0E82D
:1038700009F0BB0B802DBF01FF2793585F4F3AF033
:103880009E3F510578F00C94031B0C944E1B5F3F38
:10389000E4F3983ED4F3869577956795B795F795B9
:1038A0009F5FC9F7880F911D9695879597F90895A1
:1038B000E1E0660F771F881FBB1F6217730784073D
:1038C000BA0720F0621B730B840BBA0BEE1F88F74C
:1038D000E09508950E94711C6894B1110C944E1BE0
:1038E00008950E94331B88F09F5798F0B92F9927AD
:1038F000B751B0F0E1F0660F771F881F991F1AF0DB
:10390000BA95C9F714C0B13091F00E944D1BB1E0D7
:1039100008950C944D1B672F782F8827B85F39F0D6
:10392000B93FCCF3869577956795B395D9F73EF473
:1039300090958095709561957F4F8F4F9F4F08951B
:103940000E940C1B20F019F00E94131B50F40C94E1
:10395000091B0C944E1BE92F0E942B1B88F3552347
:10396000B1F3E7FB6217730784079507A8F189F3A2
:10397000E92FFF2788232AF03197660F771F881FCA
:10398000DAF7952F5527442332F091505040220FFB
:10399000331F441FD2F7BB27E91BF50B621B730BC8
:1039A000840BB109B1F222F4620F731F841FB11DA1
:1039B00031972AF0660F771F881FBB1FEFCF9150FA
:1039C000504062F041F0882332F0660F771F881F65
:1039D00091505040C1F793950C94F41C86957795BF
:1039E00067959F5FD9F7F7CF9F3F31F0915020F453
:1039F000879577956795B795880F911D96958795CB
:103A000097F908950E946F1A08F48FEF08950E94A5
:103A10006F1A880B990B0895AA1BBB1B51E107C0B5
:103A2000AA1FBB1FA617B70710F0A61BB70B881F4E
:103A3000991F5A95A9F780959095BC01CD010895DD
:103A400097FB072E16F4009407D077FD09D00E944B
:103A50000C1D07FC05D03EF4909581959F4F08956D
:103A6000709561957F4F0895A1E21A2EAA1BBB1B8A
:103A7000FD010DC0AA1FBB1FEE1FFF1FA217B3073A
:103A8000E407F50720F0A21BB30BE40BF50B661F50
:103A9000771F881F991F1A9469F760957095809514
:103AA00090959B01AC01BD01CF010895052E97FBB8
:103AB0001EF400940E946D1D57FD07D00E94341D16
:103AC00007FC03D04EF40C946D1D50954095309535
:103AD00021953F4F4F4F5F4F08959095809570957A
:103AE00061957F4F8F4F9F4F0895EE0FFF1F0590F9
:103AF000F491E02D0994CF93DF938230910510F477
:103B000082E090E0E0916205F091630520E030E012
:103B1000C0E0D0E0309711F140815181481759073A
:103B2000C0F04817590761F482819381209719F0FA
:103B30009B838A832BC0909363058093620526C084
:103B40002115310519F04217530718F49A01BE01E7
:103B5000DF01EF010280F381E02DDCCF211531057B
:103B600009F1281B390B2430310590F412968D9100
:103B70009C9113976115710521F0FB01938382835A
:103B800004C09093630580936205FD01329644C0A2
:103B9000FD01E20FF31F81939193225031092D9380
:103BA0003C933AC02091600530916105232B41F48C
:103BB00020910A0130910B0130936105209360053B
:103BC00020910801309109012115310541F42DB7EB
:103BD0003EB740910C0150910D01241B350BE09133
:103BE0006005F0916105E217F307A0F42E1B3F0B6F
:103BF0002817390778F0AC014E5F5F4F241735075F
:103C000048F04E0F5F1F509361054093600581930C
:103C1000919302C0E0E0F0E0CF01DF91CF910895F1
:103C20000F931F93CF93DF93009709F48CC0FC018F
:103C3000329713821282009162051091630501157B
:103C4000110581F420813181820F931F209160053D
:103C5000309161052817390779F5F0936105E093F4
:103C6000600571C0D80140E050E0AE17BF0750F4C6
:103C700012962D913C911397AD012115310509F153
:103C8000D901F3CF9D01DA013383228360817181F1
:103C9000860F971F8217930769F4EC0128813981F9
:103CA000260F371F2E5F3F4F318320838A819B81F0
:103CB00093838283452B29F4F0936305E093620597
:103CC00042C01396FC93EE931297ED0149915991DE
:103CD0009E01240F351FE217F30771F48081918153
:103CE000840F951F029611969C938E9382819381E7
:103CF00013969C938E931297E0E0F0E0D801129611
:103D00008D919C911397009719F0F8018C01F6CFD3
:103D10008D919C9198012E5F3F4F820F931F2091B0
:103D20006005309161052817390769F4309729F447
:103D3000109263051092620502C0138212821093E2
:103D4000610500936005DF91CF911F910F91089558
:103D5000A0E0B0E0EEEAFEE10C94581BEC01009705
:103D600021F4CB010E947B1DB8C0FC01E60FF71FB8
:103D70009C0122503109E217F30708F4ACC0D901C5
:103D80000D911C91119706171707B0F0053011051A
:103D900008F49FC0C80104978617970708F499C0D4
:103DA00002501109061B170B019311936D937C931D
:103DB000CF010E94101E8DC05B01A01AB10A4C01F8
:103DC000800E911EA0916205B091630540E050E025
:103DD000E12CF12C109709F44AC0A815B905D1F5CA
:103DE0006D907C901197630182E0C80ED11CCA14BB
:103DF000DB0480F1A3014A195B096A0182E0C80E65
:103E0000D11C1296BC9012971396AC91B5E0CB16CC
:103E1000D10440F0B282A38351834083D9016D93D2
:103E20007C930AC00E5F1F4FC301800F911FF901E1
:103E300091838083EB2DFA2FE114F10431F0D70147
:103E40001396FC93EE93129744C0F0936305E093AE
:103E500062053FC08D919C9111974817590708F44E
:103E6000AC017D0112960D90BC91A02DB3CF809135
:103E700060059091610588159905E1F4461757078B
:103E8000C8F48091080190910901009741F48DB721
:103E90009EB740910C0150910D01841B950BE817C2
:103EA000F907C8F4F0936105E0936005F9017183A7
:103EB00060830FC0CB010E947B1D7C01009759F0ED
:103EC000A801BE010E94801FCE010E94101EC701E2
:103ED00004C0CE0102C080E090E0CDB7DEB7EEE0D6
:103EE0000C94741B81E090E0F8940C94682280326A
:103EF00009F091110C94001B80528F55D8F708954A
:103F0000FB01DC0102C001900D9241505040D8F7F6
:103F10000895FB01DC0101900D920020E1F7089566
:103F2000FB01DC014150504030F08D91019080192F
:103F300019F40020B9F7881B990B0895FB01DC01E7
:103F40004150504048F001900D920020C9F701C047
:103F50001D9241505040E0F70895FB0151915523C7
:103F6000A9F0BF01DC014D9145174111E1F759F46A
:103F7000CD010190002049F04D9140154111C9F348
:103F8000FB014111EFCF81E090E001970895AEE091
:103F9000B0E0EDECFFE10C94621B0D891E8986E018
:103FA0008C831A8309838FEF9FE79E838D83AE01F5
:103FB000475E5F4F6F89788DCE0101960E94EA1FA0
:103FC0002F813885F801E20FF31F10822E96E4E06E
:103FD0000C947E1BACE0B0E0E0EFFFE10C94541BCE
:103FE0007C016B018A01FC0117821682838181FFAB
:103FF000BDC1CE0101964C01F7019381F60193FDFD
:10400000859193FF81916F01882309F4ABC18532BB
:1040100039F493FD859193FF81916F01853229F4E5
:10402000B70190E00E94D221E7CF512C312C20E043
:104030002032A0F48B3269F030F4803259F08332B0
:1040400069F420612CC08D3239F0803339F421605D
:1040500026C02260246023C0286021C027FD27C01D
:1040600030ED380F3A3078F426FF06C0FAE05F9E54
:10407000300D1124532E13C08AE0389E300D1124C8
:10408000332E20620CC08E3221F426FD6BC12064D9
:1040900006C08C3611F4206802C0883641F4F6015F
:1040A00093FD859193FF81916F018111C1CF982F6D
:1040B0009F7D9554933028F40C5F1F4FFFE3F983E5
:1040C0000DC0833631F0833771F0833509F05BC062
:1040D00022C0F801808189830E5F1F4F44244394DE
:1040E000512C540115C03801F2E06F0E711CF8011B
:1040F000A080B18026FF03C0652D70E002C06FEF85
:104100007FEFC5012C870E94C7212C0183012C85DC
:104110002F77222E17C03801F2E06F0E711CF801C4
:10412000A080B18026FF03C0652D70E002C06FEF54
:104130007FEFC5012C870E94BC212C012C852068B3
:10414000222E830123FC1BC0832D90E048165906C4
:10415000B0F4B70180E290E00E94D2213A94F4CF0B
:10416000F50127FC859127FE81915F01B70190E061
:104170000E94D22131103A94F1E04F1A51084114B3
:10418000510471F7E5C0843611F0893639F5F8012C
:1041900027FF07C060817181828193810C5F1F4F6F
:1041A00008C060817181072E000C880B990B0E5F8F
:1041B0001F4F2F76722E97FF09C0909580957095AE
:1041C00061957F4F8F4F9F4F2068722E2AE030E01D
:1041D000A4010E940A22A82EA81844C0853729F4F9
:1041E0002F7EB22E2AE030E025C0F22FF97FBF2EBD
:1041F0008F36C1F018F4883579F0B4C0803719F0E3
:10420000883721F0AFC02F2F2061B22EB4FE0DC031
:104210008B2D8460B82E09C024FF0AC09F2F9660A2
:10422000B92E06C028E030E005C020E130E002C031
:1042300020E132E0F801B7FE07C060817181828120
:1042400093810C5F1F4F06C06081718180E090E018
:104250000E5F1F4FA4010E940A22A82EA818FB2D52
:10426000FF777F2E76FE0BC0372D3E7FA51450F4CE
:1042700074FE0AC072FC08C0372D3E7E05C0BA2C01
:10428000372D03C0BA2C01C0B52C34FF0DC0FE0180
:10429000EA0DF11D8081803311F4397E09C032FFAF
:1042A00006C0B394B39404C0832F867809F0B39406
:1042B00033FD13C030FF06C05A2CB31418F4530C4E
:1042C0005B18B32CB31468F4B70180E290E03C872C
:1042D0000E94D221B3943C85F5CFB31410F43B185F
:1042E00001C0312C34FF12C0B70180E390E03C875D
:1042F0000E94D2213C8532FF17C031FD03C088E700
:1043000090E002C088E590E0B7010CC0832F86786A
:1043100059F031FF02C08BE201C080E237FD8DE22F
:10432000B70190E00E94D221A51438F4B70180E3D0
:1043300090E00E94D2215A94F7CFAA94F401EA0D9A
:10434000F11D8081B70190E00E94D221A110F5CF2C
:10435000332009F451CEB70180E290E00E94D221CF
:104360003A94F6CFF7018681978102C08FEF9FEFD5
:104370002C96E2E10C94701BFC010590615070409A
:104380000110D8F7809590958E0F9F1F0895FC011E
:104390006150704001900110D8F7809590958E0F74
:1043A0009F1F08950F931F93CF93DF93FB012381EA
:1043B00021FD03C08FEF9FEF28C022FF16C046816A
:1043C0005781248135814217530744F4A081B1817C
:1043D0009D012F5F3F4F318320838C93268137814E
:1043E0002F5F3F4F3783268310C0EB01092F182F13
:1043F0000084F185E02D0995892BE1F68E819F815E
:1044000001969F838E83812F902FDF91CF911F91F3
:104410000F910895FA01AA27283051F1203181F136
:10442000E8946F936E7F6E5F7F4F8F4F9F4FAF4FBC
:10443000B1E03ED0B4E03CD0670F781F891F9A1FCF
:10444000A11D680F791F8A1F911DA11D6A0F711D83
:10445000811D911DA11D20D009F468943F912AE08F
:10446000269F11243019305D3193DEF6CF01089577
:10447000462F4770405D4193B3E00FD0C9F7F6CFA8
:10448000462F4F70405D4A3318F0495D31FD405270
:10449000419302D0A9F7EACFB4E0A6959795879506
:1044A00077956795BA95C9F70097610571050895E5
:1044B0009B01AC010A2E0694579547953795279591
:1044C000BA95C9F7620F731F841F951FA01D089529
:1044D00011E0CFE2D1E004C0FE010E94751D2196DB
:0A44E000C033D107C9F7F894FFCFED
:1044EA00FF03FF03FF03FF0300006405800032009F
:1044FA003200320032000000000000000000FEFE20
:10450A00FAFCF6FAF2F8000000C000000000000011
:10451A00404000000000000000000610730F9E0FCC
:10452A004D10CF0FAD0FC10F000000008A01730FAD
:10453A0018028901DE01F60171014552524F5220DB
:10454A005349474E414C204944202564003A436F61
:10455A006D4163636570746564004D41583A202566
:10456A0064202564202564202564004D494E3A20A4
:10457A002564202564202564202564004552524F75
:10458A00522052414E474520532564005041524122
:10459A004D53205325643D204D3A256420553A2534
:1045AA0064204C3A25640041202564202564202596
:1045BA006420256420442025642025642025642065
:1045CA0025640053454E2025642046313A2564204F
:1045DA0046323A25642052313A25642052323A252D
:1045EA0064004D494E4C4F432564202564005325F1
:1045FA0064205057313D2564205043313D256420C5
:10460A005057323D2564205043323D2564005325DE
:10461A0064205057313D2564205043313D256400C4
:10462A00532564205030206E6F6E206C696E656170
:10463A00722070756C7365207769647468005325FD
:10464A0064205031206E6F6E206C696E6561722035
:10465A0070756C73652077696474680053256420EB
:10466A006F6E65207065616B206F66667365740096
:10467A00532564206F6E65207065616B204F524927
:10468A0000532564204E4545444C453A2025640094
:10469A00414E474C45256420005325642053554D0F
:1046AA002564003A646174613D003A45727235309E
:1046BA0030003A457272313030003A457272323007
:1046CA0030006E616E00696E66006F7666000D0AD4
:1046DA00003A52656164790052454144003A646186
:1046EA0074613F003C4745544944213E003C4745DC
:0E46FA0054564152213E006C6576656C0000FE
:00000001FF
