:100000000C942D010C9455010C9455010C94130380
:100010000C9413030C9413030C9455010C94550188
:100020000C9455010C9455010C9455010C945501F8
:100030000C9455010C9455010C9455010C945501E8
:100040000C9438120C9455010C9408110C94E21085
:100050000C9455010C9455010C9455010C945501C8
:100060000C9455010C945501021309131513261312
:1000700028132F133B134C1362136413484F4D493D
:100080004E47205354415254004E6F2061726775A1
:100090006D656E74730057726F6E6720436F6D6D80
:1000A000616E64004C4541524E20454E44004C4523
:1000B00041524E2053544152540050524520534314
:1000C000414E4E494E47204F4B005374617274208D
:1000D00072656164206469616C00464620416C670A
:1000E0006F726974686D20456E6400464620416CED
:1000F000676F726974686D20537461727400526521
:10010000616C20756E69742043616C63004F757477
:100110006C6965727320446574656374696F6E0001
:100120004F6E65205065616B2041646A757374651C
:1001300072004F555450555420414E474C453A207B
:10014000004F555450555420554E49543A20004CB8
:100150004544204F464600486F6D696E67204661F2
:10016000696C004E6F2076616C69642073656E73F4
:100170006F72206166746572206C6561726E696E63
:1001800067004E6F2076616C69642073656E736FD3
:10019000722061667465722072656164696E6700C1
:1001A0004F75746C69657273204465746563746916
:1001B0006F6E204661696C00576861743F004C4562
:1001C00044204F4E0000000000240027002A0000B9
:1001D0000000080002010000030407000000000006
:1001E00000000046572056657273696F6E20312EED
:1001F000372E30005354415254204449414C205230
:1002000045414445522056312E30004D4F56494EFF
:10021000472053544550504552000000000025002F
:1002200028002B0000000000230026002900040401
:10023000040404040404020202020202030303038E
:10024000030301020408102040800102040810206A
:1002500001020408102077197F1611241FBECFEF6A
:10026000D8E0DEBFCDBF25E0ACEAB3E001C01D920F
:10027000A23FB207E1F713E0A0E0B1E0E2E0F6E46C
:1002800002C005900D92AC3AB107D9F711E0CCE26B
:10029000D1E004C02197FE010E94011ECB32D1079C
:1002A000C9F70E94A3160C94F4220C940000089540
:1002B00080E090E0089560E086E00E943A1160E0FE
:1002C00087E00E943A1160E088E00E943A1160E005
:1002D00089E00C943A1161E085E00E943A118EEBBE
:1002E00091E00C94A31388EB91E00C94A313CF92AC
:1002F000DF92EF92FF92CF93DF93EB01BC01990F56
:10030000880B990B0E94C01A20E030E041E055E4D0
:100310000E94841C20E030E044EB53E40E941F1B49
:100320009B01AC0160E070E084EB93E40E94171C39
:10033000CC0FDD1FCC0FDD1FCA5DDE4F2881398158
:100340004A815B810E94181C20E030E048E353E4BE
:100350000E94171C20E030E044EB53E40E94371D5C
:100360006B017C0120E030E0A9010E94B91A87FFEF
:100370000AC020E030E044EB53E4C701B6010E941C
:10038000181C6B017C01C701B601DF91CF91FF9072
:10039000EF90DF90CF9008958F929F92AF92BF928F
:1003A000CF92DF92EF92FF92CF930E9477016B0181
:1003B0007C0180908A0490908B04A0908C04B09073
:1003C0008D0420E030E044E353E460918E047091AA
:1003D0008F0480919004909191040E94171C9B01BE
:1003E000AC01C701B6010E948E1D87FD11C020E03F
:1003F00030E044E353E4C501B4010E94181C9B01A2
:10040000AC01C1E0C701B6010E94B91A18160CF47C
:10041000C0E08C2FCF91FF90EF90DF90CF90BF90F6
:10042000AF909F908F9008954F925F926F927F92BE
:100430008F929F92AF92BF92CF92DF92EF92FF92F4
:10044000CF930E9477014B015C01C0908E04D09045
:100450008F04E0909004F090910420E030E0A90136
:10046000C701B6010E941F1B2B013C0120E030E0B8
:1004700040EB51E4C701B6010E941F1BA30192018A
:100480000E94171C20E030E0A9010E94181C20E007
:1004900030E0A9010E94181C20E030E048E453E459
:1004A0000E94841C9B01AC01C501B4010E948E1DF9
:1004B00087FD25C020E030E040E052E4C701B601EE
:1004C0000E941F1BA30192010E94171C20E030E034
:1004D000A9010E94181C20E030E0A9010E94181C0C
:1004E00020E030E048E453E40E94841C9B01AC010E
:1004F000C1E0C501B4010E94B91A18160CF4C0E09D
:100500008C2FCF91FF90EF90DF90CF90BF90AF9066
:100510009F908F907F906F905F904F900895AF92D3
:10052000BF92CF92DF92EF92FF920F931F93CF93E0
:10053000DF9386E8E82E84E0F82EC0E0D0E000E00B
:1005400010E09AE5C92E91E0D92E2AE3A22E24E0EC
:10055000B22EF70181917F018823A1F0DF93CF9321
:10056000DF92CF92BF92AF920E9453208AE394E031
:100570000E94B3130F5F1F4F0F900F900F900F90BB
:100580000F900F902196C430D10519F7C801DF9163
:10059000CF911F910F91FF90EF90DF90CF90BF9080
:1005A000AF900895EF92FF920F931F93CF93DF9335
:1005B0001F92CDB7DEB78C0169830E946B0188EE74
:1005C00093E09093AD038093AC036981662341F07F
:1005D0002CE92003C001219F900D11240E946A1470
:1005E0008CE790E00E94A31380E9E82EFF24F394A7
:1005F000C8010E94C61366E070E080E090E00E94AF
:10060000FE1181E0E81AF10899F784E893E09093ED
:10061000AD038093AC030F90DF91CF911F910F91A9
:10062000FF90EF9008951F920F920FB60F92112432
:100630002F933F934F935F936F937F938F939F93EA
:10064000AF93BF93EF93FF93E091D404F091D5045F
:10065000309709F451C0968DA685B785858591FFA1
:1006600004C09C91892329F447C09C91892309F0F7
:1006700043C0A389B4899C918589809589238C93F3
:10068000868997890197F1F7608D718DA685B78569
:10069000558538E020E0CB010197F1F7822F90E0FB
:1006A00095958795282F4C91452309F02068315066
:1006B00091F7868D81FD20958091D30490E001967D
:1006C0008F7399273091D204381749F0A091D30441
:1006D000B0E0AE56BB4F2C938093D30403C0868DFD
:1006E0008160868F828D938D0197F1F7A389B489FC
:1006F0009C918589892B8C93FF91EF91BF91AF914C
:100700009F918F917F916F915F914F913F912F9129
:100710000F900FBE0F901F9018955C9A089581114D
:100720000C948D035C9808952F923F924F925F92A4
:100730006F927F928F929F92AF92BF92CF92DF92F1
:10074000EF92FF920F931F93CF93DF93CDB7DEB756
:10075000CC56D1090FB6F894DEBF0FBECDBF66965A
:100760008FAF66970E946B016EE670E080E090E0CC
:100770000E94FE110E948D036AE070E080E090E02C
:100780000E94FE116DE775E0CE0101960E946E1584
:100790006DE671E0CE0101960E940115BC018FEC5F
:1007A00095E00E94C310CE0101960E94691564E68F
:1007B00070E080E090E00E94FE1180E00E948F03D4
:1007C00061E08FEF9FEF0E94D2028438934009F0DE
:1007D000DDC26EEA73E02F967FAF6EAF2F9780E099
:1007E00091E02B969FAF8EAF2B97A6E8B4E06F9663
:1007F000BFAFAEAF6F97E2E6F4E06B96FFAFEEAF40
:100800006B978F01CD0120E031E0FB014FEF53E00A
:1008100011921192D9014D935D939D01DC011D92BE
:10082000CD01D8011D928D01B3E0E63BFB0781F7B6
:100830008EEA90E00E94A313E0EDF7E06596FFAF2B
:10084000EEAF659781E090E00E94C6130EEA13E0D8
:1008500030E0E32E31E0F32ED12C8D2D0E94C21119
:10086000D7012D913C9111978217930710F48D9326
:100870009C93F801208131812817390710F4918366
:100880008083D394F2E0EF0EF11C0E5F1F4F24E043
:10089000D212E3CF65E070E080E090E00E94FE11AC
:1008A00065966EAD7FAD65976150710965967FAFB6
:1008B0006EAF6597672B31F684EA90E00E94A31330
:1008C0008091B5038F938091B4038F938091B3038C
:1008D0008F938091B2038F938091B1038F93809116
:1008E000B0038F938091AF038F938091AE038F936A
:1008F0008AE791E09F938F930AE314E01F930F938D
:100900000E945320C8010E94B313809107018F9366
:10091000809106018F93809105018F93809104014E
:100920008F93809103018F93809102018F93809127
:1009300001018F93809100018F938BE891E09F9349
:100940008F931F930F930E945320C8010E94B313EB
:100950001EE0A12E11E0B12E0FB6F894DEBF0FBE3F
:10096000CDBF00E0402E01E0502E8EEAC82E83E07D
:10097000D82EE12CF12C00E010E0332433949CE9D4
:10098000892E91E0992E2AE3622E24E0722ED60160
:100990008D919D916D01F201419151912F01D501F0
:1009A0002D913D915D01841B950B82179307C8F42F
:1009B000F801EA57FB4F3082BFEFEB1AFB0A1F9397
:1009C0000F939F928F927F926F920E9453208AE39F
:1009D00094E00E94B3130F900F900F900F900F9020
:1009E0000F900F5F1F4F0430110589F6E4E0EE16FB
:1009F000F10409F496C126EC33E02D963FAF2EAFFB
:100A00002D976EEB73E061967FAF6EAF6197A6EBAB
:100A1000CA2EA3E0DA2E590100E010E0BCEA2B2E2A
:100A2000B1E03B2E2B96AEADBFAD2B978D909D9038
:100A30002B96BFAFAEAF2B972F96EEADFFAD2F9796
:100A4000E190F1902F96FFAFEEAF2F97B40180E0C9
:100A500090E00E94BE1A2B013C01B7016819790988
:100A600080E090E00E94BE1A2DEC3CEC4CE05FE38D
:100A70000E941F1B9B01AC01C301B2010E94181C04
:100A80000E94F61CD5016D937D935D01AB014C5E18
:100A90005F4FF601419351936F019B01245131093E
:100AA0006196AEADBFAD61972D933D936196BFAF9B
:100AB000AEAF61973F932F935F934F937F936F9365
:100AC0001F930F933F922F92AAE3B4E0BF93AF938B
:100AD0000E9453208AE394E00E94B3130F5F1F4FDC
:100AE0000FB6F894DEBF0FBECDBF0430110509F07C
:100AF00099CF8AEC90E00E94A31388E0FE01F19662
:100B0000DF01282F1D922A95E9F73897DF011D9202
:100B10008A95E9F77C965F0100E010E0E5E09E2E03
:100B2000FAE07F2E66246394802EE12CF12C909EB7
:100B30006001919ED00C1124882D0E94C211F601F3
:100B4000EE0DFF1DEE0FFF1F21E030E02C0F3D1FCB
:100B5000E20FF31F918380833FEFE31AF30A65E00E
:100B6000E616F10449F7709EF001719EF00D112414
:100B700081E090E08C0F9D1FE80FF91F20853185E3
:100B80002D96AEADBFAD2D978D919D912D96BFAF9A
:100B9000AEAF2D972817390718F4F501108202C05F
:100BA000D5016C920F5F1F4FBFEFAB1ABB0A043029
:100BB000110509F0B9CF8AEB90E00E94A313C12C74
:100BC000D12C8FEF9FEF0E94C613C601049665E0FB
:100BD00070E00E94AC1D2D969FAF8EAF2D97FE0149
:100BE000EF5BFF4F7F019E012F5C3F4F61963FAF50
:100BF0002EAF6197BE01675D7F4F3B0146EB242E10
:100C000043E0342E4EEB53E066E8A62E64E0B62EA9
:100C1000430129012C5E3F4F2B963FAF2EAF2B9700
:100C200000E010E075E061E0802FAA964FAFAA9730
:100C3000AB965FAFAB97AD966FAFAD97AC967FAF0E
:100C4000AC970E94C211AC967FADAC97709FF0013B
:100C5000719FF00D11242D962EAD3FAD2D97E20F13
:100C6000F31FEE0FFF1FA1E0B0E0AC0FBD1FEA0FB6
:100C7000FB1F918380832AE0209FD001219FB00D2C
:100C8000112481E090E08C0F9D1FA80FB91F8D915A
:100C90009C91119712968D919C91139714968D911A
:100CA0009C91159716968D919C91179718968D91FA
:100CB0009C91199780819181F801EE0FFF1FA1E0AF
:100CC000B0E0AC0FBD1FEA0FFB1F91AF80AF2B96BA
:100CD000AEADBFAD2B978C91AA964FADAA97AB96B0
:100CE0005FADAB97AD966FADAD9720AD31AD8823BD
:100CF00061F0FA01808191818217930718F0D70182
:100D00001C929AC0F701608397C0D1018D919C918C
:100D10002817390718F0F70160837AC7D7011C92AA
:100D200077C783E691E00E94A3136EE670E080E04F
:100D300090E00E94FE110E948D036AE070E080E066
:100D400090E00E94FE116DE775E0CE0101960E94D1
:100D50006E1564E373E0CE0101960E940115BC019B
:100D60008FEC95E00E94C310CE0101960E94691598
:100D700064E670E080E090E00E94FE1180E00E9456
:100D80008F038CEC97EF0E946A1430C06EE670E01F
:100D900080E090E00E94FE110E948D036AE070E006
:100DA00080E090E00E94FE116DE775E0CE010196B3
:100DB0000E946E156CE373E0CE0101960E9401154E
:100DC000BC018FEC95E00E94C310CE0101960E94F9
:100DD000691564E670E080E090E00E94FE1180E01A
:100DE0000E948F0387E591E00E94A3130E945B019C
:100DF0000E945B0160E085E00E943A118FE491E07F
:100E00000E94A313C459DF4F0FB6F894DEBF0FBE84
:100E1000CDBFDF91CF911F910F91FF90EF90DF90A9
:100E2000CF90BF90AF909F908F907F906F905F908A
:100E30004F903F902F900895F701808181111DC040
:100E4000D5018C91811119C0F4018081918182308A
:100E5000910514F06C930DC0F801EE0FFF1FEE0F1B
:100E6000FF1FE80FF91FEE0FFF1FE65EFB4FD18259
:100E7000C0820196D4018D939C93F70181917F01EB
:100E80002B96AEADBFAD2B978D932B96BFAFAEAF6C
:100E90002B970F5F1F4FB2E04B0E511CE2E08E0EFE
:100EA000911CFFEFAF1ABF0A4E5F5F4F22E0220E88
:100EB000311C0430110509F0B7CE66963FAD669738
:100EC0003323C9F121966EAD7FAD21974DAD5EAD57
:100ED0002BAD3CAD89AD9AAD2596EFAD25971F9210
:100EE000EF932496EFAD24971F92EF932396EFADE7
:100EF00023971F92EF932296EFAD22971F92EF93C5
:100F00007F936F935F934F933F932F939F938F9311
:100F1000A7ECB1E0BF93AF938AE394E09F938F93E4
:100F20000E9453208AE394E00E94B3130FB6F89412
:100F3000DEBF0FBECDBF64E070E080E090E00E94B5
:100F4000FE113FEFC31AD30A60EDC61667E0D6065E
:100F500009F037CE86E894E08E010F5C1F4FDE016A
:100F6000999671E06E966FAD6E976C5F4D915D9145
:100F7000F801219131918F014217530711F0FC01C3
:100F8000708301966813F2CF2AEF33E02D963FAFBE
:100F90002EAF2D976AE174E02F967FAF6EAF2F973B
:100FA0007B01490100E010E055245394A3EEAA2EE2
:100FB000A1E0BA2EBAE3CB2EB4E0DB2E6196AEAD43
:100FC000BFAD61978D919D916196BFAFAEAF6197B7
:100FD000019729F0F30180819181019721F4F801B3
:100FE000EE59FB4F5082D40113968C9113978F9337
:100FF00012968C9112978F9311968C9111978F93D3
:101000008C918F93F70183818F9382818F9381815C
:101010008F9380818F931F930F93BF92AF92DF9234
:10102000CF920E9453208AE394E00E94B3130F5F93
:101030001F4FF8E08F0E911C28E0E20EF11C32E009
:10104000630E711C0FB6F894DEBF0FBECDBF043027
:10105000110509F0B3CF0E948F02049709F4A7C5C8
:101060008EEF90E00E94A31380E090E0A0E2B2E453
:1010700080938A0490938B04A0938C04B0938D0486
:1010800080E090E0A0EAB3E480938E0490938F0414
:10109000A0939004B093910482ED93E02B969FAFC0
:1010A0008EAF2B977AED872E73E0972EAEE1B1E0ED
:1010B0006796BFAFAEAF6797EAEEAE2EE3E0BE2E07
:1010C000E6E1F1E06D96FFAFEEAF6D9769961FAE6A
:1010D0001EAE699726E834E0A5963FAF2EAFA597E0
:1010E00061961FAE1EAE6197FAE32F2EF4E03F2EFD
:1010F00060961FAD609761960FAD6197A596AEADF6
:10110000BFADA5978D91A596BFAFAEAFA597811145
:10111000FDC26B96EEADFFAD6B97808181110BC167
:101120002F96AEADBFAD2F978D919C9111971296D2
:101130006D917C9113972D96EEADFFAD2D9720818B
:10114000318142815381681779072CF4CB01EE2459
:10115000E394F12C02C0E12CF12C281739070CF490
:101160009BC0481759071CF493E0E92EF12CFF921D
:10117000EF920F931F9382E092E09F938F933F92A1
:101180002F920E9453208AE394E00E94B313C70178
:1011900002970FB6F894DEBF0FBECDBF029708F4DA
:1011A00095C02D96AEADBFAD2D9712966D917C91E9
:1011B00013972F96EEADFFAD2F9740815181405F81
:1011C000574F461B570BD5014D935C932D96AEADF3
:1011D000BFAD2D97ED91FC912F96AEADBFAD2F9782
:1011E00012962D913C9113972E1B3F0BD501139610
:1011F0003C932E931297CA0196958795860F971F59
:1012000060E178E00E94981DD40111969C938E9322
:1012100036952795E20FF31F1396FC93EE931297E2
:101220006796EEADFFAD679720813181D4018D9136
:101230009C91821B930B60E178E00E94981DF40161
:101240009183808382819381821B930B60E178E09C
:101250000E94981D828393839F938F93D501139649
:101260008C9113978F9312968C9112978F93818103
:101270008F9380818F9311968C9111978F938C917E
:101280008F930F931F938EE092E09F938F933F92E3
:101290002F920E945320B7C0421753070CF464CF1B
:1012A0001F9282E08F930F931F9382E092E09F93AF
:1012B0008F933F922F920E9453208AE394E00E94E2
:1012C000B3130FB6F894DEBF0FBECDBF2D96AEADF3
:1012D000BFAD2D976D917C912F96EEADFFAD2F9701
:1012E00020813181261B370BD5012D933C932D9600
:1012F000EEADFFAD2D97428153812F96AEADBFADC0
:101300002F9712968D919C911397841B950BF50145
:101310009383828336952795260F371FD401119624
:101320003C932E9396958795840F951F13969C93C7
:101330008E93129775CF2F96EEADFFAD2F9720812C
:1013400031812D96AEADBFAD2D976D917C91261755
:101350003707A8F4A901405F574F461B570BF5010B
:1013600051834083CA0196958795860F971F60E148
:1013700078E00E94981DD4018D939C930CC0261B8D
:10138000370BF5013183208336952795260F371FBC
:10139000D4012D933C936D96EEADFFAD6D9780819A
:1013A0009181019761F4D4018D919C91885F9B4F4D
:1013B00060E178E00E94981DF40191838083D4015C
:1013C0008D919C916796EEADFFAD6797208131813D
:1013D000821B930B60E178E00E94981DD4018C93EE
:1013E00011969C939F938F93F50181818F938081B8
:1013F0008F930F931F938EE292E09F938F933F9270
:101400002F920E9453208AE394E00E94B3130FB6F8
:10141000F894DEBF0FBECDBF8BEE90E00E94A31309
:101420006B96AEADBFAD6B978C91811157C0F40137
:10143000C080D180612F702FC6010E94CC0188230B
:1014400091F00F931F9380E492E09F938F933F92CC
:101450002F920E9453208AE394E00E94B313D40198
:101460008D919C911FC0D4011296ED90FC90139722
:10147000612F702FC7010E94CC018823D1F00F93F8
:101480001F93A7E5B2E0BF93AF933F922F920E94C4
:1014900053208AE394E00E94B313D40112968D91F5
:1014A0009C9113972B96EEADFFAD2B979183808384
:1014B00045C0612F702FC6010E941402612F702F4A
:1014C000882331F0C7010E9414028111C4C3E1C313
:1014D000C7010E941402811108C4E6C3D401ED9033
:1014E000FC90C701885F9B4F60E178E00E94981DE7
:1014F0006C01612F702F0E941402882359F02B96E3
:10150000EEADFFAD2B97D182C0820F931F93A6ED56
:10151000B2E00AC02B96AEADBFAD2B97ED92FC9218
:101520000F931F93AAEEB2E0BF93AF933F922F9217
:101530000E9453208AE394E00E94B3130F900F900F
:101540000F900F900F900F908AED90E00E94A313E0
:101550002B96AEADBFAD2B9711968C9111978F93B3
:101560008C918F930F931F93ABEFB2E0BF93AF9328
:101570003F922F920E9453208AE394E00E94B3137B
:10158000612F702F2B96AEADBFAD2B978D919C9197
:101590000E9477016093CE037093CF038093D003B2
:1015A0009093D1030F931F93AAE0B3E0BF93AF933F
:1015B0003F922F920E9453206AE374E080EE94E001
:1015C0000E9451104091CE035091CF036091D003FF
:1015D0007091D10323E080EE94E00E949D1584E792
:1015E00093E00E94B3134090CE035090CF036090DD
:1015F000D0037090D1036996EEADFFAD6997EA58BC
:10160000FB4F4082518262827382C0908A04D090E4
:101610008B04E0908C04F0908D0460918E047091A6
:101620008F048091900490919104A3966CAF7DAF4C
:101630008EAF9FAFA39720E030E0A901C701B601AC
:101640000E941F1BA9966CAF7DAF8EAF9FAFA9976D
:1016500069960EAD1FAD69970A591B4F20E030E027
:1016600048E453E4C301B2010E941F1B2B013C015B
:1016700020E030E048E453E4C701B6010E941F1B9C
:101680009B01AC01C301B2010E94171CA9962CADAD
:101690003DAD4EAD5FADA9970E94181C2B013C01DA
:1016A00020E030E0A901A3966CAD7DAD8EAD9FAD7D
:1016B000A3970E941F1B9B01AC01C301B2010E94B2
:1016C000171CA9962CAD3DAD4EAD5FADA9970E94FC
:1016D000181C2B013C01A7019601A3966CAD7DADB2
:1016E0008EAD9FADA3970E94171C9B01AC01C30157
:1016F000B2010E94841CD8016D937D938D939C93BD
:1017000013970FB6F894DEBF0FBECDBF61962EAD16
:101710003FAD61972F5F3F4F61963FAF2EAF61970F
:101720002B966EAD7FAD2B976E5F7F4F2B967FAF65
:101730006EAF2B9769968EAD9FAD699704966996AB
:101740009FAF8EAF699794E0890E911C6B96AEADFA
:10175000BFAD6B9711966B96BFAFAEAF6B976796A9
:10176000EEADFFAD679732966796FFAFEEAF679726
:10177000F4E0AF0EB11C6D962EAD3FAD6D972E5FB0
:101780003F4F6D963FAF2EAF6D972D966EAD7FADEF
:101790002D97685F7F4F2D967FAF6EAF2D972F9659
:1017A0008EAD9FAD2F9708962F969FAF8EAF2F9738
:1017B0006196AEADBFAD6197149709F099CC8E01DB
:1017C000075D1F4F88E0F80111928A95E9F780E2E2
:1017D00091E00E94A31340917604509177046091A8
:1017E00078047091790422E030E080EE94E00E9469
:1017F000AF1040917A0450917B0460917C04709109
:101800007D0422E030E080EE94E00E94AF10409131
:101810007E0450917F04609180047091810422E0E5
:1018200030E080EE94E00E94AF104091820450912D
:101830008304609184047091850422E030E080EE9E
:1018400094E00E94AF108DE091E00E94A3132D96CA
:101850001FAF0EAF2D97380126E734E02F963FAF2C
:101860002EAF2F97212C312C33E1432E33E0532E12
:101870002F96AEADBFAD2F97CD90DD90ED90FD9042
:101880002F96BFAFAEAF2F9720E030E040E051E49D
:10189000C701B6010E94181C63966CAF7DAF8EAF76
:1018A0009FAF6397E6E7F4E02B96FFAFEEAF2B9781
:1018B0002B96AEADBFAD2B978D909D90AD90BD900A
:1018C0002B96BFAFAEAF2B9763962CAD3DAD4EAD13
:1018D0005FAD6397C501B4010E94B91A87FF16C0B6
:1018E00020E030E040E051E4C701B6010E94171C3F
:1018F0009B01AC01C501B4010E948E1D181634F481
:10190000F301808191810196918380832B962EAD86
:101910003FAD2B972658344059F6D3018C91119640
:101920009C91B2E06B0E711C9F938F933F922F920C
:101930005F924F92AAE3B4E0BF93AF930E9453200B
:101940008AE394E00E94B313FFEF2F1A3F0A0FB609
:10195000F894DEBF0FBECDBF34E02316310409F08A
:1019600087CFCE018F96F80141915191208131812D
:101970004217530709F452C029A53AA58BA59CA587
:101980008217930724F49C0181E090E002C080E07C
:1019900090E04DA55EA5421753071CF49A0182E022
:1019A00090E04FA558A94217530714F483E090E044
:1019B000FC01EA57FB4F21E02083880F991FFE01AD
:1019C000E80FF91F21A532A5CE01C196E6E8F4E0A3
:1019D00041E02D96AEADBFAD2D976D917D912D96C9
:1019E000BFAFAEAF2D976217730709F440833196EE
:1019F0002D966EAD7FAD2D976817790751F70E9430
:101A00008F02049709F4B0C00E945B01E12CF12C15
:101A1000412C512C32015301420105C0E817F9074E
:101A200009F0A2CFECCF6F96AEADBFAD6F978D91A1
:101A30006F96BFAFAEAF6F97811123C06596EEADC5
:101A4000FFAD6597EA58FB4F208131814281538178
:101A5000C501B4010E94181C4B015C016596EEADF6
:101A6000FFAD6597EA59FB4F208131814281538157
:101A7000C301B2010E94181C2B013C01BFEFEB1AFD
:101A8000FB0A6596EEADFFAD659734966596FFAFA0
:101A9000EEAF6597709739F6B701FF0C880B990B7D
:101AA0000E94C01A6B017C019B01AC01C301B20111
:101AB0000E94841C2B013C01A7019601C501B401C1
:101AC0000E94841C6B017C0181E491E00E948213DE
:101AD00024E030E0B301A20180EE94E00E94AF1058
:101AE00082E391E00E94821324E030E0B701A60176
:101AF00080EE94E00E94AF106EE670E080E090E02F
:101B00000E94FE110E948D036AE070E080E090E088
:101B10000E94FE116DE775E0C8010E946E156DE12F
:101B200073E0C8010E940115DC0114964D915C918F
:101B300015976D917C918FEC95E00E949C0EC801E9
:101B40000E94691522E030E0B301A2018FEC95E01C
:101B50000E94AF1064E670E080E090E00E94FE1109
:101B600080E00E948F0344C980EA91E00E94A313A1
:101B70006EE670E080E090E00E94FE110E948D030E
:101B80006AE070E080E090E00E94FE116DE775E091
:101B9000C8010E946E1564E273E0C8010E9401153D
:101BA000BC018FEC95E00E94C310C80125C082E8FB
:101BB00091E00E94A3136EE670E080E090E00E9446
:101BC000FE110E948D036AE070E080E090E00E94C8
:101BD000FE116DE775E0CE0189960E946E156CE2EC
:101BE00073E0CE0189960E940115BC018FEC95E04F
:101BF0000E94C310CE0189960E94691564E670E0C8
:101C000080E090E00E94FE1180E00E948F03EEC809
:101C1000D7018C91882309F430C9F50180818111A5
:101C20002CC9D2018D919C918230910514F0608372
:101C30000DC0F801EE0FFF1FEE0FFF1FE80FF91F99
:101C4000EE0FFF1FE650FC4FD182C0820196F201D9
:101C50009183808312C9F501208131818281938132
:101C60002817390758F42B96AEADBFAD2B97CD9200
:101C7000DC920F931F93AEE6B2E056CC2B96AEAD3E
:101C8000BFAD2B97ED92FC920F931F93A8E8B2E0A3
:101C90004BCC2B96AEADBFAD2B97CD92DC920F9374
:101CA0001F93A4E4B3E040CCD5012D913C91119752
:101CB00012968D919C9113972817390758F42B96FB
:101CC000AEADBFAD2B97CD92DC920F931F93A2EADE
:101CD000B2E02ACC2B96AEADBFAD2B97ED92FC9225
:101CE0000F931F93ACEBB2E01FCC2B96EEADFFAD84
:101CF0002B97F182E0820F931F93ABE5B3E014CCF6
:101D00004DEC55E068EA75E080E090E00E94921AA0
:101D1000009771F0FC018081813311F481E003C0F0
:101D2000803319F480E00C94940386E990E002C0BB
:101D300089E890E00C94A313CF92DF92EF92FF9288
:101D40000F931F93CF93DF936C017A018B01C0E057
:101D5000D0E0CE15DF0589F0D8016D918D01D60157
:101D6000ED91FC910190F081E02DC6010995892B40
:101D700011F47E0102C02196ECCFC701DF91CF9113
:101D80001F910F91FF90EF90DF90CF900895FC018D
:101D9000538D448D252F30E0842F90E0821B930BD0
:101DA000541710F0CF96089501970895FC01918D76
:101DB000828D981761F0828DDF01A80FB11D5D96AD
:101DC0008C91928D9F5F9F73928F90E008958FEF1B
:101DD0009FEF0895FC01918D828D981731F0828DCF
:101DE000E80FF11D858D90E008958FEF9FEF089526
:101DF000FC01918D228D892F90E0805C9F4F821B8A
:101E000091098F739927089580EE94E00E94F80E4F
:101E100021E0892B09F420E0822F0895FC01848DB4
:101E2000DF01A80FB11DA35ABF4F2C91848D90E004
:101E300001968F739927848FA689B7892C93A089DF
:101E4000B1898C9180648C93938D848D981306C096
:101E50000288F389E02D80818F7D80830895EF9241
:101E6000FF920F931F93CF93DF93EC0181E0888F54
:101E70009B8D8C8D981305C0E889F989808185FD3B
:101E800024C0F62E0B8D10E00F5F1F4F0F7311272C
:101E9000E02E8C8DE8120CC00FB607FCFACFE88953
:101EA000F989808185FFF5CFCE010E940E0FF1CF19
:101EB0008B8DFE01E80FF11DE35AFF4FF0820B8F6F
:101EC000EA89FB898081806207C0EE89FF8960838F
:101ED000E889F98980818064808381E090E0DF91E6
:101EE000CF911F910F91FF90EF900895CF93DF93C3
:101EF000EC01888D8823C9F0EA89FB89808185FD02
:101F000005C0A889B9898C9186FD0FC00FB607FC62
:101F1000F5CF808185FFF2CFA889B9898C9185FFA3
:101F2000EDCFCE010E940E0FE7CFDF91CF91089544
:101F300080E090E0892B29F00E94040F81110C941D
:101F4000000008952091D4043091D5042817390752
:101F500071F49091D2048091D304981741F0E091EC
:101F6000D204F0E0EE56FB4F808190E008958FEFB1
:101F70009FEF089508951F93CF93DF93DC015C9644
:101F80002D913C915D972115310539F481E090E068
:101F900013969C938E9312973DC05196ED91FC91B0
:101FA000529750969C915097892F80951FB75E96B7
:101FB0004C915E9741FB772770F941FD6095F8944D
:101FC0004081772311F0492B01C048234083E90168
:101FD0002197F1F748E0508160FF02C0592B01C002
:101FE00058235083E9012197F1F76695415099F7FD
:101FF000772321F090818923808303C08081982BEF
:1020000090831FBF5C968D919C915D970197F1F72E
:1020100021E030E0C901DF91CF911F910895209117
:10202000D4043091D5042817390771F48091D30472
:102030002091D20490E0805C9F4F821B910960E464
:1020400070E00E94AC1D089580E090E0089520911A
:10205000D4043091D50428173907B9F49091D204EB
:102060008091D304981789F0E091D204F0E0EE5605
:10207000FB4F80812091D20430E02F5F3F4F2F73C0
:1020800033272093D20490E008958FEF9FEF0895B7
:102090000E94FE1FDC01ED91FC910190F081E02D8A
:1020A00009946115710579F0FB0101900020E9F7B1
:1020B0003197AF01461B570BDC01ED91FC9102807B
:1020C000F381E02D099480E090E008954F925F92B3
:1020D0006F927F92EF92FF920F931F93CF93DF93B4
:1020E000CDB7DEB7A1970FB6F894DEBF0FBECDBF58
:1020F0007C01FA01CB0119A2223008F42AE08E01FA
:102100000F5D1F4F422E512C612C712CBF01A3017A
:1021100092010E94C01DF901CA01015011096A30E3
:1021200014F4605D01C0695CD8016C93232B242BEF
:10213000252B61F7B801C7010E945110A1960FB677
:10214000F894DEBF0FBECDBFDF91CF911F910F91ED
:10215000FF90EF907F906F905F904F9008950F9356
:102160001F93CF93DF93EC010E949D158C0162E7D2
:1021700073E0CE010E945110800F911FDF91CF912B
:102180001F910F9108950F931F93CF93DF93EC014D
:10219000E881F981DB0114964D915C9115976D9161
:1021A0007C910280F381E02D09958C0162E773E058
:1021B000CE010E945110800F911FDF91CF911F918E
:1021C0000F9108951F920F920FB60F9211242F9323
:1021D0003F934F935F936F937F938F939F93AF93AF
:1021E000BF93EF93FF9380EE94E00E940E0FFF9158
:1021F000EF91BF91AF919F918F917F916F915F917F
:102200004F913F912F910F900FBE0F901F901895F7
:102210001F920F920FB60F9211242F938F939F93BB
:10222000EF93FF93E091F004F091F1048081E0914D
:10223000F604F091F70482FD12C090818091F904B8
:102240008F5F8F732091FA04821751F0E091F904A7
:10225000F0E0E052FB4F958F8093F90401C080813C
:10226000FF91EF919F918F912F910F900FBE0F9043
:102270001F90189590E0FC01E153FE4F3491FC0152
:10228000EE5BFD4F2491FC01E25DFD4FE491EE23F6
:1022900009F43BC0332339F1333091F038F4313055
:1022A000A9F0323001F584B58F7D12C0373091F03E
:1022B0003830A1F03430B9F4809180008F7D03C0B4
:1022C000809180008F77809380000DC084B58F77D8
:1022D00084BD09C08091B0008F7703C08091B000A9
:1022E0008F7D8093B000F0E0EE0FFF1FE65EFD4FA4
:1022F000A591B4918FB7F894EC91611103C020952A
:102300002E2301C02E2B2C938FBF0895CF93DF93E4
:1023100090E0FC01EE5BFD4F2491FC01E25DFD4F7E
:102320008491882361F190E0880F991FFC01EB53A1
:10233000FE4FC591D491FC01E65EFD4FA591B4918D
:10234000611109C09FB7F894888120958223888302
:10235000EC912E230BC0623061F49FB7F894388162
:10236000822F809583238883EC912E2B2C939FBF03
:1023700006C08FB7F894E8812E2B28838FBFDF919A
:10238000CF9108958E3008F08E50877080648093CE
:102390007C0080917A00806480937A0080917A003A
:1023A00086FDFCCF809178002091790090E0922BFF
:1023B00008953FB7F8948091DB049091DC04A091DC
:1023C000DD04B091DE0426B5A89B05C02F3F19F0AF
:1023D0000196A11DB11D3FBFBA2FA92F982F8827A5
:1023E000820F911DA11DB11DBC01CD0142E0660F00
:1023F000771F881F991F4A95D1F708958F929F9252
:10240000AF92BF92CF92DF92EF92FF926B017C016D
:102410000E94D9114B015C01C114D104E104F10403
:10242000F1F00E94D911DC01CB0188199909AA09A0
:10243000BB09883E9340A105B10570F321E0C21AA3
:10244000D108E108F10888EE880E83E0981EA11CEF
:10245000B11CC114D104E104F10419F7DDCFFF90E0
:10246000EF90DF90CF90BF90AF909F908F900895A6
:102470001F920F920FB60F9211242F933F938F93B9
:102480009F93AF93BF938091D7049091D804A0916C
:10249000D904B091DA043091D60423E0230F2D370C
:1024A00020F40196A11DB11D05C026E8230F029658
:1024B000A11DB11D2093D6048093D7049093D80416
:1024C000A093D904B093DA048091DB049091DC04EA
:1024D000A091DD04B091DE040196A11DB11D809391
:1024E000DB049093DC04A093DD04B093DE04BF9181
:1024F000AF919F918F913F912F910F900FBE0F90B1
:102500001F901895CF93DF93EC0180918B059091EC
:102510008C05029709F5C130D10569F024F42097A4
:10252000D9F460E009C0C230D10561F0C330D105F3
:1025300099F460E008C061E080918F050E943A1133
:1025400061E006C061E080918F050E943A1160E071
:10255000809191050E943A1180918B0590918C0594
:10256000049709F03FC0C130D105B9F04CF4209771
:10257000C9F561E080918F050E943A1160E013C0B7
:10258000C230D105D9F0C330D10561F561E0809149
:102590008F050E943A1160E017C060E080918F05BE
:1025A0000E943A1161E0809191050E943A1161E028
:1025B000809193050E943A1160E010C060E0809124
:1025C0008F050E943A1161E0809191050E943A11B5
:1025D00060E0809193050E943A1161E08091950539
:1025E0000E943A1180918B0590918C05059709F016
:1025F00086C0CA30D10508F082C0FE01EC5CFF4FF6
:102600000C94011E60E080918F050E943A1161E0F8
:1026100061C060E080918F050E943A1161E0809175
:1026200091050E943A1160E05AC060E080918F05E8
:102630000E943A1161E0809191050E943A1160E098
:10264000809193050E943A1161E04EC060E001C0A4
:1026500061E080918F050E943A1161E006C061E05F
:1026600080918F050E943A1160E0809191050E944F
:102670003A1160E00BC061E080918F050E943A1131
:1026800060E0809191050E943A1161E0809193058C
:102690000E943A1161E010C061E080918F050E94B4
:1026A0003A1160E0809191050E943A1161E08091B9
:1026B00093050E943A1160E0809195050E943A11BD
:1026C00060E017C061E001C060E080918F050E946A
:1026D0003A1160E0809191050E943A1161E0809189
:1026E00093050E943A1160E0809195050E943A118D
:1026F00061E080919705DF91CF910C943A11DF91C1
:10270000CF9108950F931F93CF93DF938C01C0E077
:10271000D0E0F801EC0FFD1F6491662371F0E091A9
:10272000E004F091E1040190F081E02D80EE94E06E
:102730000995892B11F02196ECCFCE01DF91CF9135
:102740001F910F910895CF93DF930E948213EC01A4
:1027500062E773E080EE94E00E9451108C0F9D1FA1
:10276000DF91CF910895CF93DF93BC0180EE94E089
:102770000E945110EC0162E773E080EE94E00E9449
:1027800051108C0F9D1FDF91CF9108954F925F9252
:102790006F927F928F929F92AF92BF92EF92FF9231
:1027A0000F931F93CF93DF93EC0197FF04C0CC27C7
:1027B000DD27C81BD90B181619063CF481E090E000
:1027C000909384058093830506C0892B21F0109295
:1027D00084051092830504E010E08AE0E82EF12CD5
:1027E000209709F468C00E94D911809099059090B3
:1027F0009A05A0909B05B0909C052B013C014818C0
:1028000059086A087B088090850590908605A090FD
:102810008705B0908805481459046A047B0400F3C6
:102820006093990570939A0580939B0590939C05FE
:10283000209183053091840580918D0590918E05BE
:102840002130310589F4019690938E0580938D0592
:102850002091890530918A0582179307C1F410925F
:102860008E0510928D0513C0892B41F48091890546
:1028700090918A0590938E0580938D0580918D05AA
:1028800090918E05019790938E0580938D052197E9
:1028900020918B0530918C0580918D0590918E054E
:1028A0002530310511F4B70101C0B8010E94AC1DFB
:1028B0000E94821295CFDF91CF911F910F91FF90CF
:1028C000EF90BF90AF909F908F907F906F905F90B0
:1028D0004F900895CF92DF92EF92FF92CF93DF93C4
:1028E000EC018BE092E00E9482136E010D2E000C31
:1028F000EE08FF08F7FE0EC06DE280EE94E00E9445
:102900004A1044275527BA014C195D096E097F0901
:102910002AE003C02AE0B701A60180EE94E00E94FD
:10292000661062E773E080EE94E00E9451102091FF
:10293000890530918A05032E000C440B550B60E08D
:1029400077E883E993E00E94E21DCA01B9012AE019
:1029500030E040E050E00E94E21D20938505309376
:1029600086054093870550938805CE01DF91CF916E
:10297000FF90EF90DF90CF900C94C613CF93DF932E
:102980002091A1053091A205232B79F0FC01C09183
:102990009D05D0919E0560817181CE010E943920F4
:1029A000009719F08C1B9D0B02C08FEF9FEFDF91FA
:1029B000CF9108950F931F93CF93DF93EC018881FC
:1029C0009981009729F02A813B812617370788F4DF
:1029D0008B016F5F7F4F0E94341F009761F09983D6
:1029E00088831B830A832C813D81232B11F4FC01F6
:1029F000108281E001C080E0DF91CF911F910F91A3
:102A00000895EF92FF920F931F93CF93DF93EC0102
:102A10007B0161157105F1F0FB0101900020E9F7E0
:102A20003197E61BF70B0C811D813097F9F00E0FE3
:102A30001F1FB8010E94DA14882361F028813981B0
:102A40008C819D81B701820F931F0E9415201D83E9
:102A50000C830CC088819981009711F00E949C1E04
:102A6000198218821D821C821B821A82CE01DF917C
:102A7000CF911F910F91FF90EF900895EF92FF92E9
:102A80000F931F93CF93DF93EC017B018A01BA016F
:102A90000E94DA142881398181110DC02115310578
:102AA00019F0C9010E949C1E198218821D821C8285
:102AB0001B821A8206C01D830C83B701C9010E94C4
:102AC0001520CE01DF91CF911F910F91FF90EF90D4
:102AD0000895FC01808191810C949C1EFB01DC0116
:102AE00011961C921E9213961C921E921297159686
:102AF0001C921E9214978617970749F06081718186
:102B00006115710521F0448155810C943E1508959D
:102B1000FC011182108213821282158214826115C7
:102B2000710551F0FB0101900020E9F73197AF01E9
:102B3000461B570B0C943E1508954F925F926F926F
:102B40007F928F929F92AF92BF92CF92DF92EF923D
:102B5000FF92CF93DF93EC016A017B01B22E9A01C1
:102B6000AB01C701B6010E94931D882319F060EAEA
:102B700073E027C026013701E89477F82FEF3FEF85
:102B80004FE75FE7C301B2010E94931D81110DC0A1
:102B90002FEF3FEF4FE75FE7C301B2010E94B91A81
:102BA00018161CF464EA73E00CC02FEF3FEF4FE7F8
:102BB0005FE4C701B6010E948E1D18169CF468EAF6
:102BC00073E0CE01DF91CF91FF90EF90DF90CF9037
:102BD000BF90AF909F908F907F906F905F904F903D
:102BE0000C9451102FEF3FEF4FE75FECC701B60198
:102BF0000E94B91A87FDE3CF20E030E0A901C701A8
:102C0000B6010E94B91A87FF0AC06DE2CE010E9488
:102C10004A104C01F7FAF094F7F8F09402C0812CB6
:102C2000912CA12C60E070E080E09FE3AB1441F0B8
:102C300020E030E040E251E40E94841CA394F6CFEF
:102C40009B01AC01C701B6010E94181C2B013C017D
:102C50000E94FD1C6B017C010E94BE1A9B01AC010D
:102C6000C301B2010E94171C2B013C012AE0B701ED
:102C7000A601CE010E9466107C01E80CF91CBB2065
:102C800031F06EE2CE010E944A10E80EF91EDB2CF4
:102C9000DD2029F120E030E040E251E4C301B2013F
:102CA0000E941F1B2B013C010E94FD1C4B01A12C0B
:102CB000B12C2AE0B501A401CE010E946610E80EF5
:102CC000F91EC501B4010E94BE1A9B01AC01C301EB
:102CD000B2010E94171C2B013C01DA94D9CFC70125
:102CE000DF91CF91FF90EF90DF90CF90BF90AF90AA
:102CF0009F908F907F906F905F904F9008958DE799
:102D000095E00E9469158DE995E00E9469158CE4B3
:102D100091E09093D0058093CF058091D404909159
:102D2000D5048F5C954071F4E091E205F091E305E4
:102D300090818091E4058095892380831092D50449
:102D40001092D4040895CF93DF9300D000D000D028
:102D5000CDB7DEB7789484B5826084BD84B58160D8
:102D600084BD85B5826085BD85B5816085BD809156
:102D70006E00816080936E001092810080918100CE
:102D800082608093810080918100816080938100C6
:102D9000809180008160809380008091B100846088
:102DA0008093B1008091B00081608093B0008091E9
:102DB0007A00846080937A0080917A0082608093A8
:102DC0007A0080917A00816080937A0080917A0005
:102DD000806880937A001092C100E091F004F09135
:102DE000F10482E08083E091EC04F091ED04108224
:102DF000E091EE04F091EF0487E680831092F804EE
:102E0000E091F404F091F50486E08083E091F2040F
:102E1000F091F304808180618083E091F204F0916D
:102E2000F304808188608083E091F204F091F304E0
:102E3000808180688083E091F204F091F3048081C6
:102E40008F7D80831092EA051092E9051092E805C3
:102E50001092E7051092E6051092E5058DE991E0E4
:102E60009093EC058093EB059091DB05963108F08B
:102E700057C02DEB30E03093E6052093E5052BE9B4
:102E800031E03093E8052093E7052CE231E0309300
:102E9000EA052093E90520916800983050F031E070
:102EA0009E3008F430E081E001C0880F3A95EAF7DF
:102EB00001C084E0822B80936800983038F09E3007
:102EC00040F0963148F020E030E008C02DE630E0D8
:102ED00005C02BE630E002C02CE630E03093E3057D
:102EE0002093E205983030F481E001C0880F9A9574
:102EF000EAF70EC0292F30E09E3018F4285031092F
:102F000002C02E50310981E001C0880F2A95EAF7EE
:102F10008093E4058091EB059091EC050197F1F722
:102F20008091E9059091EA05892B49F1E091D4045B
:102F3000F091D50425E0EF3CF20709F1309739F024
:102F4000A389B4899C918589809589238C938091EC
:102F5000ED058E7F8093ED051092D3041092D2047C
:102F60008FEC95E09093D5048093D404E091E20532
:102F7000F091E30590818091E405892B808380E0C6
:102F80000E948F0361E085E00E94861161E084E089
:102F90000E94861184EF91E00E94A3136DE775E013
:102FA00080EE94E00E94C3106EE670E080E090E056
:102FB0000E94FE110E948D036AE070E080E090E0C4
:102FC0000E94FE116DE775E0CE0101960E946E151C
:102FD00065E773E0CE0101960E940115BC018FECFC
:102FE00095E00E94C310CE0101960E94691564E627
:102FF00070E080E090E00E94FE1180E00E948F036C
:1030000083EE91E00E94A3138091A50590E00196C4
:103010002BE0289FB001299F700D11248091A305FA
:103020009091A4050E94341F9093A4058093A3055A
:10303000F090A5058C013BE0F39E000D111D1124BD
:1030400048E050E06CE773E0C8010E942A2080E865
:103050009EE0D8011A969C938E931997F394F09260
:10306000A50583E791E09093A7058093A605FF242B
:10307000F39480EE94E00E94F80E181619060CF0F6
:103080008BC080EE94E00E94D60E182F8091AA0586
:1030900018133AC04DEC55E068EA75E08BEA95E00C
:1030A0000E94921A6C01892B51F1A090A505B12CB8
:1030B0000091A3051091A405812C912C8A149B04E6
:1030C000B4F4380148E050E0B801C6010E941C2069
:1030D000055F1F4F892B39F4D3011996ED91FC91AF
:1030E0001A9709950CC0BFEF8B1A9B0AE7CFE091A6
:1030F000A605F091A705309711F0C6010995109229
:10310000AB051092CC05B5CF812F012E000C990B89
:103110000E940520892B09F4ACCFE091CC05E03268
:1031200008F0A7CF91E09E0F9093CC05F0E0ED550D
:10313000FA4F1087E92FF0E0ED55FA4F108699CF3E
:103140008FEC95E00E942710D82E89831A82009177
:10315000A1051091A2050F5F1F4FB8018DE995E001
:103160000E94DA14882399F020919D0530919E05E4
:103170008091A1059091A205BE016F5F7F4F820FE4
:10318000931F0E9415201093A2050093A105EAE069
:10319000DE1202C0F092DF048FEC95E00E940F1067
:1031A000892B71F68091DF04882309F49DC06DE9B5
:1031B00075E080EE94E00E94C3106DE775E0CE01EB
:1031C00001960E946E1561E873E0CE0101960E949F
:1031D00001152091A1053091A205232B89F00091C2
:1031E0009D0510919E05DC016D917C91C8010E94A6
:1031F0003920009729F0FC01E01BF10B8F0102C080
:103200000FEF1FEFCE0101960E9469150F3F1F4F70
:1032100021F080E00E9494035DC068E873E0CE0175
:1032200001960E948815CE0101960E94BE148C0161
:10323000CE0101960E9469150F3F1F4F99F16EE66E
:1032400070E080E090E00E94FE110E948D036AE031
:1032500070E080E090E00E94FE116DE775E0CE0125
:1032600001960E946E156DE671E0CE0101960E94F6
:103270000115DC0114964D915C9115976D917C912F
:103280008FEC95E00E949C0ECE0101960E9469157C
:1032900064E670E080E090E00E94FE1180E00E9411
:1032A0008F0318C061E973E0CE0101960E94881572
:1032B000CE0101960E94BE148C01CE0101960E949F
:1032C00069150F3F1F4F31F06EE670E080E090E02F
:1032D0000E94FE1140E050E064E773E08DE995E064
:1032E0000E943E151092DF040E94980FC2CE1092E9
:1032F000E3041092E20488EE93E0A0E0B0E0809353
:10330000E4049093E504A093E604B093E7042AE371
:1033100031E03093E1042093E00425EC30E0309379
:10332000ED042093EC0424EC30E03093EF04209380
:10333000EE0420EC30E03093F1042093F00421EC13
:1033400030E03093F3042093F20422EC30E0309329
:10335000F5042093F40426EC30E03093F704209336
:10336000F6041092F9041092FA041092FB041092E1
:10337000FC041092D2051092D1058093D30590934E
:10338000D405A093D505B093D6058CE491E0909335
:10339000D0058093CF051092E6051092E5051092B6
:1033A000E8051092E7051092EA051092E9051092DF
:1033B000EC051092EB056091ED056E7F6D7F6093DB
:1033C000ED056695617081E068278BE00E943A11F7
:1033D00061E08BE00E948611EDE4F2E0E491E0937D
:1033E000DF05E9E3F2E0E491F0E0EE0FFF1FE65EB7
:1033F000FD4F859194919093E1058093E00560E005
:103400008AE00E9486118091ED0581FD04C061E093
:103410008AE00E943A118AE08093DB05ECE4F2E056
:10342000E491E093DC05E8E3F2E0E491F0E0EE0FF4
:10343000FF1FEC5DFD4F259134913093DE05209305
:10344000DD051092A4051092A3051092A505109217
:10345000A7051092A6058093AA051092CE0510929A
:10346000CD0561E173E088EA95E00E941520109295
:10347000AB051092CC0564E773E08DE995E00E94FE
:10348000881510928E0510928D0510928405109269
:1034900083051092990510929A0510929B0510923F
:1034A0009C0580E198E090938A058093890586E0E9
:1034B00090E09093900580938F0588E090E0909342
:1034C00092058093910587E090E090939405809316
:1034D000930589E090E0909396058093950561E0CF
:1034E00086E00E94861161E0809191050E9486111C
:1034F00061E0809193050E94861161E080919505BD
:103500000E948611109298051092970584E090E031
:1035100090938C0580938B056BE973E08DE795E0C4
:103520000C948815FA01A191B081009719F41097B5
:10353000E1F0CD01DC01CD010D90002011F4C001BE
:1035400013C0FB012191222319F02015D9F7F3CFE5
:10355000FB012191201519F41E92119606C0222319
:10356000C1F70D900020A1F7D001FA01A193B0831B
:1035700008950E94FB1A08F481E00895E89409C0B8
:1035800097FB3EF490958095709561957F4F8F4F96
:103590009F4F9923A9F0F92F96E9BB279395F695AC
:1035A000879577956795B795F111F8CFFAF4BB0F2A
:1035B00011F460FF1BC06F5F7F4F8F4F9F4F16C08E
:1035C000882311F096E911C0772321F09EE8872F18
:1035D000762F05C0662371F096E8862F70E060E0D4
:1035E0002AF09A95660F771F881FDAF7880F96954D
:1035F000879597F90895990F0008550FAA0BE0E8F1
:10360000FEEF16161706E807F907C0F012161306A4
:10361000E407F50798F0621B730B840B950B39F4E4
:103620000A2661F0232B242B252B21F408950A264A
:1036300009F4A140A6958FEF811D811D08950E9478
:10364000321B0C94A61B0E94981B38F00E949F1BF3
:1036500020F0952311F00C948F1B0C94951B1124D2
:103660000C94DA1B0E94B71B70F3959FC1F3950F62
:1036700050E0551F629FF001729FBB27F00DB11DF6
:10368000639FAA27F00DB11DAA1F649F6627B00D86
:10369000A11D661F829F2227B00DA11D621F739F6F
:1036A000B00DA11D621F839FA00D611D221F749F7D
:1036B0003327A00D611D231F849F600D211D822FC4
:1036C000762F6A2F11249F5750409AF0F1F08823EB
:1036D0004AF0EE0FFF1FBB1F661F771F881F915018
:1036E0005040A9F79E3F510580F00C948F1B0C941D
:1036F000DA1B5F3FE4F3983ED4F3869577956795A0
:10370000B795F795E7959F5FC1F7FE2B880F911D41
:103710009695879597F9089599278827089597F999
:103720009F6780E870E060E008959FEF80EC089567
:1037300000240A9416161706180609060895002490
:103740000A9412161306140605060895092E03940A
:10375000000C11F4882352F0BB0F40F4BF2B11F47E
:1037600060FF04C06F5F7F4F8F4F9F4F089557FDDD
:103770009058440F551F59F05F3F71F04795880FDF
:1037800097FB991F61F09F3F79F087950895121676
:1037900013061406551FF2CF4695F1DF08C0161622
:1037A00017061806991FF1CF8695710561050894D3
:1037B0000895E894BB2766277727CB0197F90895EA
:1037C0002F923F924F925F926F927F928F929F9231
:1037D000AF92BF92CF92DF92EF92FF920F931F931F
:1037E000CF93DF93CDB7DEB7CA1BDB0B0FB6F894D0
:1037F000DEBF0FBECDBF09942A88398848885F8410
:103800006E847D848C849B84AA84B984C884DF8080
:10381000EE80FD800C811B81AA81B981CE0FD11D64
:103820000FB6F894DEBF0FBECDBFED01089550581E
:10383000BB27AA270E942F1C0C94A61B0E94981B32
:1038400038F00E949F1B20F039F49F3F19F426F4B2
:103850000C94951B0EF4E095E7FB0C948F1BE92F5D
:103860000E94B71B58F3BA176207730784079507BE
:1038700020F079F4A6F50C94D91B0EF4E0950B2EEC
:10388000BA2FA02D0B01B90190010C01CA01A001B2
:103890001124FF27591B99F0593F50F4503E68F10D
:1038A0001A16F040A22F232F342F4427585FF3CF4E
:1038B000469537952795A795F0405395C9F77EF41F
:1038C0001F16BA0B620B730B840BBAF09150A1F068
:1038D000FF0FBB1F661F771F881FC2F70EC0BA0FEE
:1038E000621F731F841F48F4879577956795B79576
:1038F000F7959E3F08F0B0CF9395880F08F0992771
:10390000EE0F9795879508950E94981C0C94A61B1E
:103910000E949F1B58F00E94981B40F029F45F3FC3
:1039200029F00C948F1B51110C94DA1B0C94951BED
:103930000E94B71B68F39923B1F3552391F3951BAC
:10394000550BBB27AA2762177307840738F09F5FC0
:103950005F4F220F331F441FAA1FA9F335D00E2E2D
:103960003AF0E0E832D091505040E695001CCAF79A
:103970002BD0FE2F29D0660F771F881FBB1F26175D
:1039800037074807AB07B0E809F0BB0B802DBF0134
:10399000FF2793585F4F3AF09E3F510578F00C9403
:1039A0008F1B0C94DA1B5F3FE4F3983ED4F38695AB
:1039B00077956795B795F7959F5FC9F7880F911D24
:1039C0009695879597F90895E1E0660F771F881F10
:1039D000BB1F621773078407BA0720F0621B730BC3
:1039E000840BBA0BEE1F88F7E09508950E94FD1C2A
:1039F0006894B1110C94DA1B08950E94BF1B88F0E3
:103A00009F5798F0B92F9927B751B0F0E1F0660FA2
:103A1000771F881F991F1AF0BA95C9F714C0B130E3
:103A200091F00E94D91BB1E008950C94D91B672F27
:103A3000782F8827B85F39F0B93FCCF38695779512
:103A40006795B395D9F73EF49095809570956195FB
:103A50007F4F8F4F9F4F08950E94981B20F019F0C1
:103A60000E949F1B50F40C94951B0C94DA1BE92FB9
:103A70000E94B71B88F35523B1F3E7FB6217730766
:103A800084079507A8F189F3E92FFF2788232AF0F7
:103A90003197660F771F881FDAF7952F5527442334
:103AA00032F091505040220F331F441FD2F7BB27F2
:103AB000E91BF50B621B730B840BB109B1F222F405
:103AC000620F731F841FB11D31972AF0660F771F95
:103AD000881FBB1FEFCF9150504062F041F0882308
:103AE00032F0660F771F881F91505040C1F79395B1
:103AF0000C94801D8695779567959F5FD9F7F7CFD2
:103B00009F3F31F0915020F4879577956795B79551
:103B1000880F911D9695879597F908950E94FB1A35
:103B200008F48FEF08950E94FB1A880B990B0895F3
:103B3000AA1BBB1B51E107C0AA1FBB1FA617B707D3
:103B400010F0A61BB70B881F991F5A95A9F78095EF
:103B50009095BC01CD01089597FB072E16F40094B3
:103B600007D077FD09D00E94981D07FC05D03EF4D0
:103B7000909581959F4F0895709561957F4F089519
:103B8000A1E21A2EAA1BBB1BFD010DC0AA1FBB1F61
:103B9000EE1FFF1FA217B307E407F50720F0A21BD3
:103BA000B30BE40BF50B661F771F881F991F1A9440
:103BB00069F760957095809590959B01AC01BD016A
:103BC000CF010895052E97FB1EF400940E94F91D65
:103BD00057FD07D00E94C01D07FC03D04EF40C9483
:103BE000F91D50954095309521953F4F4F4F5F4FB0
:103BF000089590958095709561957F4F8F4F9F4F59
:103C00000895EE0FFF1F0590F491E02D0994CF93D6
:103C1000DF938230910510F482E090E0E091F005AE
:103C2000F091F10520E030E0C0E0D0E0309711F1F4
:103C30004081518148175907C0F04817590761F46E
:103C400082819381209719F09B838A832BC0909364
:103C5000F1058093F00526C02115310519F04217B2
:103C6000530718F49A01BE01DF01EF010280F381CE
:103C7000E02DDCCF2115310509F1281B390B24304B
:103C8000310590F412968D919C91139761157105F1
:103C900021F0FB019383828304C09093F10580930C
:103CA000F005FD01329644C0FD01E20FF31F819340
:103CB0009193225031092D933C933AC02091EE0507
:103CC0003091EF05232B41F420910A0130910B0133
:103CD0003093EF052093EE05209108013091090102
:103CE0002115310541F42DB73EB740910C0150919B
:103CF0000D01241B350BE091EE05F091EF05E21765
:103D0000F307A0F42E1B3F0B2817390778F0AC01FE
:103D10004E5F5F4F2417350748F04E0F5F1F5093DB
:103D2000EF054093EE058193919302C0E0E0F0E04F
:103D3000CF01DF91CF9108950F931F93CF93DF931E
:103D4000009709F48CC0FC01329713821282009113
:103D5000F0051091F1050115110581F420813181E3
:103D6000820F931F2091EE053091EF052817390738
:103D700079F5F093EF05E093EE0571C0D80140E0CE
:103D800050E0AE17BF0750F412962D913C91139757
:103D9000AD012115310509F1D901F3CF9D01DA01FA
:103DA0003383228360817181860F971F8217930767
:103DB00069F4EC0128813981260F371F2E5F3F4FB0
:103DC000318320838A819B8193838283452B29F4CD
:103DD000F093F105E093F00542C01396FC93EE9347
:103DE0001297ED01499159919E01240F351FE21759
:103DF000F30771F480819181840F951F02961196CB
:103E00009C938E938281938113969C938E931297A9
:103E1000E0E0F0E0D80112968D919C911397009705
:103E200019F0F8018C01F6CF8D919C9198012E5FCD
:103E30003F4F820F931F2091EE053091EF05281719
:103E4000390769F4309729F41092F1051092F005C2
:103E500002C0138212821093EF050093EE05DF91EA
:103E6000CF911F910F910895A0E0B0E0EAE3FFE148
:103E70000C94E41BEC01009721F4CB010E94071E77
:103E8000B8C0FC01E60FF71F9C0122503109E21770
:103E9000F30708F4ACC0D9010D911C9111970617D6
:103EA0001707B0F00530110508F49FC0C80104974A
:103EB0008617970708F499C002501109061B170BC3
:103EC000019311936D937C93CF010E949C1E8DC032
:103ED0005B01A01AB10A4C01800E911EA091F00561
:103EE000B091F10540E050E0E12CF12C109709F47D
:103EF0004AC0A815B905D1F56D907C901197630162
:103F000082E0C80ED11CCA14DB0480F1A3014A1957
:103F10005B096A0182E0C80ED11C1296BC90129710
:103F20001396AC91B5E0CB16D10440F0B282A383D6
:103F300051834083D9016D937C930AC00E5F1F4F5C
:103F4000C301800F911FF90191838083EB2DFA2F1C
:103F5000E114F10431F0D7011396FC93EE9312971C
:103F600044C0F093F105E093F0053FC08D919C9122
:103F700011974817590708F4AC017D0112960D906E
:103F8000BC91A02DB3CF8091EE059091EF058815DF
:103F90009905E1F446175707C8F4809108019091FC
:103FA0000901009741F48DB79EB740910C015091E3
:103FB0000D01841B950BE817F907C8F4F093EF0582
:103FC000E093EE05F901718360830FC0CB010E947D
:103FD000071E7C01009759F0A801BE010E940C2029
:103FE000CE010E949C1EC70104C0CE0102C080E029
:103FF00090E0CDB7DEB7EEE00C94001C81E090E0DD
:10400000F8940C94F422803209F091110C948C1BDA
:1040100080528F55D8F70895FB01DC0102C0019052
:104020000D9241505040D8F70895FB01DC010190FA
:104030000D920020E1F70895FB01DC014150504052
:1040400030F08D910190801919F40020B9F7881B88
:10405000990B0895FB01DC014150504048F001905C
:104060000D920020C9F701C01D9241505040E0F769
:104070000895FB0151915523A9F0BF01DC014D9139
:1040800045174111E1F759F4CD010190002049F0A5
:104090004D9140154111C9F3FB014111EFCF81E072
:1040A00090E001970895AEE0B0E0E9E5F0E20C940D
:1040B000EE1B0D891E8986E08C831A8309838FEF9E
:1040C0009FE79E838D83AE01475E5F4F6F89788D3A
:1040D000CE0101960E9476202F813885F801E20FEB
:1040E000F31F10822E96E4E00C940A1CACE0B0E0C2
:1040F000ECE7F0E20C94E01B7C016B018A01FC010F
:1041000017821682838181FFBDC1CE0101964C01C9
:10411000F7019381F60193FD859193FF81916F01E2
:10412000882309F4ABC1853239F493FD859193FF5F
:1041300081916F01853229F4B70190E00E945E22DF
:10414000E7CF512C312C20E02032A0F48B3269F0E3
:1041500030F4803259F0833269F420612CC08D3202
:1041600039F0803339F4216026C02260246023C0F6
:10417000286021C027FD27C030ED380F3A3078F491
:1041800026FF06C0FAE05F9E300D1124532E13C0A7
:104190008AE0389E300D1124332E20620CC08E32FE
:1041A00021F426FD6BC1206406C08C3611F4206812
:1041B00002C0883641F4F60193FD859193FF819109
:1041C0006F018111C1CF982F9F7D9554933028F4B2
:1041D0000C5F1F4FFFE3F9830DC0833631F0833747
:1041E00071F0833509F05BC022C0F80180818983BA
:1041F0000E5F1F4F44244394512C540115C03801C5
:10420000F2E06F0E711CF801A080B18026FF03C0A0
:10421000652D70E002C06FEF7FEFC5012C870E9413
:1042200053222C0183012C852F77222E17C03801B1
:10423000F2E06F0E711CF801A080B18026FF03C070
:10424000652D70E002C06FEF7FEFC5012C870E94E3
:1042500048222C012C852068222E830123FC1BC0C0
:10426000832D90E048165906B0F4B70180E290E043
:104270000E945E223A94F4CFF50127FC859127FE37
:1042800081915F01B70190E00E945E2231103A9463
:10429000F1E04F1A51084114510471F7E5C084361A
:1042A00011F0893639F5F80127FF07C06081718167
:1042B000828193810C5F1F4F08C060817181072E3E
:1042C000000C880B990B0E5F1F4F2F76722E97FFF5
:1042D00009C090958095709561957F4F8F4F9F4F46
:1042E0002068722E2AE030E0A4010E949622A82EB7
:1042F000A81844C0853729F42F7EB22E2AE030E07A
:1043000025C0F22FF97FBF2E8F36C1F018F4883503
:1043100079F0B4C0803719F0883721F0AFC02F2F63
:104320002061B22EB4FE0DC08B2D8460B82E09C062
:1043300024FF0AC09F2F9660B92E06C028E030E007
:1043400005C020E130E002C020E132E0F801B7FE14
:1043500007C060817181828193810C5F1F4F06C00D
:104360006081718180E090E00E5F1F4FA4010E9488
:104370009622A82EA818FB2DFF777F2E76FE0BC065
:10438000372D3E7FA51450F474FE0AC072FC08C09D
:10439000372D3E7E05C0BA2C372D03C0BA2C01C084
:1043A000B52C34FF0DC0FE01EA0DF11D8081803374
:1043B00011F4397E09C032FF06C0B394B39404C02F
:1043C000832F867809F0B39433FD13C030FF06C005
:1043D0005A2CB31418F4530C5B18B32CB31468F4B0
:1043E000B70180E290E03C870E945E22B3943C8556
:1043F000F5CFB31410F43B1801C0312C34FF12C0B8
:10440000B70180E390E03C870E945E223C8532FF4A
:1044100017C031FD03C088E790E002C088E590E056
:10442000B7010CC0832F867859F031FF02C08BE2B0
:1044300001C080E237FD8DE2B70190E00E945E226C
:10444000A51438F4B70180E390E00E945E225A94EC
:10445000F7CFAA94F401EA0DF11D8081B70190E035
:104460000E945E22A110F5CF332009F451CEB7018E
:1044700080E290E00E945E223A94F6CFF7018681B6
:10448000978102C08FEF9FEF2C96E2E10C94FC1B0A
:10449000FC010590615070400110D8F7809590950F
:1044A0008E0F9F1F0895FC01615070400190011014
:1044B000D8F7809590958E0F9F1F08950F931F93A7
:1044C000CF93DF93FB01238121FD03C08FEF9FEF8B
:1044D00028C022FF16C046815781248135814217AA
:1044E000530744F4A081B1819D012F5F3F4F318379
:1044F00020838C93268137812F5F3F4F378326831C
:1045000010C0EB01092F182F0084F185E02D0995CB
:10451000892BE1F68E819F8101969F838E83812F67
:10452000902FDF91CF911F910F910895FA01AA2743
:10453000283051F1203181F1E8946F936E7F6E5FE6
:104540007F4F8F4F9F4FAF4FB1E03ED0B4E03CD094
:10455000670F781F891F9A1FA11D680F791F8A1F77
:10456000911DA11D6A0F711D811D911DA11D20D0DE
:1045700009F468943F912AE0269F11243019305D98
:104580003193DEF6CF010895462F4770405D419389
:10459000B3E00FD0C9F7F6CF462F4F70405D4A33D6
:1045A00018F0495D31FD4052419302D0A9F7EACF9E
:1045B000B4E0A6959795879577956795BA95C9F7CD
:1045C00000976105710508959B01AC010A2E0694C0
:1045D0005795479537952795BA95C9F7620F731F79
:1045E000841F951FA01D089511E0CCE2D1E004C006
:1045F000FE010E94011E2196CD32D107C9F7F89421
:02460000FFCFEA
:10460200FF03FF03FF03FF030000F20580003200F7
:104612003200320032000100010001000100FEFE02
:10462200FAFCF6FAF2F8000080BF0000C0BF0000FA
:1046320000006666A63F000000002F0F9C0EC70E0A
:10464200760FF80ED60EEA0E00000000BB0F9C0E8D
:104652005801BA0F0F102710A20F4552524F522085
:104662005349474E414C204944202564003A436F48
:104672006D4163636570746564004D41583A20254D
:1046820064202564202564202564004D494E3A208B
:104692002564202564202564202564004552524F5C
:1046A200522052414E474520532564005041524109
:1046B2004D53205325643D204D3A256420553A251B
:1046C20064204C3A2564004120256420256420257D
:1046D200642025642044202564202564202564204C
:1046E20025640053454E2025642046313A25642036
:1046F20046323A25642052313A25642052323A2514
:1047020064004D494E4C4F432564202564005325D7
:1047120064205057313D2564205043313D256420AB
:104722005057323D2564205043323D2564005325C5
:1047320064205057313D2564205043313D256400AB
:10474200532564205030206162736F6C757465204C
:10475200726567696F6E0053256420503120616273
:10476200736F6C75746520726567696F6E0053258F
:10477200642050302070756C7365207769647468AA
:10478200206D6574686F6400532564205031207079
:10479200756C7365207769647468206D6574686FE1
:1047A200640053256420503020666F726365642074
:1047B20070756C7365207769647468005325642092
:1047C200503120666F726365642070756C7365206A
:1047D200776964746800532564206F6E6520706584
:1047E200616B206F666673657400532564206F6E7B
:1047F20065207065616B204F524900532564204E3D
:104802004545444C453A20256400414E474C4525D8
:104812006420005325642053554D2564003A646199
:1048220074613D003A457272353030003A45727219
:10483200313030003A457272323030003A4572728D
:10484200343030005325642050302073656E736914
:10485200626C6520726567696F6E00532564205033
:10486200312073656E7369626C6520726567696F6A
:104872006E000D0A003A5265616479005245414466
:10488200003A646174613F003C4745544944213E0B
:10489200003C474554564152213E0074656D7000FC
:0C48A2006E616E00696E66006F76660045
:00000001FF
